{
  "_format": "hh-sol-artifact-1",
  "contractName": "Webaverse",
  "sourceName": "contracts/main/Webaverse.sol",
  "abi": [
    {
      "anonymous": false,
      "inputs": [
        {
          "indexed": true,
          "internalType": "address",
          "name": "previousOwner",
          "type": "address"
        },
        {
          "indexed": true,
          "internalType": "address",
          "name": "newOwner",
          "type": "address"
        }
      ],
      "name": "OwnershipTransferred",
      "type": "event"
    },
    {
      "inputs": [],
      "name": "ERC20Address",
      "outputs": [
        {
          "internalType": "address",
          "name": "",
          "type": "address"
        }
      ],
      "stateMutability": "view",
      "type": "function"
    },
    {
      "inputs": [],
      "name": "ERC721Address",
      "outputs": [
        {
          "internalType": "address",
          "name": "",
          "type": "address"
        }
      ],
      "stateMutability": "view",
      "type": "function"
    },
    {
      "inputs": [
        {
          "internalType": "address",
          "name": "_erc721Address",
          "type": "address"
        },
        {
          "internalType": "address",
          "name": "_erc20Address",
          "type": "address"
        },
        {
          "internalType": "uint256",
          "name": "mintFee_",
          "type": "uint256"
        },
        {
          "internalType": "address",
          "name": "treasuryAddress_",
          "type": "address"
        }
      ],
      "name": "initialize",
      "outputs": [],
      "stateMutability": "nonpayable",
      "type": "function"
    },
    {
      "inputs": [
        {
          "internalType": "address",
          "name": "to",
          "type": "address"
        },
        {
          "internalType": "string",
          "name": "hash",
          "type": "string"
        },
        {
          "internalType": "string",
          "name": "name",
          "type": "string"
        },
        {
          "internalType": "string",
          "name": "ext",
          "type": "string"
        },
        {
          "internalType": "string",
          "name": "description",
          "type": "string"
        }
      ],
      "name": "mint",
      "outputs": [],
      "stateMutability": "nonpayable",
      "type": "function"
    },
    {
      "inputs": [],
      "name": "mintFee",
      "outputs": [
        {
          "internalType": "uint256",
          "name": "",
          "type": "uint256"
        }
      ],
      "stateMutability": "view",
      "type": "function"
    },
    {
      "inputs": [],
      "name": "owner",
      "outputs": [
        {
          "internalType": "address",
          "name": "",
          "type": "address"
        }
      ],
      "stateMutability": "view",
      "type": "function"
    },
    {
      "inputs": [],
      "name": "renounceOwnership",
      "outputs": [],
      "stateMutability": "nonpayable",
      "type": "function"
    },
    {
      "inputs": [
        {
          "internalType": "address",
          "name": "_erc20Address",
          "type": "address"
        }
      ],
      "name": "setERC20",
      "outputs": [],
      "stateMutability": "nonpayable",
      "type": "function"
    },
    {
      "inputs": [
        {
          "internalType": "address",
          "name": "_erc721Address",
          "type": "address"
        }
      ],
      "name": "setERC721",
      "outputs": [],
      "stateMutability": "nonpayable",
      "type": "function"
    },
    {
      "inputs": [
        {
          "internalType": "string",
          "name": "hash",
          "type": "string"
        },
        {
          "internalType": "string",
          "name": "key",
          "type": "string"
        },
        {
          "internalType": "string",
          "name": "value",
          "type": "string"
        }
      ],
      "name": "setMetadata",
      "outputs": [],
      "stateMutability": "nonpayable",
      "type": "function"
    },
    {
      "inputs": [
        {
          "internalType": "uint256",
          "name": "mintFee_",
          "type": "uint256"
        }
      ],
      "name": "setMintFee",
      "outputs": [],
      "stateMutability": "nonpayable",
      "type": "function"
    },
    {
      "inputs": [
        {
          "internalType": "address",
          "name": "treasuryAddress_",
          "type": "address"
        }
      ],
      "name": "setTreasuryAddress",
      "outputs": [],
      "stateMutability": "nonpayable",
      "type": "function"
    },
    {
      "inputs": [
        {
          "internalType": "address",
          "name": "newOwner",
          "type": "address"
        }
      ],
      "name": "transferOwnership",
      "outputs": [],
      "stateMutability": "nonpayable",
      "type": "function"
    },
    {
      "inputs": [],
      "name": "treasuryAddress",
      "outputs": [
        {
          "internalType": "address",
          "name": "",
          "type": "address"
        }
      ],
      "stateMutability": "view",
      "type": "function"
    }
  ],
  "bytecode": "0x608060405234801561001057600080fd5b50610dda806100206000396000f3fe608060405234801561001057600080fd5b50600436106100ea5760003560e01c8063a40d1b101161008c578063c29a6fda11610066578063c29a6fda146101b5578063c5f956af146101c8578063eddd0d9c146101d9578063f2fde38b146101ec57600080fd5b8063a40d1b101461017e578063a6021ace14610191578063be203094146101a257600080fd5b8063574490cd116100c8578063574490cd1461012d5780636605bfda14610152578063715018a6146101655780638da5cb5b1461016d57600080fd5b80630890d80c146100ef578063094144a51461010457806313966db514610117575b600080fd5b6101026100fd366004610b32565b6101ff565b005b6101026101123660046109bc565b6103ee565b6067546040519081526020015b60405180910390f35b6065546001600160a01b03165b6040516001600160a01b039091168152602001610124565b6101026101603660046109bc565b61043a565b610102610486565b6033546001600160a01b031661013a565b61010261018c366004610a50565b6104bc565b6066546001600160a01b031661013a565b6101026101b03660046109fd565b610650565b6101026101c33660046109bc565b610739565b6068546001600160a01b031661013a565b6101026101e7366004610bba565b610785565b6101026101fa3660046109bc565b6107b4565b60655460405163ea640c9560e01b81526000916001600160a01b03169063ea640c9590610230908790600401610ca3565b60206040518083038186803b15801561024857600080fd5b505afa15801561025c573d6000803e3d6000fd5b505050506040513d601f19601f820116820180604052508101906102809190610bd3565b6065546040516331a9108f60e11b81526004810183905291925033916001600160a01b0390911690636352211e9060240160206040518083038186803b1580156102c957600080fd5b505afa1580156102dd573d6000803e3d6000fd5b505050506040513d601f19601f8201168201806040525081019061030191906109e0565b6001600160a01b0316146103825760405162461bcd60e51b815260206004820152603c60248201527f5765626176657273653a207365745552492063616e206f6e6c7920626520636160448201527f6c6c656420627920746865206f776e6572206f6620746865204e46540000000060648201526084015b60405180910390fd5b606554604051630224360360e21b81526001600160a01b0390911690630890d80c906103b690879087908790600401610cb6565b600060405180830381600087803b1580156103d057600080fd5b505af11580156103e4573d6000803e3d6000fd5b5050505050505050565b6033546001600160a01b031633146104185760405162461bcd60e51b815260040161037990610cf9565b606580546001600160a01b0319166001600160a01b0392909216919091179055565b6033546001600160a01b031633146104645760405162461bcd60e51b815260040161037990610cf9565b606880546001600160a01b0319166001600160a01b0392909216919091179055565b6033546001600160a01b031633146104b05760405162461bcd60e51b815260040161037990610cf9565b6104ba600061084f565b565b606754156105be576066546001600160a01b03166323b872dd336104e86068546001600160a01b031690565b6067546040516001600160e01b031960e086901b1681526001600160a01b0393841660048201529290911660248301526044820152606401602060405180830381600087803b15801561053a57600080fd5b505af115801561054e573d6000803e3d6000fd5b505050506040513d601f19601f820116820180604052508101906105729190610b10565b6105be5760405162461bcd60e51b815260206004820152601f60248201527f5765626176657273653a204d696e74207472616e73666572206661696c6564006044820152606401610379565b606554604051630a40d1b160e41b81526001600160a01b039091169063a40d1b10906105f69088908890889088908890600401610c39565b602060405180830381600087803b15801561061057600080fd5b505af1158015610624573d6000803e3d6000fd5b505050506040513d601f19601f820116820180604052508101906106489190610bd3565b505050505050565b600054610100900460ff1661066b5760005460ff161561066f565b303b155b6106d25760405162461bcd60e51b815260206004820152602e60248201527f496e697469616c697a61626c653a20636f6e747261637420697320616c72656160448201526d191e481a5b9a5d1a585b1a5e995960921b6064820152608401610379565b600054610100900460ff161580156106f4576000805461ffff19166101011790555b6106fc6108a1565b610705856103ee565b61070e84610739565b61071783610785565b6107208261043a565b8015610732576000805461ff00191690555b5050505050565b6033546001600160a01b031633146107635760405162461bcd60e51b815260040161037990610cf9565b606680546001600160a01b0319166001600160a01b0392909216919091179055565b6033546001600160a01b031633146107af5760405162461bcd60e51b815260040161037990610cf9565b606755565b6033546001600160a01b031633146107de5760405162461bcd60e51b815260040161037990610cf9565b6001600160a01b0381166108435760405162461bcd60e51b815260206004820152602660248201527f4f776e61626c653a206e6577206f776e657220697320746865207a65726f206160448201526564647265737360d01b6064820152608401610379565b61084c8161084f565b50565b603380546001600160a01b038381166001600160a01b0319831681179093556040519116919082907f8be0079c531659141344cd1fd0a4f28419497f9722a3daafe3b4186f6b6457e090600090a35050565b600054610100900460ff166108c85760405162461bcd60e51b815260040161037990610d2e565b6108d06108d8565b6104ba6108ff565b600054610100900460ff166104ba5760405162461bcd60e51b815260040161037990610d2e565b600054610100900460ff166109265760405162461bcd60e51b815260040161037990610d2e565b6104ba3361084f565b600082601f83011261094057600080fd5b813567ffffffffffffffff8082111561095b5761095b610d79565b604051601f8301601f19908116603f0116810190828211818310171561098357610983610d79565b8160405283815286602085880101111561099c57600080fd5b836020870160208301376000602085830101528094505050505092915050565b6000602082840312156109ce57600080fd5b81356109d981610d8f565b9392505050565b6000602082840312156109f257600080fd5b81516109d981610d8f565b60008060008060808587031215610a1357600080fd5b8435610a1e81610d8f565b93506020850135610a2e81610d8f565b9250604085013591506060850135610a4581610d8f565b939692955090935050565b600080600080600060a08688031215610a6857600080fd5b8535610a7381610d8f565b9450602086013567ffffffffffffffff80821115610a9057600080fd5b610a9c89838a0161092f565b95506040880135915080821115610ab257600080fd5b610abe89838a0161092f565b94506060880135915080821115610ad457600080fd5b610ae089838a0161092f565b93506080880135915080821115610af657600080fd5b50610b038882890161092f565b9150509295509295909350565b600060208284031215610b2257600080fd5b815180151581146109d957600080fd5b600080600060608486031215610b4757600080fd5b833567ffffffffffffffff80821115610b5f57600080fd5b610b6b8783880161092f565b94506020860135915080821115610b8157600080fd5b610b8d8783880161092f565b93506040860135915080821115610ba357600080fd5b50610bb08682870161092f565b9150509250925092565b600060208284031215610bcc57600080fd5b5035919050565b600060208284031215610be557600080fd5b5051919050565b6000815180845260005b81811015610c1257602081850181015186830182015201610bf6565b81811115610c24576000602083870101525b50601f01601f19169290920160200192915050565b6001600160a01b038616815260a060208201819052600090610c5d90830187610bec565b8281036040840152610c6f8187610bec565b90508281036060840152610c838186610bec565b90508281036080840152610c978185610bec565b98975050505050505050565b6020815260006109d96020830184610bec565b606081526000610cc96060830186610bec565b8281036020840152610cdb8186610bec565b90508281036040840152610cef8185610bec565b9695505050505050565b6020808252818101527f4f776e61626c653a2063616c6c6572206973206e6f7420746865206f776e6572604082015260600190565b6020808252602b908201527f496e697469616c697a61626c653a20636f6e7472616374206973206e6f74206960408201526a6e697469616c697a696e6760a81b606082015260800190565b634e487b7160e01b600052604160045260246000fd5b6001600160a01b038116811461084c57600080fdfea2646970667358221220cfe6f1379859cc9c296ef4a6991bbd1bc6a993c1de7ea8db14c412a35688187564736f6c63430008070033",
  "linkReferences": {},
  "deployedLinkReferences": {}
}