{
  "contractName": "Webaverse",
  "abi": [
    {
      "anonymous": false,
      "inputs": [
        {
          "indexed": true,
          "internalType": "address",
          "name": "previousOwner",
          "type": "address"
        },
        {
          "indexed": true,
          "internalType": "address",
          "name": "newOwner",
          "type": "address"
        }
      ],
      "name": "OwnershipTransferred",
      "type": "event"
    },
    {
      "inputs": [],
      "name": "owner",
      "outputs": [
        {
          "internalType": "address",
          "name": "",
          "type": "address"
        }
      ],
      "stateMutability": "view",
      "type": "function",
      "constant": true
    },
    {
      "inputs": [],
      "name": "renounceOwnership",
      "outputs": [],
      "stateMutability": "nonpayable",
      "type": "function"
    },
    {
      "inputs": [
        {
          "internalType": "address",
          "name": "newOwner",
          "type": "address"
        }
      ],
      "name": "transferOwnership",
      "outputs": [],
      "stateMutability": "nonpayable",
      "type": "function"
    },
    {
      "inputs": [
        {
          "internalType": "address",
          "name": "_erc721Address",
          "type": "address"
        },
        {
          "internalType": "address",
          "name": "_erc20Address",
          "type": "address"
        },
        {
          "internalType": "uint256",
          "name": "mintFee_",
          "type": "uint256"
        },
        {
          "internalType": "address",
          "name": "treasuryAddress_",
          "type": "address"
        }
      ],
      "name": "initialize",
      "outputs": [],
      "stateMutability": "nonpayable",
      "type": "function"
    },
    {
      "inputs": [],
      "name": "mintFee",
      "outputs": [
        {
          "internalType": "uint256",
          "name": "",
          "type": "uint256"
        }
      ],
      "stateMutability": "view",
      "type": "function",
      "constant": true
    },
    {
      "inputs": [],
      "name": "ERC721Address",
      "outputs": [
        {
          "internalType": "address",
          "name": "",
          "type": "address"
        }
      ],
      "stateMutability": "view",
      "type": "function",
      "constant": true
    },
    {
      "inputs": [],
      "name": "ERC20Address",
      "outputs": [
        {
          "internalType": "address",
          "name": "",
          "type": "address"
        }
      ],
      "stateMutability": "view",
      "type": "function",
      "constant": true
    },
    {
      "inputs": [
        {
          "internalType": "address",
          "name": "_erc721Address",
          "type": "address"
        }
      ],
      "name": "setERC721",
      "outputs": [],
      "stateMutability": "nonpayable",
      "type": "function"
    },
    {
      "inputs": [
        {
          "internalType": "address",
          "name": "_erc20Address",
          "type": "address"
        }
      ],
      "name": "setERC20",
      "outputs": [],
      "stateMutability": "nonpayable",
      "type": "function"
    },
    {
      "inputs": [
        {
          "internalType": "uint256",
          "name": "mintFee_",
          "type": "uint256"
        }
      ],
      "name": "setMintFee",
      "outputs": [],
      "stateMutability": "nonpayable",
      "type": "function"
    },
    {
      "inputs": [],
      "name": "treasuryAddress",
      "outputs": [
        {
          "internalType": "address",
          "name": "",
          "type": "address"
        }
      ],
      "stateMutability": "view",
      "type": "function",
      "constant": true
    },
    {
      "inputs": [
        {
          "internalType": "address",
          "name": "treasuryAddress_",
          "type": "address"
        }
      ],
      "name": "setTreasuryAddress",
      "outputs": [],
      "stateMutability": "nonpayable",
      "type": "function"
    },
    {
      "inputs": [
        {
          "internalType": "address",
          "name": "to",
          "type": "address"
        },
        {
          "internalType": "string",
          "name": "hash",
          "type": "string"
        },
        {
          "internalType": "string",
          "name": "name",
          "type": "string"
        },
        {
          "internalType": "string",
          "name": "ext",
          "type": "string"
        },
        {
          "internalType": "string",
          "name": "description",
          "type": "string"
        }
      ],
      "name": "mint",
      "outputs": [],
      "stateMutability": "nonpayable",
      "type": "function"
    },
    {
      "inputs": [
        {
          "internalType": "string",
          "name": "hash",
          "type": "string"
        },
        {
          "internalType": "string",
          "name": "key",
          "type": "string"
        },
        {
          "internalType": "string",
          "name": "value",
          "type": "string"
        }
      ],
      "name": "setMetadata",
      "outputs": [],
      "stateMutability": "nonpayable",
      "type": "function"
    }
  ],
  "bytecode": "0x608060405234801561001057600080fd5b50610e47806100206000396000f3fe608060405234801561001057600080fd5b50600436106100ea5760003560e01c8063a40d1b101161008c578063c29a6fda11610066578063c29a6fda146101b5578063c5f956af146101c8578063eddd0d9c146101d9578063f2fde38b146101ec57600080fd5b8063a40d1b101461017e578063a6021ace14610191578063be203094146101a257600080fd5b8063574490cd116100c8578063574490cd1461012d5780636605bfda14610152578063715018a6146101655780638da5cb5b1461016d57600080fd5b80630890d80c146100ef578063094144a51461010457806313966db514610117575b600080fd5b6101026100fd366004610b9c565b6101ff565b005b610102610112366004610a26565b6103ee565b6067546040519081526020015b60405180910390f35b6065546001600160a01b03165b6040516001600160a01b039091168152602001610124565b610102610160366004610a26565b61043a565b610102610486565b6033546001600160a01b031661013a565b61010261018c366004610aba565b6104bc565b6066546001600160a01b031661013a565b6101026101b0366004610a67565b610650565b6101026101c3366004610a26565b6106ec565b6068546001600160a01b031661013a565b6101026101e7366004610c24565b610738565b6101026101fa366004610a26565b610767565b60655460405163ea640c9560e01b81526000916001600160a01b03169063ea640c9590610230908790600401610d0d565b60206040518083038186803b15801561024857600080fd5b505afa15801561025c573d6000803e3d6000fd5b505050506040513d601f19601f820116820180604052508101906102809190610c3d565b6065546040516331a9108f60e11b81526004810183905291925033916001600160a01b0390911690636352211e9060240160206040518083038186803b1580156102c957600080fd5b505afa1580156102dd573d6000803e3d6000fd5b505050506040513d601f19601f820116820180604052508101906103019190610a4a565b6001600160a01b0316146103825760405162461bcd60e51b815260206004820152603c60248201527f5765626176657273653a207365745552492063616e206f6e6c7920626520636160448201527f6c6c656420627920746865206f776e6572206f6620746865204e46540000000060648201526084015b60405180910390fd5b606554604051630224360360e21b81526001600160a01b0390911690630890d80c906103b690879087908790600401610d20565b600060405180830381600087803b1580156103d057600080fd5b505af11580156103e4573d6000803e3d6000fd5b5050505050505050565b6033546001600160a01b031633146104185760405162461bcd60e51b815260040161037990610db1565b606580546001600160a01b0319166001600160a01b0392909216919091179055565b6033546001600160a01b031633146104645760405162461bcd60e51b815260040161037990610db1565b606880546001600160a01b0319166001600160a01b0392909216919091179055565b6033546001600160a01b031633146104b05760405162461bcd60e51b815260040161037990610db1565b6104ba6000610802565b565b606754156105be576066546001600160a01b03166323b872dd336104e86068546001600160a01b031690565b6067546040516001600160e01b031960e086901b1681526001600160a01b0393841660048201529290911660248301526044820152606401602060405180830381600087803b15801561053a57600080fd5b505af115801561054e573d6000803e3d6000fd5b505050506040513d601f19601f820116820180604052508101906105729190610b7a565b6105be5760405162461bcd60e51b815260206004820152601f60248201527f5765626176657273653a204d696e74207472616e73666572206661696c6564006044820152606401610379565b606554604051630a40d1b160e41b81526001600160a01b039091169063a40d1b10906105f69088908890889088908890600401610ca3565b602060405180830381600087803b15801561061057600080fd5b505af1158015610624573d6000803e3d6000fd5b505050506040513d601f19601f820116820180604052508101906106489190610c3d565b505050505050565b600054610100900460ff1680610669575060005460ff16155b6106855760405162461bcd60e51b815260040161037990610d63565b600054610100900460ff161580156106a7576000805461ffff19166101011790555b6106af610854565b6106b8856103ee565b6106c1846106ec565b6106ca83610738565b6106d38261043a565b80156106e5576000805461ff00191690555b5050505050565b6033546001600160a01b031633146107165760405162461bcd60e51b815260040161037990610db1565b606680546001600160a01b0319166001600160a01b0392909216919091179055565b6033546001600160a01b031633146107625760405162461bcd60e51b815260040161037990610db1565b606755565b6033546001600160a01b031633146107915760405162461bcd60e51b815260040161037990610db1565b6001600160a01b0381166107f65760405162461bcd60e51b815260206004820152602660248201527f4f776e61626c653a206e6577206f776e657220697320746865207a65726f206160448201526564647265737360d01b6064820152608401610379565b6107ff81610802565b50565b603380546001600160a01b038381166001600160a01b0319831681179093556040519116919082907f8be0079c531659141344cd1fd0a4f28419497f9722a3daafe3b4186f6b6457e090600090a35050565b600054610100900460ff168061086d575060005460ff16155b6108895760405162461bcd60e51b815260040161037990610d63565b600054610100900460ff161580156108ab576000805461ffff19166101011790555b6108b36108cf565b6108bb610939565b80156107ff576000805461ff001916905550565b600054610100900460ff16806108e8575060005460ff16155b6109045760405162461bcd60e51b815260040161037990610d63565b600054610100900460ff161580156108bb576000805461ffff191661010117905580156107ff576000805461ff001916905550565b600054610100900460ff1680610952575060005460ff16155b61096e5760405162461bcd60e51b815260040161037990610d63565b600054610100900460ff16158015610990576000805461ffff19166101011790555b6108bb33610802565b600082601f8301126109aa57600080fd5b813567ffffffffffffffff808211156109c5576109c5610de6565b604051601f8301601f19908116603f011681019082821181831017156109ed576109ed610de6565b81604052838152866020858801011115610a0657600080fd5b836020870160208301376000602085830101528094505050505092915050565b600060208284031215610a3857600080fd5b8135610a4381610dfc565b9392505050565b600060208284031215610a5c57600080fd5b8151610a4381610dfc565b60008060008060808587031215610a7d57600080fd5b8435610a8881610dfc565b93506020850135610a9881610dfc565b9250604085013591506060850135610aaf81610dfc565b939692955090935050565b600080600080600060a08688031215610ad257600080fd5b8535610add81610dfc565b9450602086013567ffffffffffffffff80821115610afa57600080fd5b610b0689838a01610999565b95506040880135915080821115610b1c57600080fd5b610b2889838a01610999565b94506060880135915080821115610b3e57600080fd5b610b4a89838a01610999565b93506080880135915080821115610b6057600080fd5b50610b6d88828901610999565b9150509295509295909350565b600060208284031215610b8c57600080fd5b81518015158114610a4357600080fd5b600080600060608486031215610bb157600080fd5b833567ffffffffffffffff80821115610bc957600080fd5b610bd587838801610999565b94506020860135915080821115610beb57600080fd5b610bf787838801610999565b93506040860135915080821115610c0d57600080fd5b50610c1a86828701610999565b9150509250925092565b600060208284031215610c3657600080fd5b5035919050565b600060208284031215610c4f57600080fd5b5051919050565b6000815180845260005b81811015610c7c57602081850181015186830182015201610c60565b81811115610c8e576000602083870101525b50601f01601f19169290920160200192915050565b6001600160a01b038616815260a060208201819052600090610cc790830187610c56565b8281036040840152610cd98187610c56565b90508281036060840152610ced8186610c56565b90508281036080840152610d018185610c56565b98975050505050505050565b602081526000610a436020830184610c56565b606081526000610d336060830186610c56565b8281036020840152610d458186610c56565b90508281036040840152610d598185610c56565b9695505050505050565b6020808252602e908201527f496e697469616c697a61626c653a20636f6e747261637420697320616c72656160408201526d191e481a5b9a5d1a585b1a5e995960921b606082015260800190565b6020808252818101527f4f776e61626c653a2063616c6c6572206973206e6f7420746865206f776e6572604082015260600190565b634e487b7160e01b600052604160045260246000fd5b6001600160a01b03811681146107ff57600080fdfea26469706673582212209e65f1828210dd13fdb03b7385eeb967dcb66acb8473223bb7369729cb4defc964736f6c63430008070033",
  "immutableReferences": {},
  "source": "// SPDX-License-Identifier: MIT\n\npragma solidity ^0.8.7;\n\nimport \"@openzeppelin/contracts-upgradeable/access/OwnableUpgradeable.sol\";\nimport \"./WebaverseERC721.sol\";\nimport \"./WebaverseERC20.sol\";\n\ncontract Webaverse is OwnableUpgradeable {\n    WebaverseERC721 private _erc721;\n    WebaverseERC20 private _erc20;\n    uint256 private _mintFee; // ERC20 fee to mint ERC721\n    address private _treasuryAddress;\n\n    /**\n     * @dev Creates the Upgradeable Webaverse contract\n     * @param _erc721Address WebaverseERC721 contract address for Non-fungible tokens\n     * @param _erc20Address WebaverseERC20 contract address for fungible tokens\n     * @param mintFee_ The amount of WebaverseERC20 tokens required to mint a single NFT\n     * @param treasuryAddress_ Address of the treasury account\n     */\n    function initialize(\n        address _erc721Address,\n        address _erc20Address,\n        uint256 mintFee_,\n        address treasuryAddress_\n    ) public initializer {\n        __Ownable_init();\n        setERC721(_erc721Address);\n        setERC20(_erc20Address);\n        setMintFee(mintFee_);\n        setTreasuryAddress(treasuryAddress_);\n    }\n\n    // constructor(\n    //     address _erc721Address,\n    //     address _erc20Address,\n    //     uint256 mintFee_\n    // ) {\n    //     setERC721(_erc721Address);\n    //     setERC20(_erc20Address);\n    //     setMintFee(mintFee_);\n    // }\n\n    /**\n     * @return The amount of ERC20 tokens required to mint the ERC721 NFT\n     */\n    function mintFee() public view returns (uint256) {\n        return _mintFee;\n    }\n\n    /**\n     * @return The address of Webaverse ERC721 contract\n     */\n    function ERC721Address() public view returns (address) {\n        return address(_erc721);\n    }\n\n    /**\n     * @return The address of Webaverse ERC20 contract\n     */\n    function ERC20Address() public view returns (address) {\n        return address(_erc20);\n    }\n\n    /**\n     * @dev Set the contract instance for ERC721\n     * @param _erc721Address The address of the ERC721 contract that needs to be set\n     */\n    function setERC721(address _erc721Address) public onlyOwner {\n        _erc721 = WebaverseERC721(_erc721Address);\n    }\n\n    /**\n     * @dev Set the contract instance for ERC20\n     * @param _erc20Address The address of the ERC20 contract that needs to be set\n     */\n    function setERC20(address _erc20Address) public onlyOwner {\n        _erc20 = WebaverseERC20(_erc20Address);\n    }\n\n    /**\n     * @dev Set the price to mint\n     * @param mintFee_ Minting fee, default is 10 FT\n     */\n    function setMintFee(uint256 mintFee_) public onlyOwner {\n        _mintFee = mintFee_;\n    }\n\n    /**\n     * @return The address that is used for receiving mint fee (ERC20 tokens)\n     */\n    function treasuryAddress() public view returns (address) {\n        return _treasuryAddress;\n    }\n\n    /**\n     * @dev Set the treasury address\n     * @param treasuryAddress_ Account address of the treasurer\n     */\n    function setTreasuryAddress(address treasuryAddress_) public onlyOwner {\n        _treasuryAddress = treasuryAddress_;\n    }\n\n    /**\n     * @notice Mints the a single NFT with given parameters.\n     * @param to The address on which the NFT will be minted.\n     * @param hash The URL of the NFT.\n     * @param name The name of the NFT.\n     * @param ext The name of the NFT.\n     * @param description The description of the NFT.\n     **/\n    function mint(\n        address to,\n        string memory hash,\n        string memory name,\n        string memory ext,\n        string memory description\n    ) public {\n        if (mintFee() != 0) {\n            require(\n                _erc20.transferFrom(msg.sender, treasuryAddress(), mintFee()),\n                \"Webaverse: Mint transfer failed\"\n            );\n        }\n        _erc721.mint(to, hash, name, ext, description);\n    }\n\n    /**\n     * @dev Set metadata for the token. Metadata is a key-value store that can be set by owners and collaborators\n     * @param hash Token hash to add metadata to\n     * @param key Key to store value at\n     * @param value Value to store\n     */\n    function setMetadata(\n        string memory hash,\n        string memory key,\n        string memory value\n    ) public {\n        uint256 tokenId = _erc721.getTokenIdFromHash(hash);\n        require(\n            _erc721.ownerOf(tokenId) == msg.sender,\n            \"Webaverse: setURI can only be called by the owner of the NFT\"\n        );\n        _erc721.setMetadata(hash, key, value);\n    }\n}\n",
  "sourcePath": "/home/mohsin/Desktop/sidechain/contracts/main/Webaverse.sol",
  "compiler": {
    "name": "solc",
    "version": "0.8.7+commit.e28d00a7.Emscripten.clang"
  },
  "schemaVersion": "3.4.3",
  "updatedAt": "2022-01-15T16:13:12.116Z",
  "networkType": "ethereum",
  "devdoc": {
    "kind": "dev",
    "methods": {
      "ERC20Address()": {
        "returns": {
          "_0": "The address of Webaverse ERC20 contract"
        }
      },
      "ERC721Address()": {
        "returns": {
          "_0": "The address of Webaverse ERC721 contract"
        }
      },
      "initialize(address,address,uint256,address)": {
        "details": "Creates the Upgradeable Webaverse contract",
        "params": {
          "_erc20Address": "WebaverseERC20 contract address for fungible tokens",
          "_erc721Address": "WebaverseERC721 contract address for Non-fungible tokens",
          "mintFee_": "The amount of WebaverseERC20 tokens required to mint a single NFT",
          "treasuryAddress_": "Address of the treasury account"
        }
      },
      "mint(address,string,string,string,string)": {
        "params": {
          "description": "The description of the NFT.*",
          "ext": "The name of the NFT.",
          "hash": "The URL of the NFT.",
          "name": "The name of the NFT.",
          "to": "The address on which the NFT will be minted."
        }
      },
      "mintFee()": {
        "returns": {
          "_0": "The amount of ERC20 tokens required to mint the ERC721 NFT"
        }
      },
      "owner()": {
        "details": "Returns the address of the current owner."
      },
      "renounceOwnership()": {
        "details": "Leaves the contract without owner. It will not be possible to call `onlyOwner` functions anymore. Can only be called by the current owner. NOTE: Renouncing ownership will leave the contract without an owner, thereby removing any functionality that is only available to the owner."
      },
      "setERC20(address)": {
        "details": "Set the contract instance for ERC20",
        "params": {
          "_erc20Address": "The address of the ERC20 contract that needs to be set"
        }
      },
      "setERC721(address)": {
        "details": "Set the contract instance for ERC721",
        "params": {
          "_erc721Address": "The address of the ERC721 contract that needs to be set"
        }
      },
      "setMetadata(string,string,string)": {
        "details": "Set metadata for the token. Metadata is a key-value store that can be set by owners and collaborators",
        "params": {
          "hash": "Token hash to add metadata to",
          "key": "Key to store value at",
          "value": "Value to store"
        }
      },
      "setMintFee(uint256)": {
        "details": "Set the price to mint",
        "params": {
          "mintFee_": "Minting fee, default is 10 FT"
        }
      },
      "setTreasuryAddress(address)": {
        "details": "Set the treasury address",
        "params": {
          "treasuryAddress_": "Account address of the treasurer"
        }
      },
      "transferOwnership(address)": {
        "details": "Transfers ownership of the contract to a new account (`newOwner`). Can only be called by the current owner."
      },
      "treasuryAddress()": {
        "returns": {
          "_0": "The address that is used for receiving mint fee (ERC20 tokens)"
        }
      }
    },
    "version": 1
  },
  "userdoc": {
    "kind": "user",
    "methods": {
      "mint(address,string,string,string,string)": {
        "notice": "Mints the a single NFT with given parameters."
      }
    },
    "version": 1
  }
}