{
  "contractName": "WebaverseERC721",
  "abi": [
    {
      "anonymous": false,
      "inputs": [
        {
          "indexed": true,
          "internalType": "address",
          "name": "owner",
          "type": "address"
        },
        {
          "indexed": true,
          "internalType": "address",
          "name": "approved",
          "type": "address"
        },
        {
          "indexed": true,
          "internalType": "uint256",
          "name": "tokenId",
          "type": "uint256"
        }
      ],
      "name": "Approval",
      "type": "event"
    },
    {
      "anonymous": false,
      "inputs": [
        {
          "indexed": true,
          "internalType": "address",
          "name": "owner",
          "type": "address"
        },
        {
          "indexed": true,
          "internalType": "address",
          "name": "operator",
          "type": "address"
        },
        {
          "indexed": false,
          "internalType": "bool",
          "name": "approved",
          "type": "bool"
        }
      ],
      "name": "ApprovalForAll",
      "type": "event"
    },
    {
      "anonymous": false,
      "inputs": [
        {
          "indexed": false,
          "internalType": "address",
          "name": "signer",
          "type": "address"
        },
        {
          "indexed": false,
          "internalType": "address",
          "name": "claimer",
          "type": "address"
        },
        {
          "indexed": true,
          "internalType": "uint256",
          "name": "id",
          "type": "uint256"
        }
      ],
      "name": "Claim",
      "type": "event"
    },
    {
      "anonymous": false,
      "inputs": [
        {
          "indexed": true,
          "internalType": "address",
          "name": "externalContract",
          "type": "address"
        },
        {
          "indexed": false,
          "internalType": "address",
          "name": "signer",
          "type": "address"
        },
        {
          "indexed": false,
          "internalType": "address",
          "name": "claimer",
          "type": "address"
        },
        {
          "indexed": true,
          "internalType": "uint256",
          "name": "id",
          "type": "uint256"
        }
      ],
      "name": "ExternalClaim",
      "type": "event"
    },
    {
      "anonymous": false,
      "inputs": [
        {
          "indexed": false,
          "internalType": "string",
          "name": "oldHash",
          "type": "string"
        },
        {
          "indexed": false,
          "internalType": "string",
          "name": "newHash",
          "type": "string"
        }
      ],
      "name": "HashUpdate",
      "type": "event"
    },
    {
      "anonymous": false,
      "inputs": [
        {
          "indexed": false,
          "internalType": "string",
          "name": "hash",
          "type": "string"
        },
        {
          "indexed": false,
          "internalType": "string",
          "name": "key",
          "type": "string"
        },
        {
          "indexed": false,
          "internalType": "string",
          "name": "value",
          "type": "string"
        }
      ],
      "name": "MetadataSet",
      "type": "event"
    },
    {
      "anonymous": false,
      "inputs": [
        {
          "indexed": true,
          "internalType": "address",
          "name": "previousOwner",
          "type": "address"
        },
        {
          "indexed": true,
          "internalType": "address",
          "name": "newOwner",
          "type": "address"
        }
      ],
      "name": "OwnershipTransferred",
      "type": "event"
    },
    {
      "anonymous": false,
      "inputs": [
        {
          "indexed": false,
          "internalType": "uint256",
          "name": "tokenId",
          "type": "uint256"
        },
        {
          "indexed": false,
          "internalType": "string",
          "name": "key",
          "type": "string"
        },
        {
          "indexed": false,
          "internalType": "string",
          "name": "value",
          "type": "string"
        }
      ],
      "name": "SingleMetadataSet",
      "type": "event"
    },
    {
      "anonymous": false,
      "inputs": [
        {
          "indexed": true,
          "internalType": "address",
          "name": "from",
          "type": "address"
        },
        {
          "indexed": true,
          "internalType": "address",
          "name": "to",
          "type": "address"
        },
        {
          "indexed": true,
          "internalType": "uint256",
          "name": "tokenId",
          "type": "uint256"
        }
      ],
      "name": "Transfer",
      "type": "event"
    },
    {
      "inputs": [],
      "name": "_webaverse_voucher_init",
      "outputs": [],
      "stateMutability": "nonpayable",
      "type": "function"
    },
    {
      "inputs": [
        {
          "internalType": "address",
          "name": "to",
          "type": "address"
        },
        {
          "internalType": "uint256",
          "name": "tokenId",
          "type": "uint256"
        }
      ],
      "name": "approve",
      "outputs": [],
      "stateMutability": "nonpayable",
      "type": "function"
    },
    {
      "inputs": [
        {
          "internalType": "address",
          "name": "owner",
          "type": "address"
        }
      ],
      "name": "balanceOf",
      "outputs": [
        {
          "internalType": "uint256",
          "name": "",
          "type": "uint256"
        }
      ],
      "stateMutability": "view",
      "type": "function",
      "constant": true
    },
    {
      "inputs": [
        {
          "internalType": "uint256",
          "name": "",
          "type": "uint256"
        }
      ],
      "name": "burnedNonces",
      "outputs": [
        {
          "internalType": "bool",
          "name": "",
          "type": "bool"
        }
      ],
      "stateMutability": "view",
      "type": "function",
      "constant": true
    },
    {
      "inputs": [],
      "name": "currentTokenId",
      "outputs": [
        {
          "internalType": "uint256",
          "name": "",
          "type": "uint256"
        }
      ],
      "stateMutability": "view",
      "type": "function",
      "constant": true
    },
    {
      "inputs": [
        {
          "internalType": "uint256",
          "name": "tokenId",
          "type": "uint256"
        }
      ],
      "name": "getApproved",
      "outputs": [
        {
          "internalType": "address",
          "name": "",
          "type": "address"
        }
      ],
      "stateMutability": "view",
      "type": "function",
      "constant": true
    },
    {
      "inputs": [
        {
          "internalType": "address",
          "name": "owner",
          "type": "address"
        },
        {
          "internalType": "address",
          "name": "operator",
          "type": "address"
        }
      ],
      "name": "isApprovedForAll",
      "outputs": [
        {
          "internalType": "bool",
          "name": "",
          "type": "bool"
        }
      ],
      "stateMutability": "view",
      "type": "function",
      "constant": true
    },
    {
      "inputs": [],
      "name": "name",
      "outputs": [
        {
          "internalType": "string",
          "name": "",
          "type": "string"
        }
      ],
      "stateMutability": "view",
      "type": "function",
      "constant": true
    },
    {
      "inputs": [],
      "name": "owner",
      "outputs": [
        {
          "internalType": "address",
          "name": "",
          "type": "address"
        }
      ],
      "stateMutability": "view",
      "type": "function",
      "constant": true
    },
    {
      "inputs": [
        {
          "internalType": "uint256",
          "name": "tokenId",
          "type": "uint256"
        }
      ],
      "name": "ownerOf",
      "outputs": [
        {
          "internalType": "address",
          "name": "",
          "type": "address"
        }
      ],
      "stateMutability": "view",
      "type": "function",
      "constant": true
    },
    {
      "inputs": [],
      "name": "renounceOwnership",
      "outputs": [],
      "stateMutability": "nonpayable",
      "type": "function"
    },
    {
      "inputs": [
        {
          "internalType": "address",
          "name": "from",
          "type": "address"
        },
        {
          "internalType": "address",
          "name": "to",
          "type": "address"
        },
        {
          "internalType": "uint256",
          "name": "tokenId",
          "type": "uint256"
        }
      ],
      "name": "safeTransferFrom",
      "outputs": [],
      "stateMutability": "nonpayable",
      "type": "function"
    },
    {
      "inputs": [
        {
          "internalType": "address",
          "name": "from",
          "type": "address"
        },
        {
          "internalType": "address",
          "name": "to",
          "type": "address"
        },
        {
          "internalType": "uint256",
          "name": "tokenId",
          "type": "uint256"
        },
        {
          "internalType": "bytes",
          "name": "_data",
          "type": "bytes"
        }
      ],
      "name": "safeTransferFrom",
      "outputs": [],
      "stateMutability": "nonpayable",
      "type": "function"
    },
    {
      "inputs": [
        {
          "internalType": "address",
          "name": "operator",
          "type": "address"
        },
        {
          "internalType": "bool",
          "name": "approved",
          "type": "bool"
        }
      ],
      "name": "setApprovalForAll",
      "outputs": [],
      "stateMutability": "nonpayable",
      "type": "function"
    },
    {
      "inputs": [],
      "name": "symbol",
      "outputs": [
        {
          "internalType": "string",
          "name": "",
          "type": "string"
        }
      ],
      "stateMutability": "view",
      "type": "function",
      "constant": true
    },
    {
      "inputs": [
        {
          "internalType": "uint256",
          "name": "index",
          "type": "uint256"
        }
      ],
      "name": "tokenByIndex",
      "outputs": [
        {
          "internalType": "uint256",
          "name": "",
          "type": "uint256"
        }
      ],
      "stateMutability": "view",
      "type": "function",
      "constant": true
    },
    {
      "inputs": [
        {
          "internalType": "address",
          "name": "owner",
          "type": "address"
        },
        {
          "internalType": "uint256",
          "name": "index",
          "type": "uint256"
        }
      ],
      "name": "tokenOfOwnerByIndex",
      "outputs": [
        {
          "internalType": "uint256",
          "name": "",
          "type": "uint256"
        }
      ],
      "stateMutability": "view",
      "type": "function",
      "constant": true
    },
    {
      "inputs": [
        {
          "internalType": "uint256",
          "name": "tokenId",
          "type": "uint256"
        }
      ],
      "name": "tokenURI",
      "outputs": [
        {
          "internalType": "string",
          "name": "",
          "type": "string"
        }
      ],
      "stateMutability": "view",
      "type": "function",
      "constant": true
    },
    {
      "inputs": [],
      "name": "totalSupply",
      "outputs": [
        {
          "internalType": "uint256",
          "name": "",
          "type": "uint256"
        }
      ],
      "stateMutability": "view",
      "type": "function",
      "constant": true
    },
    {
      "inputs": [
        {
          "internalType": "address",
          "name": "from",
          "type": "address"
        },
        {
          "internalType": "address",
          "name": "to",
          "type": "address"
        },
        {
          "internalType": "uint256",
          "name": "tokenId",
          "type": "uint256"
        }
      ],
      "name": "transferFrom",
      "outputs": [],
      "stateMutability": "nonpayable",
      "type": "function"
    },
    {
      "inputs": [
        {
          "internalType": "address",
          "name": "newOwner",
          "type": "address"
        }
      ],
      "name": "transferOwnership",
      "outputs": [],
      "stateMutability": "nonpayable",
      "type": "function"
    },
    {
      "inputs": [
        {
          "components": [
            {
              "internalType": "uint256",
              "name": "tokenId",
              "type": "uint256"
            },
            {
              "internalType": "uint256",
              "name": "balance",
              "type": "uint256"
            },
            {
              "internalType": "uint256",
              "name": "nonce",
              "type": "uint256"
            },
            {
              "internalType": "uint256",
              "name": "expiry",
              "type": "uint256"
            },
            {
              "internalType": "bytes",
              "name": "signature",
              "type": "bytes"
            }
          ],
          "internalType": "struct WebaverseVoucher.NFTVoucher",
          "name": "voucher",
          "type": "tuple"
        }
      ],
      "name": "verifyVoucher",
      "outputs": [
        {
          "internalType": "address",
          "name": "",
          "type": "address"
        }
      ],
      "stateMutability": "nonpayable",
      "type": "function"
    },
    {
      "inputs": [
        {
          "internalType": "string",
          "name": "name",
          "type": "string"
        },
        {
          "internalType": "string",
          "name": "symbol",
          "type": "string"
        },
        {
          "internalType": "string",
          "name": "baseURI_",
          "type": "string"
        }
      ],
      "name": "initialize",
      "outputs": [],
      "stateMutability": "nonpayable",
      "type": "function"
    },
    {
      "inputs": [],
      "name": "baseURI",
      "outputs": [
        {
          "internalType": "string",
          "name": "",
          "type": "string"
        }
      ],
      "stateMutability": "view",
      "type": "function",
      "constant": true
    },
    {
      "inputs": [
        {
          "internalType": "string",
          "name": "baseURI_",
          "type": "string"
        }
      ],
      "name": "setBaseURI",
      "outputs": [],
      "stateMutability": "nonpayable",
      "type": "function"
    },
    {
      "inputs": [
        {
          "internalType": "address",
          "name": "to",
          "type": "address"
        },
        {
          "internalType": "string",
          "name": "hash",
          "type": "string"
        },
        {
          "internalType": "string",
          "name": "name",
          "type": "string"
        },
        {
          "internalType": "string",
          "name": "ext",
          "type": "string"
        },
        {
          "internalType": "string",
          "name": "description",
          "type": "string"
        }
      ],
      "name": "mint",
      "outputs": [
        {
          "internalType": "uint256",
          "name": "",
          "type": "uint256"
        }
      ],
      "stateMutability": "nonpayable",
      "type": "function"
    },
    {
      "inputs": [
        {
          "internalType": "address",
          "name": "to",
          "type": "address"
        },
        {
          "internalType": "string[]",
          "name": "hash",
          "type": "string[]"
        },
        {
          "internalType": "string[]",
          "name": "name",
          "type": "string[]"
        },
        {
          "internalType": "string[]",
          "name": "ext",
          "type": "string[]"
        },
        {
          "internalType": "string[]",
          "name": "description",
          "type": "string[]"
        },
        {
          "internalType": "uint256",
          "name": "tokenCount",
          "type": "uint256"
        }
      ],
      "name": "mintBatch",
      "outputs": [],
      "stateMutability": "nonpayable",
      "type": "function"
    },
    {
      "inputs": [
        {
          "internalType": "string",
          "name": "hash",
          "type": "string"
        },
        {
          "internalType": "string",
          "name": "key",
          "type": "string"
        }
      ],
      "name": "getMetadata",
      "outputs": [
        {
          "internalType": "string",
          "name": "",
          "type": "string"
        }
      ],
      "stateMutability": "view",
      "type": "function",
      "constant": true
    },
    {
      "inputs": [
        {
          "internalType": "string",
          "name": "hash",
          "type": "string"
        },
        {
          "internalType": "string",
          "name": "key",
          "type": "string"
        },
        {
          "internalType": "string",
          "name": "value",
          "type": "string"
        }
      ],
      "name": "setMetadata",
      "outputs": [],
      "stateMutability": "nonpayable",
      "type": "function"
    },
    {
      "inputs": [
        {
          "internalType": "uint256",
          "name": "tokenId",
          "type": "uint256"
        },
        {
          "internalType": "string",
          "name": "key",
          "type": "string"
        }
      ],
      "name": "getSingleMetadata",
      "outputs": [
        {
          "internalType": "string",
          "name": "",
          "type": "string"
        }
      ],
      "stateMutability": "view",
      "type": "function",
      "constant": true
    },
    {
      "inputs": [
        {
          "internalType": "uint256",
          "name": "tokenId",
          "type": "uint256"
        },
        {
          "internalType": "string",
          "name": "key",
          "type": "string"
        },
        {
          "internalType": "string",
          "name": "value",
          "type": "string"
        }
      ],
      "name": "setSingleMetadata",
      "outputs": [],
      "stateMutability": "nonpayable",
      "type": "function"
    },
    {
      "inputs": [
        {
          "internalType": "string",
          "name": "hash",
          "type": "string"
        }
      ],
      "name": "getTokenIdFromHash",
      "outputs": [
        {
          "internalType": "uint256",
          "name": "",
          "type": "uint256"
        }
      ],
      "stateMutability": "view",
      "type": "function",
      "constant": true
    },
    {
      "inputs": [
        {
          "internalType": "uint256",
          "name": "tokenId",
          "type": "uint256"
        }
      ],
      "name": "getHashFromTokenId",
      "outputs": [
        {
          "internalType": "string",
          "name": "",
          "type": "string"
        }
      ],
      "stateMutability": "view",
      "type": "function",
      "constant": true
    },
    {
      "inputs": [
        {
          "internalType": "string",
          "name": "oldHash",
          "type": "string"
        },
        {
          "internalType": "string",
          "name": "newHash",
          "type": "string"
        }
      ],
      "name": "updateHash",
      "outputs": [],
      "stateMutability": "nonpayable",
      "type": "function"
    },
    {
      "inputs": [
        {
          "internalType": "address",
          "name": "owner",
          "type": "address"
        }
      ],
      "name": "getTokenIdsOf",
      "outputs": [
        {
          "internalType": "uint256[]",
          "name": "",
          "type": "uint256[]"
        }
      ],
      "stateMutability": "view",
      "type": "function",
      "constant": true
    },
    {
      "inputs": [
        {
          "internalType": "uint256",
          "name": "tokenId",
          "type": "uint256"
        }
      ],
      "name": "tokenByIdFull",
      "outputs": [
        {
          "components": [
            {
              "internalType": "uint256",
              "name": "id",
              "type": "uint256"
            },
            {
              "internalType": "string",
              "name": "hash",
              "type": "string"
            },
            {
              "internalType": "string",
              "name": "name",
              "type": "string"
            },
            {
              "internalType": "string",
              "name": "ext",
              "type": "string"
            },
            {
              "internalType": "address",
              "name": "minter",
              "type": "address"
            },
            {
              "internalType": "address",
              "name": "owner",
              "type": "address"
            }
          ],
          "internalType": "struct WebaverseERC721.Token",
          "name": "",
          "type": "tuple"
        }
      ],
      "stateMutability": "view",
      "type": "function",
      "constant": true
    },
    {
      "inputs": [
        {
          "internalType": "address",
          "name": "owner",
          "type": "address"
        },
        {
          "internalType": "uint256",
          "name": "index",
          "type": "uint256"
        }
      ],
      "name": "tokenOfOwnerByIndexFull",
      "outputs": [
        {
          "components": [
            {
              "internalType": "uint256",
              "name": "id",
              "type": "uint256"
            },
            {
              "internalType": "string",
              "name": "hash",
              "type": "string"
            },
            {
              "internalType": "string",
              "name": "name",
              "type": "string"
            },
            {
              "internalType": "string",
              "name": "ext",
              "type": "string"
            },
            {
              "internalType": "address",
              "name": "minter",
              "type": "address"
            },
            {
              "internalType": "address",
              "name": "owner",
              "type": "address"
            }
          ],
          "internalType": "struct WebaverseERC721.Token",
          "name": "",
          "type": "tuple"
        }
      ],
      "stateMutability": "view",
      "type": "function",
      "constant": true
    },
    {
      "inputs": [
        {
          "internalType": "address",
          "name": "claimer",
          "type": "address"
        },
        {
          "components": [
            {
              "internalType": "uint256",
              "name": "tokenId",
              "type": "uint256"
            },
            {
              "internalType": "uint256",
              "name": "balance",
              "type": "uint256"
            },
            {
              "internalType": "uint256",
              "name": "nonce",
              "type": "uint256"
            },
            {
              "internalType": "uint256",
              "name": "expiry",
              "type": "uint256"
            },
            {
              "internalType": "bytes",
              "name": "signature",
              "type": "bytes"
            }
          ],
          "internalType": "struct WebaverseVoucher.NFTVoucher",
          "name": "voucher",
          "type": "tuple"
        }
      ],
      "name": "claim",
      "outputs": [
        {
          "internalType": "uint256",
          "name": "",
          "type": "uint256"
        }
      ],
      "stateMutability": "nonpayable",
      "type": "function"
    },
    {
      "inputs": [
        {
          "internalType": "address",
          "name": "claimer",
          "type": "address"
        },
        {
          "internalType": "address",
          "name": "externalContractAddress",
          "type": "address"
        },
        {
          "components": [
            {
              "internalType": "uint256",
              "name": "tokenId",
              "type": "uint256"
            },
            {
              "internalType": "uint256",
              "name": "balance",
              "type": "uint256"
            },
            {
              "internalType": "uint256",
              "name": "nonce",
              "type": "uint256"
            },
            {
              "internalType": "uint256",
              "name": "expiry",
              "type": "uint256"
            },
            {
              "internalType": "bytes",
              "name": "signature",
              "type": "bytes"
            }
          ],
          "internalType": "struct WebaverseVoucher.NFTVoucher",
          "name": "voucher",
          "type": "tuple"
        }
      ],
      "name": "externalClaim",
      "outputs": [
        {
          "internalType": "uint256",
          "name": "",
          "type": "uint256"
        }
      ],
      "stateMutability": "nonpayable",
      "type": "function"
    },
    {
      "inputs": [
        {
          "internalType": "address",
          "name": "account",
          "type": "address"
        }
      ],
      "name": "isAllowedMinter",
      "outputs": [
        {
          "internalType": "bool",
          "name": "",
          "type": "bool"
        }
      ],
      "stateMutability": "view",
      "type": "function",
      "constant": true
    },
    {
      "inputs": [
        {
          "internalType": "address",
          "name": "minter",
          "type": "address"
        }
      ],
      "name": "addMinter",
      "outputs": [],
      "stateMutability": "nonpayable",
      "type": "function"
    },
    {
      "inputs": [
        {
          "internalType": "address",
          "name": "minter",
          "type": "address"
        }
      ],
      "name": "removeMinter",
      "outputs": [],
      "stateMutability": "nonpayable",
      "type": "function"
    },
    {
      "inputs": [],
      "name": "getNextTokenId",
      "outputs": [
        {
          "internalType": "uint256",
          "name": "",
          "type": "uint256"
        }
      ],
      "stateMutability": "view",
      "type": "function",
      "constant": true
    },
    {
      "inputs": [],
      "name": "getChainID",
      "outputs": [
        {
          "internalType": "uint256",
          "name": "",
          "type": "uint256"
        }
      ],
      "stateMutability": "view",
      "type": "function",
      "constant": true
    },
    {
      "inputs": [
        {
          "internalType": "bytes4",
          "name": "interfaceId",
          "type": "bytes4"
        }
      ],
      "name": "supportsInterface",
      "outputs": [
        {
          "internalType": "bool",
          "name": "",
          "type": "bool"
        }
      ],
      "stateMutability": "view",
      "type": "function",
      "constant": true
    }
  ],
  "bytecode": "0x608060405234801561001057600080fd5b506145a8806100206000396000f3fe608060405234801561001057600080fd5b506004361061027d5760003560e01c80636352211e1161015c578063a22cb465116100ce578063c87b56dd11610087578063c87b56dd14610581578063caa0f92a14610594578063e985e9c51461059c578063ea640c95146105d8578063eacc4c6e146105eb578063f2fde38b146105fe57600080fd5b8063a22cb4651461050f578063a40d1b1014610522578063a6487c5314610535578063a8689ce214610548578063ad637e671461055b578063b88d4fde1461056e57600080fd5b80637e2499cc116101205780637e2499cc1461049a578063831013ba146104bd5780638da5cb5b146104d05780639468f2ca146104e157806395d89b41146104f4578063983b2d56146104fc57600080fd5b80636352211e146104515780636c0360eb146104645780636cd97dec1461046c57806370a082311461047f578063715018a61461049257600080fd5b806323b872dd116101f55780634355e53b116101b95780634355e53b146103ea5780634ca9a979146103f25780634f6ccce7146104055780635324f9aa1461041857806355f804b314610438578063564b81ef1461044b57600080fd5b806323b872dd1461038b5780632f745c591461039e5780633092afd5146103b15780633a0b1f8e146103c457806342842e0e146103d757600080fd5b8063081812fc11610247578063081812fc1461030a5780630890d80c14610335578063095ea7b31461034a5780630c9fe5271461035d57806318160ddd146103705780631f3b4c901461037857600080fd5b80629a9b7b14610282578062c11be71461029f57806301ffc9a7146102bf57806306fdde03146102e2578063076c88a2146102ea575b600080fd5b61028c6101325481565b6040519081526020015b60405180910390f35b6102b26102ad366004613f28565b610611565b604051610296919061409e565b6102d26102cd366004613db0565b6106b4565b6040519015158152602001610296565b6102b26106c5565b6102fd6102f8366004613d84565b610757565b60405161029691906142bc565b61031d610318366004613f28565b6108af565b6040516001600160a01b039091168152602001610296565b610348610343366004613e77565b610949565b005b610348610358366004613d84565b610c68565b6102fd61036b366004613f28565b610d7e565b60ce5461028c565b6102d26103863660046139ea565b610ef9565b610348610399366004613abe565b610f18565b61028c6103ac366004613d84565b610f49565b6103486103bf3660046139ea565b610fdf565b6103486103d2366004613f7d565b611080565b6103486103e5366004613abe565b611200565b61034861121b565b610348610400366004613e1e565b6112d3565b61028c610413366004613f28565b6114d4565b61042b6104263660046139ea565b611567565b604051610296919061405a565b610348610446366004613dea565b611608565b4661028c565b61031d61045f366004613f28565b61164a565b6102b26116c1565b61034861047a366004613b7e565b6116d1565b61028c61048d3660046139ea565b61179b565b610348611822565b6102d26104a8366004613f28565b60356020526000908152604090205460ff1681565b6102b26104cb366004613e1e565b611858565b60fe546001600160a01b031661031d565b61028c6104ef366004613d35565b611a58565b6102b2611b05565b61034861050a3660046139ea565b611b14565b61034861051d366004613c43565b611bb9565b61028c610530366004613c76565b611c7e565b610348610543366004613e77565b611e36565b61028c610556366004613a5d565b611ed1565b61031d610569366004613ef4565b61212d565b61034861057c366004613aff565b612209565b6102b261058f366004613f28565b61223b565b61028c612322565b6102d26105aa366004613a24565b6001600160a01b039182166000908152609f6020908152604080832093909416825291909152205460ff1690565b61028c6105e6366004613dea565b612339565b6102b26105f9366004613f41565b612362565b61034861060c3660046139ea565b6123dc565b60008181526101346020526040902080546060919061062f9061445f565b80601f016020809104026020016040519081016040528092919081815260200182805461065b9061445f565b80156106a85780601f1061067d576101008083540402835291602001916106a8565b820191906000526020600020905b81548152906001019060200180831161068b57829003601f168201915b50505050509050919050565b60006106bf82612474565b92915050565b6060609a80546106d49061445f565b80601f01602080910402602001604051908101604052809291908181526020018280546107009061445f565b801561074d5780601f106107225761010080835404028352916020019161074d565b820191906000526020600020905b81548152906001019060200180831161073057829003601f168201915b5050505050905090565b61075f613637565b600061076b8484610f49565b90506060806060610134600085815260200190815260200160002080546107919061445f565b80601f01602080910402602001604051908101604052809291908181526020018280546107bd9061445f565b801561080a5780601f106107df5761010080835404028352916020019161080a565b820191906000526020600020905b8154815290600101906020018083116107ed57829003601f168201915b5050505050925061083783604051806040016040528060048152602001636e616d6560e01b815250611858565b915061085e8360405180604001604052806003815260200162195e1d60ea1b815250611858565b6000858152610137602090815260409182902054825160c081018452978852908701959095528501929092525060608301526001600160a01b039081166080830152841660a0820152905092915050565b6000818152609c60205260408120546001600160a01b031661092d5760405162461bcd60e51b815260206004820152602c60248201527f4552433732313a20617070726f76656420717565727920666f72206e6f6e657860448201526b34b9ba32b73a103a37b5b2b760a11b60648201526084015b60405180910390fd5b506000908152609e60205260409020546001600160a01b031690565b6101335460ff168061095f575061095f33610ef9565b61097b5760405162461bcd60e51b815260040161092490614118565b60006101358460405161098e9190613fdc565b908152602001604051809103902054116109ea5760405162461bcd60e51b815260206004820152601c60248201527f4552433732313a20746f6b656e20646f6573206e6f74206578697374000000006044820152606401610924565b6000835111610a325760405162461bcd60e51b8152602060048201526014602482015273686173682063616e6e6f7420626520656d70747960601b6044820152606401610924565b6000805b61013685604051610a479190613fdc565b90815260405190819003602001902054811015610ba757610b3161013686604051610a729190613fdc565b90815260200160405180910390208281548110610a9157610a9161451b565b90600052602060002090600202016000018054610aad9061445f565b80601f0160208091040260200160405190810160405280929190818152602001828054610ad99061445f565b8015610b265780601f10610afb57610100808354040283529160200191610b26565b820191906000526020600020905b815481529060010190602001808311610b0957829003601f168201915b5050505050856124c4565b15610b95578261013686604051610b489190613fdc565b90815260200160405180910390208281548110610b6757610b6761451b565b90600052602060002090600202016001019080519060200190610b8b92919061367f565b5060019150610ba7565b80610b9f81614494565b915050610a36565b5080610c275761013684604051610bbe9190613fdc565b908152604080519182900360209081018320838301909252858352828101859052815460018101835560009283529181902083518051600290940290910192610c0a928492019061367f565b506020828101518051610c23926001850192019061367f565b5050505b7f8377145d9399028a063fdd9af215c1354b18cba9fe8763d27fcd8e424e01af97848484604051610c5a939291906140df565b60405180910390a150505050565b6000610c738261164a565b9050806001600160a01b0316836001600160a01b03161415610ce15760405162461bcd60e51b815260206004820152602160248201527f4552433732313a20617070726f76616c20746f2063757272656e74206f776e656044820152603960f91b6064820152608401610924565b336001600160a01b0382161480610cfd5750610cfd81336105aa565b610d6f5760405162461bcd60e51b815260206004820152603860248201527f4552433732313a20617070726f76652063616c6c6572206973206e6f74206f7760448201527f6e6572206e6f7220617070726f76656420666f7220616c6c00000000000000006064820152608401610924565b610d79838361251d565b505050565b610d86613637565b606080606061013460008681526020019081526020016000208054610daa9061445f565b80601f0160208091040260200160405190810160405280929190818152602001828054610dd69061445f565b8015610e235780601f10610df857610100808354040283529160200191610e23565b820191906000526020600020905b815481529060010190602001808311610e0657829003601f168201915b50505050509250610e5083604051806040016040528060048152602001636e616d6560e01b815250611858565b9150610e778360405180604001604052806003815260200162195e1d60ea1b815250611858565b60008681526101376020908152604080832054609c9092528220549293506001600160a01b039081169216610ead576000610eb6565b610eb68761164a565b6040805160c08101825298895260208901969096529487019390935260608601919091526001600160a01b03908116608086015290911660a08401525090919050565b6001600160a01b03166000908152610130602052604090205460ff1690565b610f22338261258b565b610f3e5760405162461bcd60e51b81526004016109249061426b565b610d79838383612682565b6000610f548361179b565b8210610fb65760405162461bcd60e51b815260206004820152602b60248201527f455243373231456e756d657261626c653a206f776e657220696e646578206f7560448201526a74206f6620626f756e647360a81b6064820152608401610924565b506001600160a01b0391909116600090815260cc60209081526040808320938352929052205490565b60fe546001600160a01b031633146110095760405162461bcd60e51b8152600401610924906141ef565b61101281610ef9565b61105e5760405162461bcd60e51b815260206004820152601c60248201527f45524332303a204d696e74657220646f6573206e6f74206578697374000000006044820152606401610924565b6001600160a01b0316600090815261013060205260409020805460ff19169055565b6101335460ff1680611096575061109633610ef9565b6110b25760405162461bcd60e51b815260040161092490614118565b6000805b6000858152610138602052604090205481101561115c5760008581526101386020526040902080546110f3919083908110610a9157610a9161451b565b1561114a5760008581526101386020526040902080548491908390811061111c5761111c61451b565b9060005260206000209060020201600101908051906020019061114092919061367f565b506001915061115c565b8061115481614494565b9150506110b6565b50806111cd576000848152610138602090815260408083208151808301909252868252818301869052805460018101825590845292829020815180519294600202909101926111b09284929091019061367f565b5060208281015180516111c9926001850192019061367f565b5050505b7fb8814a4649a63613b0ae2f7d5f71b3771676c2eba17542b79a2a6d5c19d4af3c848484604051610c5a9392919061434f565b610d7983838360405180602001604052806000815250612209565b600054610100900460ff1680611234575060005460ff16155b6112505760405162461bcd60e51b8152600401610924906141a1565b600054610100900460ff16158015611272576000805461ffff19166101011790555b6112be604051806040016040528060118152602001702bb2b130bb32b939b296bb37bab1b432b960791b815250604051806040016040528060018152602001603160f81b81525061282d565b80156112d0576000805461ff00191690555b50565b6101335460ff16806112e957506112e933610ef9565b6113055760405162461bcd60e51b815260040161092490614118565b610135826040516113169190613fdc565b908152602001604051809103902054600014156113755760405162461bcd60e51b815260206004820152601b60248201527f4552433732313a206861736820646f6573206e6f7420657869737400000000006044820152606401610924565b6000610135836040516113889190613fdc565b9081526020016040518091039020549050610135836040516113aa9190613fdc565b908152602001604051809103902054610135836040516113ca9190613fdc565b908152604080516020928190038301902092909255600083815261013482529190912083516113fb9285019061367f565b506101368360405161140d9190613fdc565b90815260200160405180910390206101368360405161142c9190613fdc565b90815260405190819003602001902081546114479290613703565b50610135836040516114599190613fdc565b9081526020016040518091039020600090556101368360405161147c9190613fdc565b908152602001604051809103902060006114969190613792565b7f224afc3822d8f8365592e22aa470e6da5a347b5c09d399fe8111fcad70c3040d83836040516114c79291906140b1565b60405180910390a1505050565b60006114df60ce5490565b82106115425760405162461bcd60e51b815260206004820152602c60248201527f455243373231456e756d657261626c653a20676c6f62616c20696e646578206f60448201526b7574206f6620626f756e647360a01b6064820152608401610924565b60ce82815481106115555761155561451b565b90600052602060002001549050919050565b606060006115748361179b565b90506000816001600160401b0381111561159057611590614531565b6040519080825280602002602001820160405280156115b9578160200160208202803683370190505b50905060005b82811015611600576115d18582610f49565b8282815181106115e3576115e361451b565b6020908102919091010152806115f881614494565b9150506115bf565b509392505050565b60fe546001600160a01b031633146116325760405162461bcd60e51b8152600401610924906141ef565b80516116469061013190602084019061367f565b5050565b6000818152609c60205260408120546001600160a01b0316806106bf5760405162461bcd60e51b815260206004820152602960248201527f4552433732313a206f776e657220717565727920666f72206e6f6e657869737460448201526832b73a103a37b5b2b760b91b6064820152608401610924565b606061013180546106d49061445f565b6101335460ff16806116e757506116e733610ef9565b6117035760405162461bcd60e51b815260040161092490614118565b60005b818110156117925761177f878783815181106117245761172461451b565b602002602001015187848151811061173e5761173e61451b565b60200260200101518785815181106117585761175861451b565b60200260200101518786815181106117725761177261451b565b6020026020010151611c7e565b508061178a81614494565b915050611706565b50505050505050565b60006001600160a01b0382166118065760405162461bcd60e51b815260206004820152602a60248201527f4552433732313a2062616c616e636520717565727920666f7220746865207a65604482015269726f206164647265737360b01b6064820152608401610924565b506001600160a01b03166000908152609d602052604090205490565b60fe546001600160a01b0316331461184c5760405162461bcd60e51b8152600401610924906141ef565b61185660006128a4565b565b606060005b6101368460405161186e9190613fdc565b90815260405190819003602001902054811015611a4157611958610136856040516118999190613fdc565b908152602001604051809103902082815481106118b8576118b861451b565b906000526020600020906002020160000180546118d49061445f565b80601f01602080910402602001604051908101604052809291908181526020018280546119009061445f565b801561194d5780601f106119225761010080835404028352916020019161194d565b820191906000526020600020905b81548152906001019060200180831161193057829003601f168201915b5050505050846124c4565b15611a2f576101368460405161196e9190613fdc565b9081526020016040518091039020818154811061198d5761198d61451b565b906000526020600020906002020160010180546119a99061445f565b80601f01602080910402602001604051908101604052809291908181526020018280546119d59061445f565b8015611a225780601f106119f757610100808354040283529160200191611a22565b820191906000526020600020905b815481529060010190602001808311611a0557829003601f168201915b50505050509150506106bf565b80611a3981614494565b91505061185d565b505060408051602081019091526000815292915050565b600080611a648361212d565b9050611a70833561164a565b6001600160a01b0316816001600160a01b031614611aa05760405162461bcd60e51b815260040161092490614224565b611aab30843561251d565b611ab781858535612682565b604080516001600160a01b038084168252861660208201528435917f70eb43c4a8ae8c40502dcf22436c509c28d6ff421cf07c491be56984bd987068910160405180910390a2505035919050565b6060609b80546106d49061445f565b60fe546001600160a01b03163314611b3e5760405162461bcd60e51b8152600401610924906141ef565b611b4781610ef9565b15611b945760405162461bcd60e51b815260206004820152601b60248201527f45524332303a204d696e74657220616c726561647920616464656400000000006044820152606401610924565b6001600160a01b0316600090815261013060205260409020805460ff19166001179055565b6001600160a01b038216331415611c125760405162461bcd60e51b815260206004820152601960248201527f4552433732313a20617070726f766520746f2063616c6c6572000000000000006044820152606401610924565b336000818152609f602090815260408083206001600160a01b03871680855290835292819020805460ff191686151590811790915590519081529192917f17307eab39ab6107e8899845ad3d59bd9653f200f220920489ca2b5937696c31910160405180910390a35050565b6101335460009060ff1680611c975750611c9733610ef9565b611cb35760405162461bcd60e51b815260040161092490614118565b61013585604051611cc49190613fdc565b908152602001604051809103902054600014611d365760405162461bcd60e51b815260206004820152602b60248201527f4552433732313a20746f6b656e20776974682074686973206861736820616c7260448201526a1958591e481b5a5b9d195960aa1b6064820152608401610924565b6000611d40612322565b9050611d4c87826128f6565b60008181526101376020908152604080832080546001600160a01b0319163317905561013482529091208751611d849289019061367f565b508061013587604051611d979190613fdc565b908152602001604051809103902081905550611dd086604051806040016040528060048152602001636e616d6560e01b81525087610949565b611df68660405180604001604052806003815260200162195e1d60ea1b81525086610949565b611e24866040518060400160405280600b81526020016a3232b9b1b934b83a34b7b760a91b81525085610949565b611e2c612a44565b9695505050505050565b600054610100900460ff1680611e4f575060005460ff16155b611e6b5760405162461bcd60e51b8152600401610924906141a1565b600054610100900460ff16158015611e8d576000805461ffff19166101011790555b611e95612a5c565b611e9f8484612abc565b611ea761121b565b611eb082611608565b611eb933611b14565b8015611ecb576000805461ff00191690555b50505050565b60008281611ede8461212d565b6040516331a9108f60e11b8152853560048201529091506001600160a01b03831690636352211e9060240160206040518083038186803b158015611f2157600080fd5b505afa158015611f35573d6000803e3d6000fd5b505050506040513d601f19601f82011682018060405250810190611f599190613a07565b6001600160a01b0316816001600160a01b031614611f895760405162461bcd60e51b815260040161092490614224565b60405163020604bf60e21b81528435600482015230906001600160a01b0384169063081812fc9060240160206040518083038186803b158015611fcb57600080fd5b505afa158015611fdf573d6000803e3d6000fd5b505050506040513d601f19601f820116820180604052508101906120039190613a07565b6001600160a01b03161461206e5760405162461bcd60e51b815260206004820152602c60248201527f5468697320636f6e747261637420686173206e6f20617070726f76616c20666f60448201526b39103a3434b9903a37b5b2b760a11b6064820152608401610924565b6040516323b872dd60e01b81526001600160a01b0382811660048301528781166024830152853560448301528316906323b872dd90606401600060405180830381600087803b1580156120c057600080fd5b505af11580156120d4573d6000803e3d6000fd5b5050604080516001600160a01b0385811682528a8116602083015288359450891692507f111ebfff7ae758e422941bfa7b90fc5ddafbb23589ebcdf6da904a05c3422ace910160405180910390a3505090359392505050565b600081606001354211156121835760405162461bcd60e51b815260206004820152601b60248201527f566f75636865722068617320616c7265616479206578706972656400000000006044820152606401610924565b60408083013560009081526035602052205460ff16156121db5760405162461bcd60e51b8152602060048201526013602482015272496e76616c6964206e6f6e63652076616c756560681b6044820152606401610924565b60408083013560009081526035602052908120805460ff1916600117905561220283612b2d565b9392505050565b612213338361258b565b61222f5760405162461bcd60e51b81526004016109249061426b565b611ecb84848484612b86565b6000818152609c60205260409020546060906001600160a01b03166122ba5760405162461bcd60e51b815260206004820152602f60248201527f4552433732314d657461646174613a2055524920717565727920666f72206e6f60448201526e3732bc34b9ba32b73a103a37b5b2b760891b6064820152608401610924565b60006122d160408051602081019091526000815290565b905060008151116122f15760405180602001604052806000815250612202565b806122fb84612bb9565b60405160200161230c929190613ff8565b6040516020818303038152906040529392505050565b600061013254600161233491906143f0565b905090565b60006101358260405161234c9190613fdc565b9081526020016040518091039020549050919050565b606060005b60008481526101386020526040902054811015611a415760008481526101386020526040902080546123a49190839081106118b8576118b861451b565b156123ca5760008481526101386020526040902080548290811061198d5761198d61451b565b806123d481614494565b915050612367565b60fe546001600160a01b031633146124065760405162461bcd60e51b8152600401610924906141ef565b6001600160a01b03811661246b5760405162461bcd60e51b815260206004820152602660248201527f4f776e61626c653a206e6577206f776e657220697320746865207a65726f206160448201526564647265737360d01b6064820152608401610924565b6112d0816128a4565b60006001600160e01b031982166380ac58cd60e01b14806124a557506001600160e01b03198216635b5e139f60e01b145b806106bf57506301ffc9a760e01b6001600160e01b03198316146106bf565b6000816040516020016124d79190613fdc565b60405160208183030381529060405280519060200120836040516020016124fe9190613fdc565b6040516020818303038152906040528051906020012014905092915050565b6000818152609e6020526040902080546001600160a01b0319166001600160a01b03841690811790915581906125528261164a565b6001600160a01b03167f8c5be1e5ebec7d5bd14f71427d1e84f3dd0314c0f7b2291e5b200ac8c7c3b92560405160405180910390a45050565b6000818152609c60205260408120546001600160a01b03166126045760405162461bcd60e51b815260206004820152602c60248201527f4552433732313a206f70657261746f7220717565727920666f72206e6f6e657860448201526b34b9ba32b73a103a37b5b2b760a11b6064820152608401610924565b600061260f8361164a565b9050806001600160a01b0316846001600160a01b0316148061264a5750836001600160a01b031661263f846108af565b6001600160a01b0316145b8061267a57506001600160a01b038082166000908152609f602090815260408083209388168352929052205460ff165b949350505050565b826001600160a01b03166126958261164a565b6001600160a01b0316146126fd5760405162461bcd60e51b815260206004820152602960248201527f4552433732313a207472616e73666572206f6620746f6b656e2074686174206960448201526839903737ba1037bbb760b91b6064820152608401610924565b6001600160a01b03821661275f5760405162461bcd60e51b8152602060048201526024808201527f4552433732313a207472616e7366657220746f20746865207a65726f206164646044820152637265737360e01b6064820152608401610924565b61276a838383612cb6565b61277560008261251d565b6001600160a01b0383166000908152609d6020526040812080546001929061279e90849061441c565b90915550506001600160a01b0382166000908152609d602052604081208054600192906127cc9084906143f0565b90915550506000818152609c602052604080822080546001600160a01b0319166001600160a01b0386811691821790925591518493918716917fddf252ad1be2c89b69c2b068fc378daa952ba7f163c4a11628f55a4df523b3ef91a4505050565b600054610100900460ff1680612846575060005460ff16155b6128625760405162461bcd60e51b8152600401610924906141a1565b600054610100900460ff16158015612884576000805461ffff19166101011790555b61288e8383612d6e565b8015610d79576000805461ff0019169055505050565b60fe80546001600160a01b038381166001600160a01b0319831681179093556040519116919082907f8be0079c531659141344cd1fd0a4f28419497f9722a3daafe3b4186f6b6457e090600090a35050565b6001600160a01b03821661294c5760405162461bcd60e51b815260206004820181905260248201527f4552433732313a206d696e7420746f20746865207a65726f20616464726573736044820152606401610924565b6000818152609c60205260409020546001600160a01b0316156129b15760405162461bcd60e51b815260206004820152601c60248201527f4552433732313a20746f6b656e20616c7265616479206d696e746564000000006044820152606401610924565b6129bd60008383612cb6565b6001600160a01b0382166000908152609d602052604081208054600192906129e69084906143f0565b90915550506000818152609c602052604080822080546001600160a01b0319166001600160a01b03861690811790915590518392907fddf252ad1be2c89b69c2b068fc378daa952ba7f163c4a11628f55a4df523b3ef908290a45050565b6101328054906000612a5583614494565b9190505550565b600054610100900460ff1680612a75575060005460ff16155b612a915760405162461bcd60e51b8152600401610924906141a1565b600054610100900460ff16158015612ab3576000805461ffff19166101011790555b6112be336128a4565b600054610100900460ff1680612ad5575060005460ff16155b612af15760405162461bcd60e51b8152600401610924906141a1565b600054610100900460ff16158015612b13576000805461ffff19166101011790555b612b1b612df8565b612b23612df8565b61288e8383612e62565b600080612b3983612ef7565b905061220281612b4c608086018661437a565b8080601f016020809104026020016040519081016040528093929190818152602001838380828437600092019190915250612f6e92505050565b612b91848484612682565b612b9d84848484612f8a565b611ecb5760405162461bcd60e51b81526004016109249061414f565b606081612bdd5750506040805180820190915260018152600360fc1b602082015290565b8160005b8115612c075780612bf181614494565b9150612c009050600a83614408565b9150612be1565b6000816001600160401b03811115612c2157612c21614531565b6040519080825280601f01601f191660200182016040528015612c4b576020820181803683370190505b5090505b841561267a57612c6060018361441c565b9150612c6d600a866144af565b612c789060306143f0565b60f81b818381518110612c8d57612c8d61451b565b60200101906001600160f81b031916908160001a905350612caf600a86614408565b9450612c4f565b6001600160a01b038316612d1157612d0c8160ce8054600083815260cf60205260408120829055600182018355919091527fd36cd1c74ef8d7326d8021b776c18fb5a5724b7f7bc93c2f42e43e10ef27d12a0155565b612d34565b816001600160a01b0316836001600160a01b031614612d3457612d348382613097565b6001600160a01b038216612d4b57610d7981613134565b826001600160a01b0316826001600160a01b031614610d7957610d7982826131e3565b600054610100900460ff1680612d87575060005460ff16155b612da35760405162461bcd60e51b8152600401610924906141a1565b600054610100900460ff16158015612dc5576000805461ffff19166101011790555b82516020808501919091208351918401919091206001919091556002558015610d79576000805461ff0019169055505050565b600054610100900460ff1680612e11575060005460ff16155b612e2d5760405162461bcd60e51b8152600401610924906141a1565b600054610100900460ff161580156112be576000805461ffff191661010117905580156112d0576000805461ff001916905550565b600054610100900460ff1680612e7b575060005460ff16155b612e975760405162461bcd60e51b8152600401610924906141a1565b600054610100900460ff16158015612eb9576000805461ffff19166101011790555b8251612ecc90609a90602086019061367f565b508151612ee090609b90602085019061367f565b508015610d79576000805461ff0019169055505050565b604080517f9351747b1e9d1d5ecc2259decffb60239f521e243e85645e0762ed1d775876776020828101919091528335828401528301356060828101919091529183013560808201529082013560a08201526000906106bf9060c00160405160208183030381529060405280519060200120613227565b6000806000612f7d8585613275565b91509150611600816132e5565b60006001600160a01b0384163b1561308c57604051630a85bd0160e11b81526001600160a01b0385169063150b7a0290612fce903390899088908890600401614027565b602060405180830381600087803b158015612fe857600080fd5b505af1925050508015613018575060408051601f3d908101601f1916820190925261301591810190613dcd565b60015b613072573d808015613046576040519150601f19603f3d011682016040523d82523d6000602084013e61304b565b606091505b50805161306a5760405162461bcd60e51b81526004016109249061414f565b805181602001fd5b6001600160e01b031916630a85bd0160e11b14905061267a565b506001949350505050565b600060016130a48461179b565b6130ae919061441c565b600083815260cd6020526040902054909150808214613101576001600160a01b038416600090815260cc60209081526040808320858452825280832054848452818420819055835260cd90915290208190555b50600091825260cd602090815260408084208490556001600160a01b03909416835260cc81528383209183525290812055565b60ce546000906131469060019061441c565b600083815260cf602052604081205460ce805493945090928490811061316e5761316e61451b565b906000526020600020015490508060ce838154811061318f5761318f61451b565b600091825260208083209091019290925582815260cf909152604080822084905585825281205560ce8054806131c7576131c7614505565b6001900381819060005260206000200160009055905550505050565b60006131ee8361179b565b6001600160a01b03909316600090815260cc60209081526040808320868452825280832085905593825260cd9052919091209190915550565b60006106bf6132346134a0565b8360405161190160f01b6020820152602281018390526042810182905260009060620160405160208183030381529060405280519060200120905092915050565b6000808251604114156132ac5760208301516040840151606085015160001a6132a08782858561351b565b945094505050506132de565b8251604014156132d657602083015160408401516132cb868383613608565b9350935050506132de565b506000905060025b9250929050565b60008160048111156132f9576132f96144ef565b14156133025750565b6001816004811115613316576133166144ef565b14156133645760405162461bcd60e51b815260206004820152601860248201527f45434453413a20696e76616c6964207369676e617475726500000000000000006044820152606401610924565b6002816004811115613378576133786144ef565b14156133c65760405162461bcd60e51b815260206004820152601f60248201527f45434453413a20696e76616c6964207369676e6174757265206c656e677468006044820152606401610924565b60038160048111156133da576133da6144ef565b14156134335760405162461bcd60e51b815260206004820152602260248201527f45434453413a20696e76616c6964207369676e6174757265202773272076616c604482015261756560f01b6064820152608401610924565b6004816004811115613447576134476144ef565b14156112d05760405162461bcd60e51b815260206004820152602260248201527f45434453413a20696e76616c6964207369676e6174757265202776272076616c604482015261756560f01b6064820152608401610924565b60006123347f8b73c3c69bb8fe3d512ecc4cf759cc79239f7b179b0ffacaa9a75d522b39400f6134cf60015490565b6002546040805160208101859052908101839052606081018290524660808201523060a082015260009060c0016040516020818303038152906040528051906020012090509392505050565b6000807f7fffffffffffffffffffffffffffffff5d576e7357a4501ddfe92f46681b20a083111561355257506000905060036135ff565b8460ff16601b1415801561356a57508460ff16601c14155b1561357b57506000905060046135ff565b6040805160008082526020820180845289905260ff881692820192909252606081018690526080810185905260019060a0016020604051602081039080840390855afa1580156135cf573d6000803e3d6000fd5b5050604051601f1901519150506001600160a01b0381166135f8576000600192509250506135ff565b9150600090505b94509492505050565b6000806001600160ff1b03831660ff84901c601b016136298782888561351b565b935093505050935093915050565b6040518060c001604052806000815260200160608152602001606081526020016060815260200160006001600160a01b0316815260200160006001600160a01b031681525090565b82805461368b9061445f565b90600052602060002090601f0160209004810192826136ad57600085556136f3565b82601f106136c657805160ff19168380011785556136f3565b828001600101855582156136f3579182015b828111156136f35782518255916020019190600101906136d8565b506136ff9291506137b3565b5090565b8280548282559060005260206000209060020281019282156137865760005260206000209160020282015b8281111561378657825483908390819083906137499061445f565b6137549291906137c8565b5060018201816001019080546137699061445f565b6137749291906137c8565b5050509160020191906002019061372e565b506136ff929150613843565b50805460008255600202906000526020600020908101906112d09190613843565b5b808211156136ff57600081556001016137b4565b8280546137d49061445f565b90600052602060002090601f0160209004810192826137f657600085556136f3565b82601f1061380757805485556136f3565b828001600101855582156136f357600052602060002091601f016020900482015b828111156136f3578254825591600101919060010190613828565b808211156136ff576000613857828261386e565b61386560018301600061386e565b50600201613843565b50805461387a9061445f565b6000825580601f1061388a575050565b601f0160209004906000526020600020908101906112d091906137b3565b60006001600160401b038311156138c1576138c1614531565b6138d4601f8401601f19166020016143c0565b90508281528383830111156138e857600080fd5b828260208301376000602084830101529392505050565b803561390a81614547565b919050565b600082601f83011261392057600080fd5b813560206001600160401b038083111561393c5761393c614531565b8260051b61394b8382016143c0565b8481528381019087850183890186018a101561396657600080fd5b60009350835b878110156139a357813586811115613982578586fd5b6139908c89838e01016139b2565b855250928601929086019060010161396c565b50909998505050505050505050565b600082601f8301126139c357600080fd5b612202838335602085016138a8565b600060a082840312156139e457600080fd5b50919050565b6000602082840312156139fc57600080fd5b813561220281614547565b600060208284031215613a1957600080fd5b815161220281614547565b60008060408385031215613a3757600080fd5b8235613a4281614547565b91506020830135613a5281614547565b809150509250929050565b600080600060608486031215613a7257600080fd5b8335613a7d81614547565b92506020840135613a8d81614547565b915060408401356001600160401b03811115613aa857600080fd5b613ab4868287016139d2565b9150509250925092565b600080600060608486031215613ad357600080fd5b8335613ade81614547565b92506020840135613aee81614547565b929592945050506040919091013590565b60008060008060808587031215613b1557600080fd5b8435613b2081614547565b93506020850135613b3081614547565b92506040850135915060608501356001600160401b03811115613b5257600080fd5b8501601f81018713613b6357600080fd5b613b72878235602084016138a8565b91505092959194509250565b60008060008060008060c08789031215613b9757600080fd5b613ba0876138ff565b955060208701356001600160401b0380821115613bbc57600080fd5b613bc88a838b0161390f565b96506040890135915080821115613bde57600080fd5b613bea8a838b0161390f565b95506060890135915080821115613c0057600080fd5b613c0c8a838b0161390f565b94506080890135915080821115613c2257600080fd5b50613c2f89828a0161390f565b92505060a087013590509295509295509295565b60008060408385031215613c5657600080fd5b8235613c6181614547565b915060208301358015158114613a5257600080fd5b600080600080600060a08688031215613c8e57600080fd5b8535613c9981614547565b945060208601356001600160401b0380821115613cb557600080fd5b613cc189838a016139b2565b95506040880135915080821115613cd757600080fd5b613ce389838a016139b2565b94506060880135915080821115613cf957600080fd5b613d0589838a016139b2565b93506080880135915080821115613d1b57600080fd5b50613d28888289016139b2565b9150509295509295909350565b60008060408385031215613d4857600080fd5b8235613d5381614547565b915060208301356001600160401b03811115613d6e57600080fd5b613d7a858286016139d2565b9150509250929050565b60008060408385031215613d9757600080fd5b8235613da281614547565b946020939093013593505050565b600060208284031215613dc257600080fd5b81356122028161455c565b600060208284031215613ddf57600080fd5b81516122028161455c565b600060208284031215613dfc57600080fd5b81356001600160401b03811115613e1257600080fd5b61267a848285016139b2565b60008060408385031215613e3157600080fd5b82356001600160401b0380821115613e4857600080fd5b613e54868387016139b2565b93506020850135915080821115613e6a57600080fd5b50613d7a858286016139b2565b600080600060608486031215613e8c57600080fd5b83356001600160401b0380821115613ea357600080fd5b613eaf878388016139b2565b94506020860135915080821115613ec557600080fd5b613ed1878388016139b2565b93506040860135915080821115613ee757600080fd5b50613ab4868287016139b2565b600060208284031215613f0657600080fd5b81356001600160401b03811115613f1c57600080fd5b61267a848285016139d2565b600060208284031215613f3a57600080fd5b5035919050565b60008060408385031215613f5457600080fd5b8235915060208301356001600160401b03811115613f7157600080fd5b613d7a858286016139b2565b600080600060608486031215613f9257600080fd5b8335925060208401356001600160401b0380821115613ec557600080fd5b60008151808452613fc8816020860160208601614433565b601f01601f19169290920160200192915050565b60008251613fee818460208701614433565b9190910192915050565b6000835161400a818460208801614433565b83519083019061401e818360208801614433565b01949350505050565b6001600160a01b0385811682528416602082015260408101839052608060608201819052600090611e2c90830184613fb0565b6020808252825182820181905260009190848201906040850190845b8181101561409257835183529284019291840191600101614076565b50909695505050505050565b6020815260006122026020830184613fb0565b6040815260006140c46040830185613fb0565b82810360208401526140d68185613fb0565b95945050505050565b6060815260006140f26060830186613fb0565b82810360208401526141048186613fb0565b90508281036040840152611e2c8185613fb0565b60208082526019908201527f4552433732313a20756e617574686f72697a65642063616c6c00000000000000604082015260600190565b60208082526032908201527f4552433732313a207472616e7366657220746f206e6f6e20455243373231526560408201527131b2b4bb32b91034b6b83632b6b2b73a32b960711b606082015260800190565b6020808252602e908201527f496e697469616c697a61626c653a20636f6e747261637420697320616c72656160408201526d191e481a5b9a5d1a585b1a5e995960921b606082015260800190565b6020808252818101527f4f776e61626c653a2063616c6c6572206973206e6f7420746865206f776e6572604082015260600190565b60208082526027908201527f417574686f72697a6174696f6e206661696c65643a20496e76616c6964207369604082015266676e617475726560c81b606082015260800190565b60208082526031908201527f4552433732313a207472616e736665722063616c6c6572206973206e6f74206f6040820152701ddb995c881b9bdc88185c1c1c9bdd9959607a1b606082015260800190565b60208152815160208201526000602083015160c060408401526142e260e0840182613fb0565b90506040840151601f19808584030160608601526143008383613fb0565b925060608601519150808584030160808601525061431e8282613fb0565b60808601516001600160a01b0390811660a0878101919091529096015190951660c090940193909352509192915050565b8381526060602082015260006143686060830185613fb0565b8281036040840152611e2c8185613fb0565b6000808335601e1984360301811261439157600080fd5b8301803591506001600160401b038211156143ab57600080fd5b6020019150368190038213156132de57600080fd5b604051601f8201601f191681016001600160401b03811182821017156143e8576143e8614531565b604052919050565b60008219821115614403576144036144c3565b500190565b600082614417576144176144d9565b500490565b60008282101561442e5761442e6144c3565b500390565b60005b8381101561444e578181015183820152602001614436565b83811115611ecb5750506000910152565b600181811c9082168061447357607f821691505b602082108114156139e457634e487b7160e01b600052602260045260246000fd5b60006000198214156144a8576144a86144c3565b5060010190565b6000826144be576144be6144d9565b500690565b634e487b7160e01b600052601160045260246000fd5b634e487b7160e01b600052601260045260246000fd5b634e487b7160e01b600052602160045260246000fd5b634e487b7160e01b600052603160045260246000fd5b634e487b7160e01b600052603260045260246000fd5b634e487b7160e01b600052604160045260246000fd5b6001600160a01b03811681146112d057600080fd5b6001600160e01b0319811681146112d057600080fdfea2646970667358221220e58723b2252a20dc6fa12cc5124d8f86b23eeefeccf38f59c1ef0c76bcda6d0e64736f6c63430008070033",
  "immutableReferences": {},
  "source": "//SPDX-License-Identifier: MIT\npragma solidity 0.8.7;\npragma abicoder v2; // required to accept structs as function parameters\n\nimport \"@openzeppelin/contracts-upgradeable/access/AccessControlUpgradeable.sol\";\nimport \"@openzeppelin/contracts-upgradeable/access/OwnableUpgradeable.sol\";\nimport \"@openzeppelin/contracts-upgradeable/token/ERC721/extensions/ERC721EnumerableUpgradeable.sol\";\nimport \"@openzeppelin/contracts-upgradeable/utils/structs/EnumerableSetUpgradeable.sol\";\nimport \"../utils/WebaverseVoucher.sol\";\n\ncontract WebaverseERC721 is\n    WebaverseVoucher,\n    ERC721EnumerableUpgradeable,\n    OwnableUpgradeable\n{\n    using EnumerableSetUpgradeable for EnumerableSetUpgradeable.UintSet;\n\n    mapping(address => bool) private _whitelistedMinters; // Mapping of white listed minters\n    string private _WebaBaseURI; // Base URI of the collection for Webaverse\n    uint256 public currentTokenId; // State variable for storing the latest minted token id\n    bool internal isPublicallyMintable; // whether anyone can mint tokens in this copy of the contract\n    mapping(uint256 => string) internal tokenIdToHash; // map of token id to hash it represents\n    mapping(string => uint256) internal hashToTokenId; // map of hash to token id it represents\n    mapping(string => Metadata[]) internal hashToMetadata; // map of hash to metadata key-value store\n    mapping(uint256 => address) internal minters; // map of tokens to minters\n    mapping(uint256 => Metadata[]) internal tokenIdToMetadata; // map of token id to metadata key-value store\n\n    struct Metadata {\n        string key;\n        string value;\n    }\n\n    struct Token {\n        uint256 id;\n        string hash;\n        string name;\n        string ext;\n        address minter;\n        address owner;\n    }\n\n    event MetadataSet(string hash, string key, string value);\n    event SingleMetadataSet(uint256 tokenId, string key, string value);\n    event HashUpdate(string oldHash, string newHash);\n    event Claim(address signer, address claimer, uint256 indexed id);\n    event ExternalClaim(\n        address indexed externalContract,\n        address signer,\n        address claimer,\n        uint256 indexed id\n    );\n\n    modifier onlyMinter() {\n        require(\n            isPublicallyMintable || isAllowedMinter(msg.sender),\n            \"ERC721: unauthorized call\"\n        );\n        _;\n    }\n\n    function initialize(\n        string memory name,\n        string memory symbol,\n        string memory baseURI_\n    ) public initializer {\n        __Ownable_init_unchained();\n        __ERC721_init(name, symbol);\n        _webaverse_voucher_init();\n        setBaseURI(baseURI_);\n        addMinter(msg.sender);\n    }\n\n    /**\n     * @return Returns the base URI of the host to fetch the metadata from (default empty).\n     */\n    function baseURI() public view returns (string memory) {\n        return _WebaBaseURI;\n    }\n\n    /**\n     * @dev Update or change the Base URI of the collection for Webaverse NFTs\n     * @param baseURI_ The base URI of the host to fetch the metadata from e.g. https://ipfs.io/ipfs/.\n     */\n    function setBaseURI(string memory baseURI_) public onlyOwner {\n        _WebaBaseURI = baseURI_;\n    }\n\n    // /**\n    //  * @notice Mints the a single NFT with given parameters.\n    //  * @param to The address on which the NFT will be minted.\n    //  * @param hash The URL of the NFT.\n    //  * @param name The name of the NFT.\n    //  * @param ext The name of the NFT.\n    //  * @param description The description of the NFT.\n    //  **/\n    function mint(\n        address to,\n        string memory hash,\n        string memory name,\n        string memory ext,\n        string memory description\n    ) public onlyMinter returns (uint256) {\n        require(\n            hashToTokenId[hash] == 0,\n            \"ERC721: token with this hash already minted\"\n        );\n        uint256 tokenId = getNextTokenId();\n        _mint(to, tokenId);\n        minters[tokenId] = msg.sender;\n        tokenIdToHash[tokenId] = hash;\n        hashToTokenId[hash] = tokenId;\n        setMetadata(hash, \"name\", name);\n        setMetadata(hash, \"ext\", ext);\n        setMetadata(hash, \"description\", description);\n        _incrementTokenId();\n        return tokenId;\n    }\n\n    /**\n     * @notice Mints the a single NFT with given parameters.\n     * @param to The address on which the NFT will be minted.\n     * @param hash The IPFS hash of the NFT.\n     * @param name The name of the NFT.\n     * @param ext The ext of the NFT e.g '.jpeg', '.gif'.\n     * @param description The IPFS hash of the NFT.\n     **/\n    function mintBatch(\n        address to,\n        string[] memory hash,\n        string[] memory name,\n        string[] memory ext,\n        string[] memory description,\n        uint256 tokenCount\n    ) public onlyMinter {\n        for (uint256 i = 0; i < tokenCount; i++) {\n            mint(to, hash[i], name[i], ext[i], description[i]);\n        }\n    }\n\n    /**\n     * @dev Get metadata for the token. Metadata is a key-value store that can be set by owners and collaborators\n     * @param hash Token hash to query for metadata\n     * @param key Key to query for a value\n     * @return Value corresponding to metadata key\n     */\n    function getMetadata(string memory hash, string memory key)\n        public\n        view\n        returns (string memory)\n    {\n        for (uint256 i = 0; i < hashToMetadata[hash].length; i++) {\n            if (streq(hashToMetadata[hash][i].key, key)) {\n                return hashToMetadata[hash][i].value;\n            }\n        }\n        return \"\";\n    }\n\n    /**\n     * @dev Set metadata for the token. Metadata is a key-value store that can be set by owners and collaborators\n     * @param hash Token hash to add metadata to\n     * @param key Key to store value at\n     * @param value Value to store\n     */\n    function setMetadata(\n        string memory hash,\n        string memory key,\n        string memory value\n    ) public onlyMinter {\n        require(hashToTokenId[hash] > 0, \"ERC721: token does not exist\");\n        require(bytes(hash).length > 0, \"hash cannot be empty\"); // Hash cannot be empty (minting null items)\n        bool keyFound = false;\n        for (uint256 i = 0; i < hashToMetadata[hash].length; i++) {\n            if (streq(hashToMetadata[hash][i].key, key)) {\n                hashToMetadata[hash][i].value = value;\n                keyFound = true;\n                break;\n            }\n        }\n        if (!keyFound) {\n            hashToMetadata[hash].push(Metadata(key, value));\n        }\n\n        emit MetadataSet(hash, key, value);\n    }\n\n    /**\n     * @dev Get metadata for a single token (non-hashed)\n     * @param tokenId Token hash to add metadata to\n     * @param key Key to retrieve value for\n     * @return Returns the value stored for the key\n     */\n    function getSingleMetadata(uint256 tokenId, string memory key)\n        public\n        view\n        returns (string memory)\n    {\n        for (uint256 i = 0; i < tokenIdToMetadata[tokenId].length; i++) {\n            if (streq(tokenIdToMetadata[tokenId][i].key, key)) {\n                return tokenIdToMetadata[tokenId][i].value;\n            }\n        }\n        return \"\";\n    }\n\n    /**\n     * @dev Set metadata for a single token (non-hashed)\n     * @param tokenId Token hash to add metadata to\n     * @param key Key to store value at\n     * @param value Value to store\n     */\n    function setSingleMetadata(\n        uint256 tokenId,\n        string memory key,\n        string memory value\n    ) public onlyMinter {\n        bool keyFound = false;\n        for (uint256 i = 0; i < tokenIdToMetadata[tokenId].length; i++) {\n            if (streq(tokenIdToMetadata[tokenId][i].key, key)) {\n                tokenIdToMetadata[tokenId][i].value = value;\n                keyFound = true;\n                break;\n            }\n        }\n        if (!keyFound) {\n            tokenIdToMetadata[tokenId].push(Metadata(key, value));\n        }\n\n        emit SingleMetadataSet(tokenId, key, value);\n    }\n\n    /**\n     * @notice Get token id from hash\n     */\n    function getTokenIdFromHash(string memory hash)\n        public\n        view\n        returns (uint256)\n    {\n        return hashToTokenId[hash];\n    }\n\n    /**\n     * @notice Get token id from hash\n     */\n    function getHashFromTokenId(uint256 tokenId)\n        public\n        view\n        returns (string memory)\n    {\n        return tokenIdToHash[tokenId];\n    }\n\n    /**\n     * @dev Update token hash with a new hash\n     * @param oldHash Old hash to query\n     * @param newHash New hash to set\n     */\n    function updateHash(string memory oldHash, string memory newHash)\n        public\n        onlyMinter\n    {\n        require(hashToTokenId[oldHash] != 0, \"ERC721: hash does not exist\");\n        uint256 tokenId = hashToTokenId[oldHash];\n        hashToTokenId[newHash] = hashToTokenId[oldHash];\n        tokenIdToHash[tokenId] = newHash;\n        hashToMetadata[newHash] = hashToMetadata[oldHash];\n        delete hashToTokenId[oldHash];\n        delete hashToMetadata[oldHash];\n        emit HashUpdate(oldHash, newHash);\n    }\n\n    /**\n     * @dev List the tokens IDs owned by an account\n     * @param owner Address to query\n     * @return Array of token IDs\n     */\n    function getTokenIdsOf(address owner)\n        public\n        view\n        returns (uint256[] memory)\n    {\n        uint256 count = balanceOf(owner);\n        uint256[] memory ids = new uint256[](count);\n        for (uint256 i = 0; i < count; i++) {\n            ids[i] = tokenOfOwnerByIndex(owner, i);\n        }\n        return ids;\n    }\n\n    /**\n     * @dev Get the complete information for a token from it's ID\n     * @param tokenId Token ID to query\n     * @return Token struct containing token data\n     */\n    function tokenByIdFull(uint256 tokenId) public view returns (Token memory) {\n        string memory hash;\n        string memory name;\n        string memory ext;\n        hash = tokenIdToHash[tokenId];\n        name = getMetadata(hash, \"name\");\n        ext = getMetadata(hash, \"ext\");\n\n        address minter = minters[tokenId];\n        address owner = _exists(tokenId) ? ownerOf(tokenId) : address(0);\n        return Token(tokenId, hash, name, ext, minter, owner);\n    }\n\n    /**\n     * @dev Get the full Token struct from an owner address at a specific index\n     * @param owner Owner to query\n     * @param index Index in owner's balance to query\n     * @return Token struct containing token data\n     */\n    function tokenOfOwnerByIndexFull(address owner, uint256 index)\n        public\n        view\n        returns (Token memory)\n    {\n        uint256 tokenId = tokenOfOwnerByIndex(owner, index);\n        string memory hash;\n        string memory name;\n        string memory ext;\n        hash = tokenIdToHash[tokenId];\n        name = getMetadata(hash, \"name\");\n        ext = getMetadata(hash, \"ext\");\n        address minter = minters[tokenId];\n        return Token(tokenId, hash, name, ext, minter, owner);\n    }\n\n    /**\n     * @notice Redeems an NFTVoucher for an actual NFT, authorized by the owner.\n     * @param claimer The address of the account which will receive the NFT upon success.\n     * @param voucher A signed NFTVoucher that describes the NFT to be redeemed.\n     * @dev Verification through ECDSA signature of 'typed' data.\n     * @dev Voucher must contain valid signature, nonce, and expiry.\n     **/\n    function claim(address claimer, NFTVoucher calldata voucher)\n        public\n        virtual\n        returns (uint256)\n    {\n        // make sure signature is valid and get the address of the signer\n        address signer = verifyVoucher(voucher);\n\n        require(\n            signer == ownerOf(voucher.tokenId),\n            \"Authorization failed: Invalid signature\"\n        );\n\n        // set internal approval for the tokenId on the behalf of the signer\n        _approve(address(this), voucher.tokenId);\n        // transfer the token to the claimer\n        _transfer(signer, claimer, voucher.tokenId);\n        emit Claim(signer, claimer, voucher.tokenId);\n        return voucher.tokenId;\n    }\n\n    /**\n     * @notice Redeems an NFTVoucher for an actual NFT, authorized by the owner from an external contract.\n     * @param claimer The address of the account which will receive the NFT upon success.\n     * @param externalContractAddress The address of the contract from which the token is being transferred\n     * @param voucher A signed NFTVoucher that describes the NFT to be redeemed.\n     * @dev Verification through ECDSA signature of 'typed' data.\n     * @dev Voucher must contain valid signature, nonce, and expiry.\n     **/\n    function externalClaim(\n        address claimer,\n        address externalContractAddress,\n        NFTVoucher calldata voucher\n    ) public returns (uint256) {\n        IERC721Upgradeable externalContract = IERC721Upgradeable(\n            externalContractAddress\n        );\n        // make sure signature is valid and get the address of the signer\n        address signer = verifyVoucher(voucher);\n\n        require(\n            signer == externalContract.ownerOf(voucher.tokenId),\n            \"Authorization failed: Invalid signature\"\n        );\n        require(\n            externalContract.getApproved(voucher.tokenId) == address(this),\n            \"This contract has no approval for this token\"\n        );\n\n        // transfer the token to the claimer\n        externalContract.transferFrom(signer, claimer, voucher.tokenId);\n        emit ExternalClaim(\n            externalContractAddress,\n            signer,\n            claimer,\n            voucher.tokenId\n        );\n        return voucher.tokenId;\n    }\n\n    /**\n     * @dev Checks if an address is allowed to mint ERC20 tokens\n     * @param account address to check for the white listing for\n     * @return true if address is allowed to mint\n     */\n    function isAllowedMinter(address account) public view returns (bool) {\n        return _whitelistedMinters[account];\n    }\n\n    /**\n     * @dev Add an account to the list of accounts allowed to create ERC20 tokens\n     * @param minter address to whitelist\n     */\n    function addMinter(address minter) public onlyOwner {\n        require(!isAllowedMinter(minter), \"ERC20: Minter already added\");\n        _whitelistedMinters[minter] = true;\n    }\n\n    /**\n     * @dev Remove an account from the list of accounts allowed to create ERC20 tokens\n     * @param minter address to remove from whitelist\n     */\n    function removeMinter(address minter) public onlyOwner {\n        require(isAllowedMinter(minter), \"ERC20: Minter does not exist\");\n        _whitelistedMinters[minter] = false;\n    }\n\n    function getNextTokenId() public view returns (uint256) {\n        return currentTokenId + 1;\n    }\n\n    /**\n     * @dev increments the value of _currentTokenId\n     */\n    function _incrementTokenId() internal {\n        currentTokenId++;\n    }\n\n    /**@dev Helper function to convert a uint to a string\n     * @param _i uint to convert\n     * @return _uintAsString string converted from uint\n     */\n    function uint2str(uint256 _i)\n        internal\n        pure\n        returns (string memory _uintAsString)\n    {\n        if (_i == 0) {\n            return \"0\";\n        }\n        uint256 j = _i;\n        uint256 len;\n        while (j != 0) {\n            len++;\n            j /= 10;\n        }\n        bytes memory bstr = new bytes(len);\n        uint256 k = len - 1;\n        while (_i != 0) {\n            bstr[k--] = bytes1(uint8(48 + (_i % 10)));\n            _i /= 10;\n        }\n        return string(bstr);\n    }\n\n    /**\n     * @dev Check if two strings are equal\n     * @param a First string to compare\n     * @param b Second string to compare\n     * @return Returns true if strings are equal\n     */\n    function streq(string memory a, string memory b)\n        internal\n        pure\n        returns (bool)\n    {\n        return (keccak256(abi.encodePacked((a))) ==\n            keccak256(abi.encodePacked((b))));\n    }\n\n    /**\n     * @notice Using low level assembly call to fetch the chain id of the blockchain.\n     * @return Returns the chain id of the current blockchain.\n     **/\n    function getChainID() external view returns (uint256) {\n        uint256 id;\n        assembly {\n            id := chainid()\n        }\n        return id;\n    }\n\n    function supportsInterface(bytes4 interfaceId)\n        public\n        view\n        virtual\n        override(ERC721EnumerableUpgradeable)\n        returns (bool)\n    {\n        return ERC721Upgradeable.supportsInterface(interfaceId);\n    }\n}\n",
  "sourcePath": "/home/mohsin/Desktop/sidechain/contracts/main/WebaverseERC721.sol",
  "compiler": {
    "name": "solc",
    "version": "0.8.7+commit.e28d00a7.Emscripten.clang"
  },
  "schemaVersion": "3.4.3",
  "updatedAt": "2022-01-15T16:13:12.074Z",
  "networkType": "ethereum",
  "devdoc": {
    "kind": "dev",
    "methods": {
      "addMinter(address)": {
        "details": "Add an account to the list of accounts allowed to create ERC20 tokens",
        "params": {
          "minter": "address to whitelist"
        }
      },
      "approve(address,uint256)": {
        "details": "See {IERC721-approve}."
      },
      "balanceOf(address)": {
        "details": "See {IERC721-balanceOf}."
      },
      "baseURI()": {
        "returns": {
          "_0": "Returns the base URI of the host to fetch the metadata from (default empty)."
        }
      },
      "claim(address,(uint256,uint256,uint256,uint256,bytes))": {
        "details": "Verification through ECDSA signature of 'typed' data.Voucher must contain valid signature, nonce, and expiry.*",
        "params": {
          "claimer": "The address of the account which will receive the NFT upon success.",
          "voucher": "A signed NFTVoucher that describes the NFT to be redeemed."
        }
      },
      "externalClaim(address,address,(uint256,uint256,uint256,uint256,bytes))": {
        "details": "Verification through ECDSA signature of 'typed' data.Voucher must contain valid signature, nonce, and expiry.*",
        "params": {
          "claimer": "The address of the account which will receive the NFT upon success.",
          "externalContractAddress": "The address of the contract from which the token is being transferred",
          "voucher": "A signed NFTVoucher that describes the NFT to be redeemed."
        }
      },
      "getApproved(uint256)": {
        "details": "See {IERC721-getApproved}."
      },
      "getChainID()": {
        "returns": {
          "_0": "Returns the chain id of the current blockchain.*"
        }
      },
      "getMetadata(string,string)": {
        "details": "Get metadata for the token. Metadata is a key-value store that can be set by owners and collaborators",
        "params": {
          "hash": "Token hash to query for metadata",
          "key": "Key to query for a value"
        },
        "returns": {
          "_0": "Value corresponding to metadata key"
        }
      },
      "getSingleMetadata(uint256,string)": {
        "details": "Get metadata for a single token (non-hashed)",
        "params": {
          "key": "Key to retrieve value for",
          "tokenId": "Token hash to add metadata to"
        },
        "returns": {
          "_0": "Returns the value stored for the key"
        }
      },
      "getTokenIdsOf(address)": {
        "details": "List the tokens IDs owned by an account",
        "params": {
          "owner": "Address to query"
        },
        "returns": {
          "_0": "Array of token IDs"
        }
      },
      "isAllowedMinter(address)": {
        "details": "Checks if an address is allowed to mint ERC20 tokens",
        "params": {
          "account": "address to check for the white listing for"
        },
        "returns": {
          "_0": "true if address is allowed to mint"
        }
      },
      "isApprovedForAll(address,address)": {
        "details": "See {IERC721-isApprovedForAll}."
      },
      "mintBatch(address,string[],string[],string[],string[],uint256)": {
        "params": {
          "description": "The IPFS hash of the NFT.*",
          "ext": "The ext of the NFT e.g '.jpeg', '.gif'.",
          "hash": "The IPFS hash of the NFT.",
          "name": "The name of the NFT.",
          "to": "The address on which the NFT will be minted."
        }
      },
      "name()": {
        "details": "See {IERC721Metadata-name}."
      },
      "owner()": {
        "details": "Returns the address of the current owner."
      },
      "ownerOf(uint256)": {
        "details": "See {IERC721-ownerOf}."
      },
      "removeMinter(address)": {
        "details": "Remove an account from the list of accounts allowed to create ERC20 tokens",
        "params": {
          "minter": "address to remove from whitelist"
        }
      },
      "renounceOwnership()": {
        "details": "Leaves the contract without owner. It will not be possible to call `onlyOwner` functions anymore. Can only be called by the current owner. NOTE: Renouncing ownership will leave the contract without an owner, thereby removing any functionality that is only available to the owner."
      },
      "safeTransferFrom(address,address,uint256)": {
        "details": "See {IERC721-safeTransferFrom}."
      },
      "safeTransferFrom(address,address,uint256,bytes)": {
        "details": "See {IERC721-safeTransferFrom}."
      },
      "setApprovalForAll(address,bool)": {
        "details": "See {IERC721-setApprovalForAll}."
      },
      "setBaseURI(string)": {
        "details": "Update or change the Base URI of the collection for Webaverse NFTs",
        "params": {
          "baseURI_": "The base URI of the host to fetch the metadata from e.g. https://ipfs.io/ipfs/."
        }
      },
      "setMetadata(string,string,string)": {
        "details": "Set metadata for the token. Metadata is a key-value store that can be set by owners and collaborators",
        "params": {
          "hash": "Token hash to add metadata to",
          "key": "Key to store value at",
          "value": "Value to store"
        }
      },
      "setSingleMetadata(uint256,string,string)": {
        "details": "Set metadata for a single token (non-hashed)",
        "params": {
          "key": "Key to store value at",
          "tokenId": "Token hash to add metadata to",
          "value": "Value to store"
        }
      },
      "supportsInterface(bytes4)": {
        "details": "See {IERC165-supportsInterface}."
      },
      "symbol()": {
        "details": "See {IERC721Metadata-symbol}."
      },
      "tokenByIdFull(uint256)": {
        "details": "Get the complete information for a token from it's ID",
        "params": {
          "tokenId": "Token ID to query"
        },
        "returns": {
          "_0": "Token struct containing token data"
        }
      },
      "tokenByIndex(uint256)": {
        "details": "See {IERC721Enumerable-tokenByIndex}."
      },
      "tokenOfOwnerByIndex(address,uint256)": {
        "details": "See {IERC721Enumerable-tokenOfOwnerByIndex}."
      },
      "tokenOfOwnerByIndexFull(address,uint256)": {
        "details": "Get the full Token struct from an owner address at a specific index",
        "params": {
          "index": "Index in owner's balance to query",
          "owner": "Owner to query"
        },
        "returns": {
          "_0": "Token struct containing token data"
        }
      },
      "tokenURI(uint256)": {
        "details": "See {IERC721Metadata-tokenURI}."
      },
      "totalSupply()": {
        "details": "See {IERC721Enumerable-totalSupply}."
      },
      "transferFrom(address,address,uint256)": {
        "details": "See {IERC721-transferFrom}."
      },
      "transferOwnership(address)": {
        "details": "Transfers ownership of the contract to a new account (`newOwner`). Can only be called by the current owner."
      },
      "updateHash(string,string)": {
        "details": "Update token hash with a new hash",
        "params": {
          "newHash": "New hash to set",
          "oldHash": "Old hash to query"
        }
      },
      "verifyVoucher((uint256,uint256,uint256,uint256,bytes))": {
        "details": "Verification through ECDSA signature of 'typed' data.Voucher must contain valid signature, nonce, and expiry.*",
        "params": {
          "voucher": "A signed NFTVoucher that describes the NFT to be redeemed."
        }
      }
    },
    "version": 1
  },
  "userdoc": {
    "kind": "user",
    "methods": {
      "claim(address,(uint256,uint256,uint256,uint256,bytes))": {
        "notice": "Redeems an NFTVoucher for an actual NFT, authorized by the owner."
      },
      "externalClaim(address,address,(uint256,uint256,uint256,uint256,bytes))": {
        "notice": "Redeems an NFTVoucher for an actual NFT, authorized by the owner from an external contract."
      },
      "getChainID()": {
        "notice": "Using low level assembly call to fetch the chain id of the blockchain."
      },
      "getHashFromTokenId(uint256)": {
        "notice": "Get token id from hash"
      },
      "getTokenIdFromHash(string)": {
        "notice": "Get token id from hash"
      },
      "mintBatch(address,string[],string[],string[],string[],uint256)": {
        "notice": "Mints the a single NFT with given parameters."
      },
      "verifyVoucher((uint256,uint256,uint256,uint256,bytes))": {
        "notice": "Verifies an NFTVoucher for an actual NFT, authorized by the owner."
      }
    },
    "version": 1
  }
}