{
  "_format": "hh-sol-artifact-1",
  "contractName": "WebaverseERC20",
  "sourceName": "contracts/main/WebaverseERC20.sol",
  "abi": [
    {
      "inputs": [
        {
          "internalType": "string",
          "name": "name",
          "type": "string"
        },
        {
          "internalType": "string",
          "name": "symbol",
          "type": "string"
        },
        {
          "internalType": "uint256",
          "name": "maxSupply_",
          "type": "uint256"
        }
      ],
      "stateMutability": "nonpayable",
      "type": "constructor"
    },
    {
      "anonymous": false,
      "inputs": [
        {
          "indexed": true,
          "internalType": "address",
          "name": "owner",
          "type": "address"
        },
        {
          "indexed": true,
          "internalType": "address",
          "name": "spender",
          "type": "address"
        },
        {
          "indexed": false,
          "internalType": "uint256",
          "name": "value",
          "type": "uint256"
        }
      ],
      "name": "Approval",
      "type": "event"
    },
    {
      "anonymous": false,
      "inputs": [
        {
          "indexed": false,
          "internalType": "address",
          "name": "signer",
          "type": "address"
        },
        {
          "indexed": false,
          "internalType": "address",
          "name": "claimer",
          "type": "address"
        },
        {
          "indexed": false,
          "internalType": "uint256",
          "name": "balance",
          "type": "uint256"
        }
      ],
      "name": "Claim",
      "type": "event"
    },
    {
      "anonymous": false,
      "inputs": [
        {
          "indexed": true,
          "internalType": "address",
          "name": "externalContract",
          "type": "address"
        },
        {
          "indexed": false,
          "internalType": "address",
          "name": "signer",
          "type": "address"
        },
        {
          "indexed": false,
          "internalType": "address",
          "name": "claimer",
          "type": "address"
        },
        {
          "indexed": false,
          "internalType": "uint256",
          "name": "balance",
          "type": "uint256"
        }
      ],
      "name": "ExternalClaim",
      "type": "event"
    },
    {
      "anonymous": false,
      "inputs": [
        {
          "indexed": true,
          "internalType": "address",
          "name": "previousOwner",
          "type": "address"
        },
        {
          "indexed": true,
          "internalType": "address",
          "name": "newOwner",
          "type": "address"
        }
      ],
      "name": "OwnershipTransferred",
      "type": "event"
    },
    {
      "anonymous": false,
      "inputs": [
        {
          "indexed": true,
          "internalType": "address",
          "name": "from",
          "type": "address"
        },
        {
          "indexed": true,
          "internalType": "address",
          "name": "to",
          "type": "address"
        },
        {
          "indexed": false,
          "internalType": "uint256",
          "name": "value",
          "type": "uint256"
        }
      ],
      "name": "Transfer",
      "type": "event"
    },
    {
      "inputs": [
        {
          "internalType": "address",
          "name": "minter",
          "type": "address"
        }
      ],
      "name": "addMinter",
      "outputs": [],
      "stateMutability": "nonpayable",
      "type": "function"
    },
    {
      "inputs": [
        {
          "internalType": "address",
          "name": "owner",
          "type": "address"
        },
        {
          "internalType": "address",
          "name": "spender",
          "type": "address"
        }
      ],
      "name": "allowance",
      "outputs": [
        {
          "internalType": "uint256",
          "name": "",
          "type": "uint256"
        }
      ],
      "stateMutability": "view",
      "type": "function"
    },
    {
      "inputs": [
        {
          "internalType": "address",
          "name": "spender",
          "type": "address"
        },
        {
          "internalType": "uint256",
          "name": "amount",
          "type": "uint256"
        }
      ],
      "name": "approve",
      "outputs": [
        {
          "internalType": "bool",
          "name": "",
          "type": "bool"
        }
      ],
      "stateMutability": "nonpayable",
      "type": "function"
    },
    {
      "inputs": [
        {
          "internalType": "address",
          "name": "account",
          "type": "address"
        }
      ],
      "name": "balanceOf",
      "outputs": [
        {
          "internalType": "uint256",
          "name": "",
          "type": "uint256"
        }
      ],
      "stateMutability": "view",
      "type": "function"
    },
    {
      "inputs": [
        {
          "internalType": "uint256",
          "name": "",
          "type": "uint256"
        }
      ],
      "name": "burnedNonces",
      "outputs": [
        {
          "internalType": "bool",
          "name": "",
          "type": "bool"
        }
      ],
      "stateMutability": "view",
      "type": "function"
    },
    {
      "inputs": [
        {
          "internalType": "address",
          "name": "claimer",
          "type": "address"
        },
        {
          "components": [
            {
              "internalType": "uint256",
              "name": "tokenId",
              "type": "uint256"
            },
            {
              "internalType": "uint256",
              "name": "balance",
              "type": "uint256"
            },
            {
              "internalType": "uint256",
              "name": "nonce",
              "type": "uint256"
            },
            {
              "internalType": "uint256",
              "name": "expiry",
              "type": "uint256"
            },
            {
              "internalType": "bytes",
              "name": "signature",
              "type": "bytes"
            }
          ],
          "internalType": "struct WBVRSVoucher.NFTVoucher",
          "name": "voucher",
          "type": "tuple"
        }
      ],
      "name": "claim",
      "outputs": [
        {
          "internalType": "uint256",
          "name": "",
          "type": "uint256"
        }
      ],
      "stateMutability": "nonpayable",
      "type": "function"
    },
    {
      "inputs": [],
      "name": "decimals",
      "outputs": [
        {
          "internalType": "uint8",
          "name": "",
          "type": "uint8"
        }
      ],
      "stateMutability": "view",
      "type": "function"
    },
    {
      "inputs": [
        {
          "internalType": "address",
          "name": "spender",
          "type": "address"
        },
        {
          "internalType": "uint256",
          "name": "subtractedValue",
          "type": "uint256"
        }
      ],
      "name": "decreaseAllowance",
      "outputs": [
        {
          "internalType": "bool",
          "name": "",
          "type": "bool"
        }
      ],
      "stateMutability": "nonpayable",
      "type": "function"
    },
    {
      "inputs": [
        {
          "internalType": "address",
          "name": "claimer",
          "type": "address"
        },
        {
          "internalType": "address",
          "name": "contractAddress",
          "type": "address"
        },
        {
          "components": [
            {
              "internalType": "uint256",
              "name": "tokenId",
              "type": "uint256"
            },
            {
              "internalType": "uint256",
              "name": "balance",
              "type": "uint256"
            },
            {
              "internalType": "uint256",
              "name": "nonce",
              "type": "uint256"
            },
            {
              "internalType": "uint256",
              "name": "expiry",
              "type": "uint256"
            },
            {
              "internalType": "bytes",
              "name": "signature",
              "type": "bytes"
            }
          ],
          "internalType": "struct WBVRSVoucher.NFTVoucher",
          "name": "voucher",
          "type": "tuple"
        }
      ],
      "name": "externalClaim",
      "outputs": [
        {
          "internalType": "uint256",
          "name": "",
          "type": "uint256"
        }
      ],
      "stateMutability": "nonpayable",
      "type": "function"
    },
    {
      "inputs": [
        {
          "internalType": "address",
          "name": "spender",
          "type": "address"
        },
        {
          "internalType": "uint256",
          "name": "addedValue",
          "type": "uint256"
        }
      ],
      "name": "increaseAllowance",
      "outputs": [
        {
          "internalType": "bool",
          "name": "",
          "type": "bool"
        }
      ],
      "stateMutability": "nonpayable",
      "type": "function"
    },
    {
      "inputs": [
        {
          "internalType": "address",
          "name": "account",
          "type": "address"
        }
      ],
      "name": "isAllowedMinter",
      "outputs": [
        {
          "internalType": "bool",
          "name": "",
          "type": "bool"
        }
      ],
      "stateMutability": "view",
      "type": "function"
    },
    {
      "inputs": [],
      "name": "maxSupply",
      "outputs": [
        {
          "internalType": "uint256",
          "name": "",
          "type": "uint256"
        }
      ],
      "stateMutability": "view",
      "type": "function"
    },
    {
      "inputs": [
        {
          "internalType": "address",
          "name": "to",
          "type": "address"
        },
        {
          "internalType": "uint256",
          "name": "amount",
          "type": "uint256"
        }
      ],
      "name": "mint",
      "outputs": [],
      "stateMutability": "nonpayable",
      "type": "function"
    },
    {
      "inputs": [],
      "name": "name",
      "outputs": [
        {
          "internalType": "string",
          "name": "",
          "type": "string"
        }
      ],
      "stateMutability": "view",
      "type": "function"
    },
    {
      "inputs": [],
      "name": "owner",
      "outputs": [
        {
          "internalType": "address",
          "name": "",
          "type": "address"
        }
      ],
      "stateMutability": "view",
      "type": "function"
    },
    {
      "inputs": [
        {
          "internalType": "address",
          "name": "minter",
          "type": "address"
        }
      ],
      "name": "removeMinter",
      "outputs": [],
      "stateMutability": "nonpayable",
      "type": "function"
    },
    {
      "inputs": [],
      "name": "renounceOwnership",
      "outputs": [],
      "stateMutability": "nonpayable",
      "type": "function"
    },
    {
      "inputs": [],
      "name": "symbol",
      "outputs": [
        {
          "internalType": "string",
          "name": "",
          "type": "string"
        }
      ],
      "stateMutability": "view",
      "type": "function"
    },
    {
      "inputs": [],
      "name": "totalSupply",
      "outputs": [
        {
          "internalType": "uint256",
          "name": "",
          "type": "uint256"
        }
      ],
      "stateMutability": "view",
      "type": "function"
    },
    {
      "inputs": [
        {
          "internalType": "address",
          "name": "recipient",
          "type": "address"
        },
        {
          "internalType": "uint256",
          "name": "amount",
          "type": "uint256"
        }
      ],
      "name": "transfer",
      "outputs": [
        {
          "internalType": "bool",
          "name": "",
          "type": "bool"
        }
      ],
      "stateMutability": "nonpayable",
      "type": "function"
    },
    {
      "inputs": [
        {
          "internalType": "address",
          "name": "sender",
          "type": "address"
        },
        {
          "internalType": "address",
          "name": "recipient",
          "type": "address"
        },
        {
          "internalType": "uint256",
          "name": "amount",
          "type": "uint256"
        }
      ],
      "name": "transferFrom",
      "outputs": [
        {
          "internalType": "bool",
          "name": "",
          "type": "bool"
        }
      ],
      "stateMutability": "nonpayable",
      "type": "function"
    },
    {
      "inputs": [
        {
          "internalType": "address",
          "name": "newOwner",
          "type": "address"
        }
      ],
      "name": "transferOwnership",
      "outputs": [],
      "stateMutability": "nonpayable",
      "type": "function"
    },
    {
      "inputs": [
        {
          "components": [
            {
              "internalType": "uint256",
              "name": "tokenId",
              "type": "uint256"
            },
            {
              "internalType": "uint256",
              "name": "balance",
              "type": "uint256"
            },
            {
              "internalType": "uint256",
              "name": "nonce",
              "type": "uint256"
            },
            {
              "internalType": "uint256",
              "name": "expiry",
              "type": "uint256"
            },
            {
              "internalType": "bytes",
              "name": "signature",
              "type": "bytes"
            }
          ],
          "internalType": "struct WBVRSVoucher.NFTVoucher",
          "name": "voucher",
          "type": "tuple"
        }
      ],
      "name": "verifyVoucher",
      "outputs": [
        {
          "internalType": "address",
          "name": "",
          "type": "address"
        }
      ],
      "stateMutability": "nonpayable",
      "type": "function"
    }
  ],
  "bytecode": "0x6101406040523480156200001257600080fd5b5060405162001ee938038062001ee9833981016040819052620000359162000328565b604051806040016040528060118152602001702bb2b130bb32b939b296bb37bab1b432b960791b815250604051806040016040528060018152602001603160f81b8152508484816003908051906020019062000093929190620001cb565b508051620000a9906004906020840190620001cb565b5050825160208085019190912083518483012060e08290526101008190524660a0818152604080517f8b73c3c69bb8fe3d512ecc4cf759cc79239f7b179b0ffacaa9a75d522b39400f81880181905281830187905260608201869052608082019490945230818401528151808203909301835260c0019052805194019390932091935091906080523060601b60c05261012052506200015492506200014e9150503390565b62000179565b6008555050336000908152600760205260409020805460ff19166001179055620003ee565b600680546001600160a01b038381166001600160a01b0319831681179093556040519116919082907f8be0079c531659141344cd1fd0a4f28419497f9722a3daafe3b4186f6b6457e090600090a35050565b828054620001d9906200039b565b90600052602060002090601f016020900481019282620001fd576000855562000248565b82601f106200021857805160ff191683800117855562000248565b8280016001018555821562000248579182015b82811115620002485782518255916020019190600101906200022b565b50620002569291506200025a565b5090565b5b808211156200025657600081556001016200025b565b600082601f8301126200028357600080fd5b81516001600160401b0380821115620002a057620002a0620003d8565b604051601f8301601f19908116603f01168101908282118183101715620002cb57620002cb620003d8565b81604052838152602092508683858801011115620002e857600080fd5b600091505b838210156200030c5785820183015181830184015290820190620002ed565b838211156200031e5760008385830101525b9695505050505050565b6000806000606084860312156200033e57600080fd5b83516001600160401b03808211156200035657600080fd5b620003648783880162000271565b945060208601519150808211156200037b57600080fd5b506200038a8682870162000271565b925050604084015190509250925092565b600181811c90821680620003b057607f821691505b60208210811415620003d257634e487b7160e01b600052602260045260246000fd5b50919050565b634e487b7160e01b600052604160045260246000fd5b60805160a05160c05160601c60e0516101005161012051611aa8620004416000396000611504015260006115530152600061152e01526000611487015260006114b1015260006114db0152611aa86000f3fe608060405234801561001057600080fd5b506004361061014d5760003560e01c80637e2499cc116100c3578063a8689ce21161007c578063a8689ce2146102e8578063a9059cbb146102fb578063ad637e671461030e578063d5abeb0114610321578063dd62ed3e14610329578063f2fde38b1461036257600080fd5b80637e2499cc1461025f5780638da5cb5b146102825780639468f2ca146102a757806395d89b41146102ba578063983b2d56146102c2578063a457c2d7146102d557600080fd5b80633092afd5116101155780633092afd5146101e4578063313ce567146101f9578063395093511461020857806340c10f191461021b57806370a082311461022e578063715018a61461025757600080fd5b806306fdde0314610152578063095ea7b31461017057806318160ddd146101935780631f3b4c90146101a557806323b872dd146101d1575b600080fd5b61015a610375565b60405161016791906118e2565b60405180910390f35b61018361017e366004611827565b610407565b6040519015158152602001610167565b6002545b604051908152602001610167565b6101836101b33660046116f1565b6001600160a01b031660009081526007602052604090205460ff1690565b6101836101df36600461179d565b61041d565b6101f76101f23660046116f1565b6104cc565b005b60405160128152602001610167565b610183610216366004611827565b61057f565b6101f7610229366004611827565b6105bb565b61019761023c3660046116f1565b6001600160a01b031660009081526020819052604090205490565b6101f76106a0565b61018361026d3660046118b0565b60056020526000908152604090205460ff1681565b6006546001600160a01b03165b6040516001600160a01b039091168152602001610167565b6101976102b53660046117d9565b6106d6565b61015a610788565b6101f76102d03660046116f1565b610797565b6101836102e3366004611827565b61084e565b6101976102f636600461173f565b6108e7565b610183610309366004611827565b610b5f565b61028f61031c366004611873565b610b6c565b600854610197565b61019761033736600461170c565b6001600160a01b03918216600090815260016020908152604080832093909416825291909152205490565b6101f76103703660046116f1565b610c48565b60606003805461038490611a27565b80601f01602080910402602001604051908101604052809291908181526020018280546103b090611a27565b80156103fd5780601f106103d2576101008083540402835291602001916103fd565b820191906000526020600020905b8154815290600101906020018083116103e057829003601f168201915b5050505050905090565b6000610414338484610ce3565b50600192915050565b600061042a848484610e07565b6001600160a01b0384166000908152600160209081526040808320338452909152902054828110156104b45760405162461bcd60e51b815260206004820152602860248201527f45524332303a207472616e7366657220616d6f756e74206578636565647320616044820152676c6c6f77616e636560c01b60648201526084015b60405180910390fd5b6104c18533858403610ce3565b506001949350505050565b6006546001600160a01b031633146104f65760405162461bcd60e51b81526004016104ab90611985565b6001600160a01b03811660009081526007602052604090205460ff1661055e5760405162461bcd60e51b815260206004820152601c60248201527f45524332303a204d696e74657220646f6573206e6f742065786973740000000060448201526064016104ab565b6001600160a01b03166000908152600760205260409020805460ff19169055565b3360008181526001602090815260408083206001600160a01b038716845290915281205490916104149185906105b6908690611a01565b610ce3565b6105c4336101b3565b61062d5760405162461bcd60e51b815260206004820152603460248201527f45524332303a204f6e6c79207768697465206c6973746564206d696e7465727360448201527308185c9948185b1b1bddd959081d1bc81b5a5b9d60621b60648201526084016104ab565b6008548161063a60025490565b6106449190611a01565b11156106925760405162461bcd60e51b815260206004820152601960248201527f45524332303a204d617820737570706c7920726561636865640000000000000060448201526064016104ab565b61069c8282610fd6565b5050565b6006546001600160a01b031633146106ca5760405162461bcd60e51b81526004016104ab90611985565b6106d460006110b5565b565b6000806106e283610b6c565b9050610703816001600160a01b031660009081526020819052604090205490565b61071f5760405162461bcd60e51b81526004016104ab90611937565b61072e81858560200135610e07565b604080516001600160a01b03838116825286166020808301919091528501358183015290517f70eb43c4a8ae8c40502dcf22436c509c28d6ff421cf07c491be56984bd9870689181900360600190a1505060200135919050565b60606004805461038490611a27565b6006546001600160a01b031633146107c15760405162461bcd60e51b81526004016104ab90611985565b6001600160a01b03811660009081526007602052604090205460ff161561082a5760405162461bcd60e51b815260206004820152601b60248201527f45524332303a204d696e74657220616c7265616479206164646564000000000060448201526064016104ab565b6001600160a01b03166000908152600760205260409020805460ff19166001179055565b3360009081526001602090815260408083206001600160a01b0386168452909152812054828110156108d05760405162461bcd60e51b815260206004820152602560248201527f45524332303a2064656372656173656420616c6c6f77616e63652062656c6f77604482015264207a65726f60d81b60648201526084016104ab565b6108dd3385858403610ce3565b5060019392505050565b600082816108f484610b6c565b6040516370a0823160e01b81526001600160a01b038083166004830152919250908316906370a082319060240160206040518083038186803b15801561093957600080fd5b505afa15801561094d573d6000803e3d6000fd5b505050506040513d601f19601f8201168201806040525081019061097191906118c9565b61098d5760405162461bcd60e51b81526004016104ab90611937565b604051636eb1769f60e11b81526001600160a01b0382811660048301523060248301526000919084169063dd62ed3e9060440160206040518083038186803b1580156109d857600080fd5b505afa1580156109ec573d6000803e3d6000fd5b505050506040513d601f19601f82011682018060405250810190610a1091906118c9565b11610a705760405162461bcd60e51b815260206004820152602a60248201527f57425652533a20417072726f76616c206e6f742073657420666f7220576562616044820152690766572736545524332360b41b60648201526084016104ab565b6040516323b872dd60e01b81526001600160a01b0382811660048301528781166024830152602086013560448301528316906323b872dd90606401602060405180830381600087803b158015610ac557600080fd5b505af1158015610ad9573d6000803e3d6000fd5b505050506040513d601f19601f82011682018060405250810190610afd9190611851565b50604080516001600160a01b038381168252888116602080840191909152870135828401529151918716917f111ebfff7ae758e422941bfa7b90fc5ddafbb23589ebcdf6da904a05c3422ace9181900360600190a25050506020013592915050565b6000610414338484610e07565b60008160600135421115610bc25760405162461bcd60e51b815260206004820152601b60248201527f566f75636865722068617320616c72656164792065787069726564000000000060448201526064016104ab565b60408083013560009081526005602052205460ff1615610c1a5760405162461bcd60e51b8152602060048201526013602482015272496e76616c6964206e6f6e63652076616c756560681b60448201526064016104ab565b60408083013560009081526005602052908120805460ff19166001179055610c4183611107565b9392505050565b6006546001600160a01b03163314610c725760405162461bcd60e51b81526004016104ab90611985565b6001600160a01b038116610cd75760405162461bcd60e51b815260206004820152602660248201527f4f776e61626c653a206e6577206f776e657220697320746865207a65726f206160448201526564647265737360d01b60648201526084016104ab565b610ce0816110b5565b50565b6001600160a01b038316610d455760405162461bcd60e51b8152602060048201526024808201527f45524332303a20617070726f76652066726f6d20746865207a65726f206164646044820152637265737360e01b60648201526084016104ab565b6001600160a01b038216610da65760405162461bcd60e51b815260206004820152602260248201527f45524332303a20617070726f766520746f20746865207a65726f206164647265604482015261737360f01b60648201526084016104ab565b6001600160a01b0383811660008181526001602090815260408083209487168084529482529182902085905590518481527f8c5be1e5ebec7d5bd14f71427d1e84f3dd0314c0f7b2291e5b200ac8c7c3b925910160405180910390a3505050565b6001600160a01b038316610e6b5760405162461bcd60e51b815260206004820152602560248201527f45524332303a207472616e736665722066726f6d20746865207a65726f206164604482015264647265737360d81b60648201526084016104ab565b6001600160a01b038216610ecd5760405162461bcd60e51b815260206004820152602360248201527f45524332303a207472616e7366657220746f20746865207a65726f206164647260448201526265737360e81b60648201526084016104ab565b6001600160a01b03831660009081526020819052604090205481811015610f455760405162461bcd60e51b815260206004820152602660248201527f45524332303a207472616e7366657220616d6f756e7420657863656564732062604482015265616c616e636560d01b60648201526084016104ab565b6001600160a01b03808516600090815260208190526040808220858503905591851681529081208054849290610f7c908490611a01565b92505081905550826001600160a01b0316846001600160a01b03167fddf252ad1be2c89b69c2b068fc378daa952ba7f163c4a11628f55a4df523b3ef84604051610fc891815260200190565b60405180910390a350505050565b6001600160a01b03821661102c5760405162461bcd60e51b815260206004820152601f60248201527f45524332303a206d696e7420746f20746865207a65726f20616464726573730060448201526064016104ab565b806002600082825461103e9190611a01565b90915550506001600160a01b0382166000908152602081905260408120805483929061106b908490611a01565b90915550506040518181526001600160a01b038316906000907fddf252ad1be2c89b69c2b068fc378daa952ba7f163c4a11628f55a4df523b3ef9060200160405180910390a35050565b600680546001600160a01b038381166001600160a01b0319831681179093556040519116919082907f8be0079c531659141344cd1fd0a4f28419497f9722a3daafe3b4186f6b6457e090600090a35050565b60008061111383611160565b9050610c418161112660808601866119ba565b8080601f0160208091040260200160405190810160405280939291908181526020018383808284376000920191909152506111dd92505050565b604080517f9351747b1e9d1d5ecc2259decffb60239f521e243e85645e0762ed1d775876776020828101919091528335828401528301356060828101919091529183013560808201529082013560a08201526000906111d79060c00160405160208183030381529060405280519060200120611201565b92915050565b60008060006111ec858561124f565b915091506111f9816112bf565b509392505050565b60006111d761120e61147a565b8360405161190160f01b6020820152602281018390526042810182905260009060620160405160208183030381529060405280519060200120905092915050565b6000808251604114156112865760208301516040840151606085015160001a61127a878285856115a1565b945094505050506112b8565b8251604014156112b057602083015160408401516112a586838361168e565b9350935050506112b8565b506000905060025b9250929050565b60008160048111156112d3576112d3611a5c565b14156112dc5750565b60018160048111156112f0576112f0611a5c565b141561133e5760405162461bcd60e51b815260206004820152601860248201527f45434453413a20696e76616c6964207369676e6174757265000000000000000060448201526064016104ab565b600281600481111561135257611352611a5c565b14156113a05760405162461bcd60e51b815260206004820152601f60248201527f45434453413a20696e76616c6964207369676e6174757265206c656e6774680060448201526064016104ab565b60038160048111156113b4576113b4611a5c565b141561140d5760405162461bcd60e51b815260206004820152602260248201527f45434453413a20696e76616c6964207369676e6174757265202773272076616c604482015261756560f01b60648201526084016104ab565b600481600481111561142157611421611a5c565b1415610ce05760405162461bcd60e51b815260206004820152602260248201527f45434453413a20696e76616c6964207369676e6174757265202776272076616c604482015261756560f01b60648201526084016104ab565b6000306001600160a01b037f0000000000000000000000000000000000000000000000000000000000000000161480156114d357507f000000000000000000000000000000000000000000000000000000000000000046145b156114fd57507f000000000000000000000000000000000000000000000000000000000000000090565b50604080517f00000000000000000000000000000000000000000000000000000000000000006020808301919091527f0000000000000000000000000000000000000000000000000000000000000000828401527f000000000000000000000000000000000000000000000000000000000000000060608301524660808301523060a0808401919091528351808403909101815260c0909201909252805191012090565b6000807f7fffffffffffffffffffffffffffffff5d576e7357a4501ddfe92f46681b20a08311156115d85750600090506003611685565b8460ff16601b141580156115f057508460ff16601c14155b156116015750600090506004611685565b6040805160008082526020820180845289905260ff881692820192909252606081018690526080810185905260019060a0016020604051602081039080840390855afa158015611655573d6000803e3d6000fd5b5050604051601f1901519150506001600160a01b03811661167e57600060019250925050611685565b9150600090505b94509492505050565b6000806001600160ff1b03831660ff84901c601b016116af878288856115a1565b935093505050935093915050565b80356001600160a01b03811681146116d457600080fd5b919050565b600060a082840312156116eb57600080fd5b50919050565b60006020828403121561170357600080fd5b610c41826116bd565b6000806040838503121561171f57600080fd5b611728836116bd565b9150611736602084016116bd565b90509250929050565b60008060006060848603121561175457600080fd5b61175d846116bd565b925061176b602085016116bd565b9150604084013567ffffffffffffffff81111561178757600080fd5b611793868287016116d9565b9150509250925092565b6000806000606084860312156117b257600080fd5b6117bb846116bd565b92506117c9602085016116bd565b9150604084013590509250925092565b600080604083850312156117ec57600080fd5b6117f5836116bd565b9150602083013567ffffffffffffffff81111561181157600080fd5b61181d858286016116d9565b9150509250929050565b6000806040838503121561183a57600080fd5b611843836116bd565b946020939093013593505050565b60006020828403121561186357600080fd5b81518015158114610c4157600080fd5b60006020828403121561188557600080fd5b813567ffffffffffffffff81111561189c57600080fd5b6118a8848285016116d9565b949350505050565b6000602082840312156118c257600080fd5b5035919050565b6000602082840312156118db57600080fd5b5051919050565b600060208083528351808285015260005b8181101561190f578581018301518582016040015282016118f3565b81811115611921576000604083870101525b50601f01601f1916929092016040019392505050565b6020808252602e908201527f57425652533a20417574686f72697a6174696f6e206661696c65643a20496e7660408201526d616c6964207369676e617475726560901b606082015260800190565b6020808252818101527f4f776e61626c653a2063616c6c6572206973206e6f7420746865206f776e6572604082015260600190565b6000808335601e198436030181126119d157600080fd5b83018035915067ffffffffffffffff8211156119ec57600080fd5b6020019150368190038213156112b857600080fd5b60008219821115611a2257634e487b7160e01b600052601160045260246000fd5b500190565b600181811c90821680611a3b57607f821691505b602082108114156116eb57634e487b7160e01b600052602260045260246000fd5b634e487b7160e01b600052602160045260246000fdfea264697066735822122036e64953c4e769ffb8cbde56a6fc5d5938b86950b59a094fb4cc54ed446c679264736f6c63430008070033",
  "linkReferences": {},
  "deployedLinkReferences": {}
}