{
  "_format": "hh-sol-artifact-1",
  "contractName": "Webaverse",
  "sourceName": "contracts/main/Webaverse.sol",
  "abi": [
    {
      "anonymous": false,
      "inputs": [
        {
          "indexed": true,
          "internalType": "address",
          "name": "previousOwner",
          "type": "address"
        },
        {
          "indexed": true,
          "internalType": "address",
          "name": "newOwner",
          "type": "address"
        }
      ],
      "name": "OwnershipTransferred",
      "type": "event"
    },
    {
      "inputs": [],
      "name": "ERC20Address",
      "outputs": [
        {
          "internalType": "address",
          "name": "",
          "type": "address"
        }
      ],
      "stateMutability": "view",
      "type": "function"
    },
    {
      "inputs": [],
      "name": "ERC721Address",
      "outputs": [
        {
          "internalType": "address",
          "name": "",
          "type": "address"
        }
      ],
      "stateMutability": "view",
      "type": "function"
    },
    {
      "inputs": [
        {
          "internalType": "address",
          "name": "_erc721Address",
          "type": "address"
        },
        {
          "internalType": "address",
          "name": "_erc20Address",
          "type": "address"
        },
        {
          "internalType": "uint256",
          "name": "mintFee_",
          "type": "uint256"
        },
        {
          "internalType": "address",
          "name": "treasuryAddress_",
          "type": "address"
        }
      ],
      "name": "initialize",
      "outputs": [],
      "stateMutability": "nonpayable",
      "type": "function"
    },
    {
      "inputs": [
        {
          "internalType": "address",
          "name": "to",
          "type": "address"
        },
        {
          "internalType": "string",
          "name": "uri",
          "type": "string"
        }
      ],
      "name": "mint",
      "outputs": [],
      "stateMutability": "nonpayable",
      "type": "function"
    },
    {
      "inputs": [],
      "name": "mintFee",
      "outputs": [
        {
          "internalType": "uint256",
          "name": "",
          "type": "uint256"
        }
      ],
      "stateMutability": "view",
      "type": "function"
    },
    {
      "inputs": [],
      "name": "owner",
      "outputs": [
        {
          "internalType": "address",
          "name": "",
          "type": "address"
        }
      ],
      "stateMutability": "view",
      "type": "function"
    },
    {
      "inputs": [],
      "name": "renounceOwnership",
      "outputs": [],
      "stateMutability": "nonpayable",
      "type": "function"
    },
    {
      "inputs": [
        {
          "internalType": "address",
          "name": "_erc20Address",
          "type": "address"
        }
      ],
      "name": "setERC20",
      "outputs": [],
      "stateMutability": "nonpayable",
      "type": "function"
    },
    {
      "inputs": [
        {
          "internalType": "address",
          "name": "_erc721Address",
          "type": "address"
        }
      ],
      "name": "setERC721",
      "outputs": [],
      "stateMutability": "nonpayable",
      "type": "function"
    },
    {
      "inputs": [
        {
          "internalType": "uint256",
          "name": "mintFee_",
          "type": "uint256"
        }
      ],
      "name": "setMintFee",
      "outputs": [],
      "stateMutability": "nonpayable",
      "type": "function"
    },
    {
      "inputs": [
        {
          "internalType": "address",
          "name": "treasuryAddress_",
          "type": "address"
        }
      ],
      "name": "setTreasuryAddress",
      "outputs": [],
      "stateMutability": "nonpayable",
      "type": "function"
    },
    {
      "inputs": [
        {
          "internalType": "address",
          "name": "newOwner",
          "type": "address"
        }
      ],
      "name": "transferOwnership",
      "outputs": [],
      "stateMutability": "nonpayable",
      "type": "function"
    },
    {
      "inputs": [],
      "name": "treasuryAddress",
      "outputs": [
        {
          "internalType": "address",
          "name": "",
          "type": "address"
        }
      ],
      "stateMutability": "view",
      "type": "function"
    }
  ],
  "bytecode": "0x608060405234801561001057600080fd5b50610a2a806100206000396000f3fe608060405234801561001057600080fd5b50600436106100cf5760003560e01c8063a6021ace1161008c578063c5f956af11610066578063c5f956af14610187578063d0def52114610198578063eddd0d9c146101ab578063f2fde38b146101be57600080fd5b8063a6021ace14610150578063be20309414610161578063c29a6fda1461017457600080fd5b8063094144a5146100d457806313966db5146100e9578063574490cd146100ff5780636605bfda14610124578063715018a6146101375780638da5cb5b1461013f575b600080fd5b6100e76100e2366004610774565b6101d1565b005b6067546040519081526020015b60405180910390f35b6065546001600160a01b03165b6040516001600160a01b0390911681526020016100f6565b6100e7610132366004610774565b610226565b6100e7610272565b6033546001600160a01b031661010c565b6066546001600160a01b031661010c565b6100e761016f366004610796565b6102a8565b6100e7610182366004610774565b610391565b6068546001600160a01b031661010c565b6100e76101a63660046107e3565b6103dd565b6100e76101b93660046108c7565b6105ae565b6100e76101cc366004610774565b6105dd565b6033546001600160a01b031633146102045760405162461bcd60e51b81526004016101fb9061095e565b60405180910390fd5b606580546001600160a01b0319166001600160a01b0392909216919091179055565b6033546001600160a01b031633146102505760405162461bcd60e51b81526004016101fb9061095e565b606880546001600160a01b0319166001600160a01b0392909216919091179055565b6033546001600160a01b0316331461029c5760405162461bcd60e51b81526004016101fb9061095e565b6102a66000610678565b565b600054610100900460ff166102c35760005460ff16156102c7565b303b155b61032a5760405162461bcd60e51b815260206004820152602e60248201527f496e697469616c697a61626c653a20636f6e747261637420697320616c72656160448201526d191e481a5b9a5d1a585b1a5e995960921b60648201526084016101fb565b600054610100900460ff1615801561034c576000805461ffff19166101011790555b6103546106ca565b61035d856101d1565b61036684610391565b61036f836105ae565b61037882610226565b801561038a576000805461ff00191690555b5050505050565b6033546001600160a01b031633146103bb5760405162461bcd60e51b81526004016101fb9061095e565b606680546001600160a01b0319166001600160a01b0392909216919091179055565b606754156104df576066546001600160a01b03166323b872dd336104096068546001600160a01b031690565b6067546040516001600160e01b031960e086901b1681526001600160a01b0393841660048201529290911660248301526044820152606401602060405180830381600087803b15801561045b57600080fd5b505af115801561046f573d6000803e3d6000fd5b505050506040513d601f19601f8201168201806040525081019061049391906108a5565b6104df5760405162461bcd60e51b815260206004820152601f60248201527f5765626176657273653a204d696e74207472616e73666572206661696c65640060448201526064016101fb565b60655460405163d0def52160e01b81526000916001600160a01b03169063d0def5219061051290869086906004016108f9565b602060405180830381600087803b15801561052c57600080fd5b505af1158015610540573d6000803e3d6000fd5b505050506040513d601f19601f8201168201806040525081019061056491906108e0565b116105aa5760405162461bcd60e51b815260206004820152601660248201527515d958985d995c9cd94e881b5a5b9d0819985a5b195960521b60448201526064016101fb565b5050565b6033546001600160a01b031633146105d85760405162461bcd60e51b81526004016101fb9061095e565b606755565b6033546001600160a01b031633146106075760405162461bcd60e51b81526004016101fb9061095e565b6001600160a01b03811661066c5760405162461bcd60e51b815260206004820152602660248201527f4f776e61626c653a206e6577206f776e657220697320746865207a65726f206160448201526564647265737360d01b60648201526084016101fb565b61067581610678565b50565b603380546001600160a01b038381166001600160a01b0319831681179093556040519116919082907f8be0079c531659141344cd1fd0a4f28419497f9722a3daafe3b4186f6b6457e090600090a35050565b600054610100900460ff166106f15760405162461bcd60e51b81526004016101fb90610993565b6106f9610701565b6102a6610728565b600054610100900460ff166102a65760405162461bcd60e51b81526004016101fb90610993565b600054610100900460ff1661074f5760405162461bcd60e51b81526004016101fb90610993565b6102a633610678565b80356001600160a01b038116811461076f57600080fd5b919050565b60006020828403121561078657600080fd5b61078f82610758565b9392505050565b600080600080608085870312156107ac57600080fd5b6107b585610758565b93506107c360208601610758565b9250604085013591506107d860608601610758565b905092959194509250565b600080604083850312156107f657600080fd5b6107ff83610758565b9150602083013567ffffffffffffffff8082111561081c57600080fd5b818501915085601f83011261083057600080fd5b813581811115610842576108426109de565b604051601f8201601f19908116603f0116810190838211818310171561086a5761086a6109de565b8160405282815288602084870101111561088357600080fd5b8260208601602083013760006020848301015280955050505050509250929050565b6000602082840312156108b757600080fd5b8151801515811461078f57600080fd5b6000602082840312156108d957600080fd5b5035919050565b6000602082840312156108f257600080fd5b5051919050565b60018060a01b038316815260006020604081840152835180604085015260005b8181101561093557858101830151858201606001528201610919565b81811115610947576000606083870101525b50601f01601f191692909201606001949350505050565b6020808252818101527f4f776e61626c653a2063616c6c6572206973206e6f7420746865206f776e6572604082015260600190565b6020808252602b908201527f496e697469616c697a61626c653a20636f6e7472616374206973206e6f74206960408201526a6e697469616c697a696e6760a81b606082015260800190565b634e487b7160e01b600052604160045260246000fdfea26469706673582212200cce70c6746b708ab364e2abb7b744736d9ebbfa45ef0db6929e3aa39d2029e964736f6c63430008070033",
  "linkReferences": {},
  "deployedLinkReferences": {}
}