{
  "_format": "hh-sol-artifact-1",
  "contractName": "WebaverseERC721",
  "sourceName": "contracts/main/WebaverseERC721.sol",
  "abi": [
    {
      "inputs": [
        {
          "internalType": "string",
          "name": "name",
          "type": "string"
        },
        {
          "internalType": "string",
          "name": "symbol",
          "type": "string"
        },
        {
          "internalType": "string",
          "name": "baseURI_",
          "type": "string"
        }
      ],
      "stateMutability": "nonpayable",
      "type": "constructor"
    },
    {
      "anonymous": false,
      "inputs": [
        {
          "indexed": true,
          "internalType": "address",
          "name": "owner",
          "type": "address"
        },
        {
          "indexed": true,
          "internalType": "address",
          "name": "approved",
          "type": "address"
        },
        {
          "indexed": true,
          "internalType": "uint256",
          "name": "tokenId",
          "type": "uint256"
        }
      ],
      "name": "Approval",
      "type": "event"
    },
    {
      "anonymous": false,
      "inputs": [
        {
          "indexed": true,
          "internalType": "address",
          "name": "owner",
          "type": "address"
        },
        {
          "indexed": true,
          "internalType": "address",
          "name": "operator",
          "type": "address"
        },
        {
          "indexed": false,
          "internalType": "bool",
          "name": "approved",
          "type": "bool"
        }
      ],
      "name": "ApprovalForAll",
      "type": "event"
    },
    {
      "anonymous": false,
      "inputs": [
        {
          "indexed": false,
          "internalType": "address",
          "name": "signer",
          "type": "address"
        },
        {
          "indexed": false,
          "internalType": "address",
          "name": "claimer",
          "type": "address"
        },
        {
          "indexed": true,
          "internalType": "uint256",
          "name": "id",
          "type": "uint256"
        }
      ],
      "name": "Claim",
      "type": "event"
    },
    {
      "anonymous": false,
      "inputs": [
        {
          "indexed": true,
          "internalType": "address",
          "name": "externalContract",
          "type": "address"
        },
        {
          "indexed": false,
          "internalType": "address",
          "name": "signer",
          "type": "address"
        },
        {
          "indexed": false,
          "internalType": "address",
          "name": "claimer",
          "type": "address"
        },
        {
          "indexed": true,
          "internalType": "uint256",
          "name": "id",
          "type": "uint256"
        }
      ],
      "name": "ExternalClaim",
      "type": "event"
    },
    {
      "anonymous": false,
      "inputs": [
        {
          "indexed": true,
          "internalType": "address",
          "name": "previousOwner",
          "type": "address"
        },
        {
          "indexed": true,
          "internalType": "address",
          "name": "newOwner",
          "type": "address"
        }
      ],
      "name": "OwnershipTransferred",
      "type": "event"
    },
    {
      "anonymous": false,
      "inputs": [
        {
          "indexed": true,
          "internalType": "address",
          "name": "from",
          "type": "address"
        },
        {
          "indexed": true,
          "internalType": "address",
          "name": "to",
          "type": "address"
        },
        {
          "indexed": true,
          "internalType": "uint256",
          "name": "tokenId",
          "type": "uint256"
        }
      ],
      "name": "Transfer",
      "type": "event"
    },
    {
      "anonymous": false,
      "inputs": [
        {
          "indexed": false,
          "internalType": "uint256",
          "name": "id",
          "type": "uint256"
        },
        {
          "indexed": false,
          "internalType": "string",
          "name": "uri",
          "type": "string"
        }
      ],
      "name": "URI",
      "type": "event"
    },
    {
      "inputs": [
        {
          "internalType": "address",
          "name": "minter",
          "type": "address"
        }
      ],
      "name": "addMinter",
      "outputs": [],
      "stateMutability": "nonpayable",
      "type": "function"
    },
    {
      "inputs": [
        {
          "internalType": "address",
          "name": "to",
          "type": "address"
        },
        {
          "internalType": "uint256",
          "name": "tokenId",
          "type": "uint256"
        }
      ],
      "name": "approve",
      "outputs": [],
      "stateMutability": "nonpayable",
      "type": "function"
    },
    {
      "inputs": [
        {
          "internalType": "address",
          "name": "owner",
          "type": "address"
        }
      ],
      "name": "balanceOf",
      "outputs": [
        {
          "internalType": "uint256",
          "name": "",
          "type": "uint256"
        }
      ],
      "stateMutability": "view",
      "type": "function"
    },
    {
      "inputs": [],
      "name": "baseURI",
      "outputs": [
        {
          "internalType": "string",
          "name": "",
          "type": "string"
        }
      ],
      "stateMutability": "view",
      "type": "function"
    },
    {
      "inputs": [
        {
          "internalType": "uint256",
          "name": "",
          "type": "uint256"
        }
      ],
      "name": "burnedNonces",
      "outputs": [
        {
          "internalType": "bool",
          "name": "",
          "type": "bool"
        }
      ],
      "stateMutability": "view",
      "type": "function"
    },
    {
      "inputs": [
        {
          "internalType": "address",
          "name": "claimer",
          "type": "address"
        },
        {
          "components": [
            {
              "internalType": "uint256",
              "name": "tokenId",
              "type": "uint256"
            },
            {
              "internalType": "uint256",
              "name": "balance",
              "type": "uint256"
            },
            {
              "internalType": "uint256",
              "name": "nonce",
              "type": "uint256"
            },
            {
              "internalType": "uint256",
              "name": "expiry",
              "type": "uint256"
            },
            {
              "internalType": "bytes",
              "name": "signature",
              "type": "bytes"
            }
          ],
          "internalType": "struct WBVRSVoucher.NFTVoucher",
          "name": "voucher",
          "type": "tuple"
        }
      ],
      "name": "claim",
      "outputs": [
        {
          "internalType": "uint256",
          "name": "",
          "type": "uint256"
        }
      ],
      "stateMutability": "nonpayable",
      "type": "function"
    },
    {
      "inputs": [],
      "name": "currentTokenId",
      "outputs": [
        {
          "internalType": "uint256",
          "name": "",
          "type": "uint256"
        }
      ],
      "stateMutability": "view",
      "type": "function"
    },
    {
      "inputs": [
        {
          "internalType": "address",
          "name": "claimer",
          "type": "address"
        },
        {
          "internalType": "address",
          "name": "externalContractAddress",
          "type": "address"
        },
        {
          "components": [
            {
              "internalType": "uint256",
              "name": "tokenId",
              "type": "uint256"
            },
            {
              "internalType": "uint256",
              "name": "balance",
              "type": "uint256"
            },
            {
              "internalType": "uint256",
              "name": "nonce",
              "type": "uint256"
            },
            {
              "internalType": "uint256",
              "name": "expiry",
              "type": "uint256"
            },
            {
              "internalType": "bytes",
              "name": "signature",
              "type": "bytes"
            }
          ],
          "internalType": "struct WBVRSVoucher.NFTVoucher",
          "name": "voucher",
          "type": "tuple"
        }
      ],
      "name": "externalClaim",
      "outputs": [
        {
          "internalType": "uint256",
          "name": "",
          "type": "uint256"
        }
      ],
      "stateMutability": "nonpayable",
      "type": "function"
    },
    {
      "inputs": [
        {
          "internalType": "uint256",
          "name": "tokenId",
          "type": "uint256"
        }
      ],
      "name": "getApproved",
      "outputs": [
        {
          "internalType": "address",
          "name": "",
          "type": "address"
        }
      ],
      "stateMutability": "view",
      "type": "function"
    },
    {
      "inputs": [],
      "name": "getChainID",
      "outputs": [
        {
          "internalType": "uint256",
          "name": "",
          "type": "uint256"
        }
      ],
      "stateMutability": "view",
      "type": "function"
    },
    {
      "inputs": [],
      "name": "getNextTokenId",
      "outputs": [
        {
          "internalType": "uint256",
          "name": "",
          "type": "uint256"
        }
      ],
      "stateMutability": "view",
      "type": "function"
    },
    {
      "inputs": [
        {
          "internalType": "address",
          "name": "account",
          "type": "address"
        }
      ],
      "name": "isAllowedMinter",
      "outputs": [
        {
          "internalType": "bool",
          "name": "",
          "type": "bool"
        }
      ],
      "stateMutability": "view",
      "type": "function"
    },
    {
      "inputs": [
        {
          "internalType": "address",
          "name": "owner",
          "type": "address"
        },
        {
          "internalType": "address",
          "name": "operator",
          "type": "address"
        }
      ],
      "name": "isApprovedForAll",
      "outputs": [
        {
          "internalType": "bool",
          "name": "",
          "type": "bool"
        }
      ],
      "stateMutability": "view",
      "type": "function"
    },
    {
      "inputs": [
        {
          "internalType": "address",
          "name": "account",
          "type": "address"
        },
        {
          "internalType": "string",
          "name": "uri",
          "type": "string"
        }
      ],
      "name": "mint",
      "outputs": [
        {
          "internalType": "uint256",
          "name": "",
          "type": "uint256"
        }
      ],
      "stateMutability": "nonpayable",
      "type": "function"
    },
    {
      "inputs": [
        {
          "internalType": "address",
          "name": "account",
          "type": "address"
        },
        {
          "internalType": "uint256",
          "name": "tokenCount",
          "type": "uint256"
        },
        {
          "internalType": "string",
          "name": "cid",
          "type": "string"
        }
      ],
      "name": "mintBatch",
      "outputs": [],
      "stateMutability": "nonpayable",
      "type": "function"
    },
    {
      "inputs": [],
      "name": "name",
      "outputs": [
        {
          "internalType": "string",
          "name": "",
          "type": "string"
        }
      ],
      "stateMutability": "view",
      "type": "function"
    },
    {
      "inputs": [],
      "name": "owner",
      "outputs": [
        {
          "internalType": "address",
          "name": "",
          "type": "address"
        }
      ],
      "stateMutability": "view",
      "type": "function"
    },
    {
      "inputs": [
        {
          "internalType": "uint256",
          "name": "tokenId",
          "type": "uint256"
        }
      ],
      "name": "ownerOf",
      "outputs": [
        {
          "internalType": "address",
          "name": "",
          "type": "address"
        }
      ],
      "stateMutability": "view",
      "type": "function"
    },
    {
      "inputs": [
        {
          "internalType": "address",
          "name": "minter",
          "type": "address"
        }
      ],
      "name": "removeMinter",
      "outputs": [],
      "stateMutability": "nonpayable",
      "type": "function"
    },
    {
      "inputs": [],
      "name": "renounceOwnership",
      "outputs": [],
      "stateMutability": "nonpayable",
      "type": "function"
    },
    {
      "inputs": [
        {
          "internalType": "address",
          "name": "from",
          "type": "address"
        },
        {
          "internalType": "address",
          "name": "to",
          "type": "address"
        },
        {
          "internalType": "uint256",
          "name": "tokenId",
          "type": "uint256"
        }
      ],
      "name": "safeTransferFrom",
      "outputs": [],
      "stateMutability": "nonpayable",
      "type": "function"
    },
    {
      "inputs": [
        {
          "internalType": "address",
          "name": "from",
          "type": "address"
        },
        {
          "internalType": "address",
          "name": "to",
          "type": "address"
        },
        {
          "internalType": "uint256",
          "name": "tokenId",
          "type": "uint256"
        },
        {
          "internalType": "bytes",
          "name": "_data",
          "type": "bytes"
        }
      ],
      "name": "safeTransferFrom",
      "outputs": [],
      "stateMutability": "nonpayable",
      "type": "function"
    },
    {
      "inputs": [
        {
          "internalType": "address",
          "name": "operator",
          "type": "address"
        },
        {
          "internalType": "bool",
          "name": "approved",
          "type": "bool"
        }
      ],
      "name": "setApprovalForAll",
      "outputs": [],
      "stateMutability": "nonpayable",
      "type": "function"
    },
    {
      "inputs": [
        {
          "internalType": "string",
          "name": "baseURI_",
          "type": "string"
        }
      ],
      "name": "setBaseURI",
      "outputs": [],
      "stateMutability": "nonpayable",
      "type": "function"
    },
    {
      "inputs": [
        {
          "internalType": "uint256[]",
          "name": "ids",
          "type": "uint256[]"
        },
        {
          "internalType": "string[]",
          "name": "uris",
          "type": "string[]"
        }
      ],
      "name": "setBatchURI",
      "outputs": [],
      "stateMutability": "nonpayable",
      "type": "function"
    },
    {
      "inputs": [
        {
          "internalType": "uint256",
          "name": "tokenId",
          "type": "uint256"
        },
        {
          "internalType": "string",
          "name": "uri",
          "type": "string"
        }
      ],
      "name": "setTokenURI",
      "outputs": [],
      "stateMutability": "nonpayable",
      "type": "function"
    },
    {
      "inputs": [
        {
          "internalType": "bytes4",
          "name": "interfaceId",
          "type": "bytes4"
        }
      ],
      "name": "supportsInterface",
      "outputs": [
        {
          "internalType": "bool",
          "name": "",
          "type": "bool"
        }
      ],
      "stateMutability": "view",
      "type": "function"
    },
    {
      "inputs": [],
      "name": "symbol",
      "outputs": [
        {
          "internalType": "string",
          "name": "",
          "type": "string"
        }
      ],
      "stateMutability": "view",
      "type": "function"
    },
    {
      "inputs": [
        {
          "internalType": "uint256",
          "name": "index",
          "type": "uint256"
        }
      ],
      "name": "tokenByIndex",
      "outputs": [
        {
          "internalType": "uint256",
          "name": "",
          "type": "uint256"
        }
      ],
      "stateMutability": "view",
      "type": "function"
    },
    {
      "inputs": [
        {
          "internalType": "address",
          "name": "owner",
          "type": "address"
        },
        {
          "internalType": "uint256",
          "name": "index",
          "type": "uint256"
        }
      ],
      "name": "tokenOfOwnerByIndex",
      "outputs": [
        {
          "internalType": "uint256",
          "name": "",
          "type": "uint256"
        }
      ],
      "stateMutability": "view",
      "type": "function"
    },
    {
      "inputs": [
        {
          "internalType": "uint256",
          "name": "tokenId",
          "type": "uint256"
        }
      ],
      "name": "tokenURI",
      "outputs": [
        {
          "internalType": "string",
          "name": "",
          "type": "string"
        }
      ],
      "stateMutability": "view",
      "type": "function"
    },
    {
      "inputs": [],
      "name": "totalSupply",
      "outputs": [
        {
          "internalType": "uint256",
          "name": "",
          "type": "uint256"
        }
      ],
      "stateMutability": "view",
      "type": "function"
    },
    {
      "inputs": [
        {
          "internalType": "address",
          "name": "from",
          "type": "address"
        },
        {
          "internalType": "address",
          "name": "to",
          "type": "address"
        },
        {
          "internalType": "uint256",
          "name": "tokenId",
          "type": "uint256"
        }
      ],
      "name": "transferFrom",
      "outputs": [],
      "stateMutability": "nonpayable",
      "type": "function"
    },
    {
      "inputs": [
        {
          "internalType": "address",
          "name": "newOwner",
          "type": "address"
        }
      ],
      "name": "transferOwnership",
      "outputs": [],
      "stateMutability": "nonpayable",
      "type": "function"
    },
    {
      "inputs": [
        {
          "components": [
            {
              "internalType": "uint256",
              "name": "tokenId",
              "type": "uint256"
            },
            {
              "internalType": "uint256",
              "name": "balance",
              "type": "uint256"
            },
            {
              "internalType": "uint256",
              "name": "nonce",
              "type": "uint256"
            },
            {
              "internalType": "uint256",
              "name": "expiry",
              "type": "uint256"
            },
            {
              "internalType": "bytes",
              "name": "signature",
              "type": "bytes"
            }
          ],
          "internalType": "struct WBVRSVoucher.NFTVoucher",
          "name": "voucher",
          "type": "tuple"
        }
      ],
      "name": "verifyVoucher",
      "outputs": [
        {
          "internalType": "address",
          "name": "",
          "type": "address"
        }
      ],
      "stateMutability": "nonpayable",
      "type": "function"
    }
  ],
  "bytecode": "0x6101406040523480156200001257600080fd5b50604051620037ad380380620037ad83398101604081905262000035916200047d565b60408051808201825260118152702bb2b130bb32b939b296bb37bab1b432b960791b60208083019182528351808501855260018152603160f81b81830152835190922060e08190527fc89efdaa54c0f20c7adf612882df0950f5a951637e0307cdcb4c672f298b8bc66101008190524660a081815287517f8b73c3c69bb8fe3d512ecc4cf759cc79239f7b179b0ffacaa9a75d522b39400f818701819052818a0186905260608201859052608082019390935230818301528851808203909201825260c0019097528651969093019590952088958895949390916080523060601b60c052610120525050835162000136925060019150602085019062000320565b5080516200014c90600290602084019062000320565b50505062000169620001636200018860201b60201c565b6200018c565b6200017481620001de565b6200017f3362000246565b50505062000561565b3390565b600b80546001600160a01b038381166001600160a01b0319831681179093556040519116919082907f8be0079c531659141344cd1fd0a4f28419497f9722a3daafe3b4186f6b6457e090600090a35050565b600b546001600160a01b031633146200022d5760405162461bcd60e51b815260206004820181905260248201526000805160206200378d83398151915260448201526064015b60405180910390fd5b80516200024290600d90602084019062000320565b5050565b600b546001600160a01b03163314620002915760405162461bcd60e51b815260206004820181905260248201526000805160206200378d833981519152604482015260640162000224565b6001600160a01b0381166000908152600c602052604090205460ff1615620002fc5760405162461bcd60e51b815260206004820152601b60248201527f45524332303a204d696e74657220616c72656164792061646465640000000000604482015260640162000224565b6001600160a01b03166000908152600c60205260409020805460ff19166001179055565b8280546200032e906200050e565b90600052602060002090601f0160209004810192826200035257600085556200039d565b82601f106200036d57805160ff19168380011785556200039d565b828001600101855582156200039d579182015b828111156200039d57825182559160200191906001019062000380565b50620003ab929150620003af565b5090565b5b80821115620003ab5760008155600101620003b0565b600082601f830112620003d857600080fd5b81516001600160401b0380821115620003f557620003f56200054b565b604051601f8301601f19908116603f011681019082821181831017156200042057620004206200054b565b816040528381526020925086838588010111156200043d57600080fd5b600091505b8382101562000461578582018301518183018401529082019062000442565b83821115620004735760008385830101525b9695505050505050565b6000806000606084860312156200049357600080fd5b83516001600160401b0380821115620004ab57600080fd5b620004b987838801620003c6565b94506020860151915080821115620004d057600080fd5b620004de87838801620003c6565b93506040860151915080821115620004f557600080fd5b506200050486828701620003c6565b9150509250925092565b600181811c908216806200052357607f821691505b602082108114156200054557634e487b7160e01b600052602260045260246000fd5b50919050565b634e487b7160e01b600052604160045260246000fd5b60805160a05160c05160601c60e05161010051610120516131d9620005b46000396000612516015260006125650152600061254001526000612499015260006124c3015260006124ed01526131d96000f3fe608060405234801561001057600080fd5b50600436106102105760003560e01c80636352211e11610125578063a22cb465116100ad578063c87b56dd1161007c578063c87b56dd14610472578063caa0f92a14610485578063d0def5211461048d578063e985e9c5146104a0578063f2fde38b146104dc57600080fd5b8063a22cb46514610426578063a8689ce214610439578063ad637e671461044c578063b88d4fde1461045f57600080fd5b80637e2499cc116100f45780637e2499cc146103c45780638da5cb5b146103e75780639468f2ca146103f857806395d89b411461040b578063983b2d561461041357600080fd5b80636352211e1461038e5780636c0360eb146103a157806370a08231146103a9578063715018a6146103bc57600080fd5b80631f3b4c90116101a857806331e4737b1161017757806331e4737b1461033c57806342842e0e1461034f5780634f6ccce71461036257806355f804b314610375578063564b81ef1461038857600080fd5b80631f3b4c90146102d757806323b872dd146103035780632f745c59146103165780633092afd51461032957600080fd5b8063095ea7b3116101e4578063095ea7b314610294578063162094c4146102a957806318160ddd146102bc5780631bf66f37146102c457600080fd5b80629a9b7b1461021557806301ffc9a71461023157806306fdde0314610254578063081812fc14610269575b600080fd5b61021e600f5481565b6040519081526020015b60405180910390f35b61024461023f366004612c17565b6104ef565b6040519015158152602001610228565b61025c610500565b6040516102289190612de8565b61027c610277366004612cb9565b610592565b6040516001600160a01b039091168152602001610228565b6102a76102a2366004612ae8565b61061f565b005b6102a76102b7366004612cd2565b610735565b60095461021e565b6102a76102d2366004612b62565b610896565b6102446102e536600461288d565b6001600160a01b03166000908152600c602052604090205460ff1690565b6102a7610311366004612961565b61095b565b61021e610324366004612ae8565b61098c565b6102a761033736600461288d565b610a22565b6102a761034a366004612b14565b610ad5565b6102a761035d366004612961565b610c60565b61021e610370366004612cb9565b610c7b565b6102a7610383366004612c51565b610d0e565b4661021e565b61027c61039c366004612cb9565b610d4f565b61025c610dc6565b61021e6103b736600461288d565b610dd5565b6102a7610e5c565b6102446103d2366004612cb9565b60006020819052908152604090205460ff1681565b600b546001600160a01b031661027c565b61021e610406366004612aa3565b610e92565b61025c610f3f565b6102a761042136600461288d565b610f4e565b6102a7610434366004612a21565b611005565b61021e610447366004612900565b611010565b61027c61045a366004612c85565b61126c565b6102a761046d3660046129a2565b611348565b61025c610480366004612cb9565b611380565b61021e6114e0565b61021e61049b366004612a54565b6114f6565b6102446104ae3660046128c7565b6001600160a01b03918216600090815260066020908152604080832093909416825291909152205460ff1690565b6102a76104ea36600461288d565b611545565b60006104fa826115e0565b92915050565b60606001805461050f90613090565b80601f016020809104026020016040519081016040528092919081815260200182805461053b90613090565b80156105885780601f1061055d57610100808354040283529160200191610588565b820191906000526020600020905b81548152906001019060200180831161056b57829003601f168201915b5050505050905090565b600061059d82611630565b6106035760405162461bcd60e51b815260206004820152602c60248201527f4552433732313a20617070726f76656420717565727920666f72206e6f6e657860448201526b34b9ba32b73a103a37b5b2b760a11b60648201526084015b60405180910390fd5b506000908152600560205260409020546001600160a01b031690565b600061062a82610d4f565b9050806001600160a01b0316836001600160a01b031614156106985760405162461bcd60e51b815260206004820152602160248201527f4552433732313a20617070726f76616c20746f2063757272656e74206f776e656044820152603960f91b60648201526084016105fa565b336001600160a01b03821614806106b457506106b481336104ae565b6107265760405162461bcd60e51b815260206004820152603860248201527f4552433732313a20617070726f76652063616c6c6572206973206e6f74206f7760448201527f6e6572206e6f7220617070726f76656420666f7220616c6c000000000000000060648201526084016105fa565b610730838361164d565b505050565b61073e336102e5565b61075a5760405162461bcd60e51b81526004016105fa90612e82565b61076382611630565b6107c25760405162461bcd60e51b815260206004820152602a60248201527f4552433732313a2053657474696e672055524920666f72206e6f6e2d657869736044820152693a32b73a103a37b5b2b760b11b60648201526084016105fa565b60008151116108135760405162461bcd60e51b815260206004820152601c60248201527f4552433732313a20496e76616c6964205552492070726f76696465640000000060448201526064016105fa565b6000828152600e602090815260409091208251610832928401906126cf565b507f369737eac2f50072db0001f8a5c3f225ab50d5ab38d8cbdbabf885abf2ab722a8261085d610dc6565b8360405160200161086f929190612d2e565b60408051601f198184030181529082905261088a9291612f6f565b60405180910390a15050565b60005b8251811015610730576108de8382815181106108b7576108b761314c565b60200260200101518383815181106108d1576108d161314c565b6020026020010151610735565b7f369737eac2f50072db0001f8a5c3f225ab50d5ab38d8cbdbabf885abf2ab722a8382815181106109115761091161314c565b602002602001015183838151811061092b5761092b61314c565b6020026020010151604051610941929190612f6f565b60405180910390a180610953816130c5565b915050610899565b61096533826116bb565b6109815760405162461bcd60e51b81526004016105fa90612f1e565b6107308383836117a1565b600061099783610dd5565b82106109f95760405162461bcd60e51b815260206004820152602b60248201527f455243373231456e756d657261626c653a206f776e657220696e646578206f7560448201526a74206f6620626f756e647360a81b60648201526084016105fa565b506001600160a01b03919091166000908152600760209081526040808320938352929052205490565b600b546001600160a01b03163314610a4c5760405162461bcd60e51b81526004016105fa90612e4d565b6001600160a01b0381166000908152600c602052604090205460ff16610ab45760405162461bcd60e51b815260206004820152601c60248201527f45524332303a204d696e74657220646f6573206e6f742065786973740000000060448201526064016105fa565b6001600160a01b03166000908152600c60205260409020805460ff19169055565b610ade336102e5565b610afa5760405162461bcd60e51b81526004016105fa90612e82565b6000826001600160401b03811115610b1457610b14613162565b604051908082528060200260200182016040528015610b3d578160200160208202803683370190505b5090506000836001600160401b03811115610b5a57610b5a613162565b604051908082528060200260200182016040528015610b8d57816020015b6060815260200190600190039081610b785790505b50905060005b84811015610c4e57610ba36114e0565b838281518110610bb557610bb561314c565b602090810291909101015283610bd4610bcf836001613021565b61194c565b604051602001610be5929190612d5d565b604051602081830303815290604052828281518110610c0657610c0661314c565b6020026020010181905250610c3486848381518110610c2757610c2761314c565b6020026020010151611a49565b610c3c611b88565b80610c46816130c5565b915050610b93565b50610c598282610896565b5050505050565b61073083838360405180602001604052806000815250611348565b6000610c8660095490565b8210610ce95760405162461bcd60e51b815260206004820152602c60248201527f455243373231456e756d657261626c653a20676c6f62616c20696e646578206f60448201526b7574206f6620626f756e647360a01b60648201526084016105fa565b60098281548110610cfc57610cfc61314c565b90600052602060002001549050919050565b600b546001600160a01b03163314610d385760405162461bcd60e51b81526004016105fa90612e4d565b8051610d4b90600d9060208401906126cf565b5050565b6000818152600360205260408120546001600160a01b0316806104fa5760405162461bcd60e51b815260206004820152602960248201527f4552433732313a206f776e657220717565727920666f72206e6f6e657869737460448201526832b73a103a37b5b2b760b91b60648201526084016105fa565b6060600d805461050f90613090565b60006001600160a01b038216610e405760405162461bcd60e51b815260206004820152602a60248201527f4552433732313a2062616c616e636520717565727920666f7220746865207a65604482015269726f206164647265737360b01b60648201526084016105fa565b506001600160a01b031660009081526004602052604090205490565b600b546001600160a01b03163314610e865760405162461bcd60e51b81526004016105fa90612e4d565b610e906000611b9f565b565b600080610e9e8361126c565b9050610eaa8335610d4f565b6001600160a01b0316816001600160a01b031614610eda5760405162461bcd60e51b81526004016105fa90612ed7565b610ee530843561164d565b610ef1818585356117a1565b604080516001600160a01b038084168252861660208201528435917f70eb43c4a8ae8c40502dcf22436c509c28d6ff421cf07c491be56984bd987068910160405180910390a2505035919050565b60606002805461050f90613090565b600b546001600160a01b03163314610f785760405162461bcd60e51b81526004016105fa90612e4d565b6001600160a01b0381166000908152600c602052604090205460ff1615610fe15760405162461bcd60e51b815260206004820152601b60248201527f45524332303a204d696e74657220616c7265616479206164646564000000000060448201526064016105fa565b6001600160a01b03166000908152600c60205260409020805460ff19166001179055565b610d4b338383611bf1565b6000828161101d8461126c565b6040516331a9108f60e11b8152853560048201529091506001600160a01b03831690636352211e9060240160206040518083038186803b15801561106057600080fd5b505afa158015611074573d6000803e3d6000fd5b505050506040513d601f19601f8201168201806040525081019061109891906128aa565b6001600160a01b0316816001600160a01b0316146110c85760405162461bcd60e51b81526004016105fa90612ed7565b60405163020604bf60e21b81528435600482015230906001600160a01b0384169063081812fc9060240160206040518083038186803b15801561110a57600080fd5b505afa15801561111e573d6000803e3d6000fd5b505050506040513d601f19601f8201168201806040525081019061114291906128aa565b6001600160a01b0316146111ad5760405162461bcd60e51b815260206004820152602c60248201527f5468697320636f6e747261637420686173206e6f20617070726f76616c20666f60448201526b39103a3434b9903a37b5b2b760a11b60648201526084016105fa565b6040516323b872dd60e01b81526001600160a01b0382811660048301528781166024830152853560448301528316906323b872dd90606401600060405180830381600087803b1580156111ff57600080fd5b505af1158015611213573d6000803e3d6000fd5b5050604080516001600160a01b0385811682528a8116602083015288359450891692507f111ebfff7ae758e422941bfa7b90fc5ddafbb23589ebcdf6da904a05c3422ace910160405180910390a3505090359392505050565b600081606001354211156112c25760405162461bcd60e51b815260206004820152601b60248201527f566f75636865722068617320616c72656164792065787069726564000000000060448201526064016105fa565b60408083013560009081526020819052205460ff161561131a5760405162461bcd60e51b8152602060048201526013602482015272496e76616c6964206e6f6e63652076616c756560681b60448201526064016105fa565b60408083013560009081526020819052908120805460ff1916600117905561134183611cc0565b9392505050565b61135233836116bb565b61136e5760405162461bcd60e51b81526004016105fa90612f1e565b61137a84848484611d19565b50505050565b606061138b82611630565b6113e75760405162461bcd60e51b815260206004820152602760248201527f4552433732313a2055524920717565727920666f72206e6f6e6578697374656e6044820152663a103a37b5b2b760c91b60648201526084016105fa565b6000828152600e60205260408120805461140090613090565b80601f016020809104026020016040519081016040528092919081815260200182805461142c90613090565b80156114795780601f1061144e57610100808354040283529160200191611479565b820191906000526020600020905b81548152906001019060200180831161145c57829003601f168201915b50505050509050600061148a610dc6565b905080516000141561149d575092915050565b8151156114cf5780826040516020016114b7929190612d2e565b60405160208183030381529060405292505050919050565b6114d884611d4c565b949350505050565b6000600f5460016114f19190613021565b905090565b6000611501336102e5565b61151d5760405162461bcd60e51b81526004016105fa90612e82565b60006115276114e0565b90506115338482611a49565b61153d8184610735565b611341611b88565b600b546001600160a01b0316331461156f5760405162461bcd60e51b81526004016105fa90612e4d565b6001600160a01b0381166115d45760405162461bcd60e51b815260206004820152602660248201527f4f776e61626c653a206e6577206f776e657220697320746865207a65726f206160448201526564647265737360d01b60648201526084016105fa565b6115dd81611b9f565b50565b60006001600160e01b031982166380ac58cd60e01b148061161157506001600160e01b03198216635b5e139f60e01b145b806104fa57506301ffc9a760e01b6001600160e01b03198316146104fa565b6000908152600360205260409020546001600160a01b0316151590565b600081815260056020526040902080546001600160a01b0319166001600160a01b038416908117909155819061168282610d4f565b6001600160a01b03167f8c5be1e5ebec7d5bd14f71427d1e84f3dd0314c0f7b2291e5b200ac8c7c3b92560405160405180910390a45050565b60006116c682611630565b6117275760405162461bcd60e51b815260206004820152602c60248201527f4552433732313a206f70657261746f7220717565727920666f72206e6f6e657860448201526b34b9ba32b73a103a37b5b2b760a11b60648201526084016105fa565b600061173283610d4f565b9050806001600160a01b0316846001600160a01b0316148061176d5750836001600160a01b031661176284610592565b6001600160a01b0316145b806114d857506001600160a01b0380821660009081526006602090815260408083209388168352929052205460ff166114d8565b826001600160a01b03166117b482610d4f565b6001600160a01b03161461181c5760405162461bcd60e51b815260206004820152602960248201527f4552433732313a207472616e73666572206f6620746f6b656e2074686174206960448201526839903737ba1037bbb760b91b60648201526084016105fa565b6001600160a01b03821661187e5760405162461bcd60e51b8152602060048201526024808201527f4552433732313a207472616e7366657220746f20746865207a65726f206164646044820152637265737360e01b60648201526084016105fa565b611889838383611e23565b61189460008261164d565b6001600160a01b03831660009081526004602052604081208054600192906118bd90849061304d565b90915550506001600160a01b03821660009081526004602052604081208054600192906118eb908490613021565b909155505060008181526003602052604080822080546001600160a01b0319166001600160a01b0386811691821790925591518493918716917fddf252ad1be2c89b69c2b068fc378daa952ba7f163c4a11628f55a4df523b3ef91a4505050565b6060816119705750506040805180820190915260018152600360fc1b602082015290565b8160005b811561199a5780611984816130c5565b91506119939050600a83613039565b9150611974565b6000816001600160401b038111156119b4576119b4613162565b6040519080825280601f01601f1916602001820160405280156119de576020820181803683370190505b5090505b84156114d8576119f360018361304d565b9150611a00600a866130e0565b611a0b906030613021565b60f81b818381518110611a2057611a2061314c565b60200101906001600160f81b031916908160001a905350611a42600a86613039565b94506119e2565b6001600160a01b038216611a9f5760405162461bcd60e51b815260206004820181905260248201527f4552433732313a206d696e7420746f20746865207a65726f206164647265737360448201526064016105fa565b611aa881611630565b15611af55760405162461bcd60e51b815260206004820152601c60248201527f4552433732313a20746f6b656e20616c7265616479206d696e7465640000000060448201526064016105fa565b611b0160008383611e23565b6001600160a01b0382166000908152600460205260408120805460019290611b2a908490613021565b909155505060008181526003602052604080822080546001600160a01b0319166001600160a01b03861690811790915590518392907fddf252ad1be2c89b69c2b068fc378daa952ba7f163c4a11628f55a4df523b3ef908290a45050565b600f8054906000611b98836130c5565b9190505550565b600b80546001600160a01b038381166001600160a01b0319831681179093556040519116919082907f8be0079c531659141344cd1fd0a4f28419497f9722a3daafe3b4186f6b6457e090600090a35050565b816001600160a01b0316836001600160a01b03161415611c535760405162461bcd60e51b815260206004820152601960248201527f4552433732313a20617070726f766520746f2063616c6c65720000000000000060448201526064016105fa565b6001600160a01b03838116600081815260066020908152604080832094871680845294825291829020805460ff191686151590811790915591519182527f17307eab39ab6107e8899845ad3d59bd9653f200f220920489ca2b5937696c31910160405180910390a3505050565b600080611ccc83611edb565b905061134181611cdf6080860186612f88565b8080601f016020809104026020016040519081016040528093929190818152602001838380828437600092019190915250611f5292505050565b611d248484846117a1565b611d3084848484611f76565b61137a5760405162461bcd60e51b81526004016105fa90612dfb565b6060611d5782611630565b611dbb5760405162461bcd60e51b815260206004820152602f60248201527f4552433732314d657461646174613a2055524920717565727920666f72206e6f60448201526e3732bc34b9ba32b73a103a37b5b2b760891b60648201526084016105fa565b6000611dd260408051602081019091526000815290565b90506000815111611df25760405180602001604052806000815250611341565b80611dfc8461194c565b604051602001611e0d929190612d2e565b6040516020818303038152906040529392505050565b6001600160a01b038316611e7e57611e7981600980546000838152600a60205260408120829055600182018355919091527f6e1540171b6c0c960b71a7020d9f60077f6af931a8bbf590da0223dacf75c7af0155565b611ea1565b816001600160a01b0316836001600160a01b031614611ea157611ea18382612083565b6001600160a01b038216611eb85761073081612120565b826001600160a01b0316826001600160a01b0316146107305761073082826121cf565b604080517f9351747b1e9d1d5ecc2259decffb60239f521e243e85645e0762ed1d775876776020828101919091528335828401528301356060828101919091529183013560808201529082013560a08201526000906104fa9060c00160405160208183030381529060405280519060200120612213565b6000806000611f618585612261565b91509150611f6e816122d1565b509392505050565b60006001600160a01b0384163b1561207857604051630a85bd0160e11b81526001600160a01b0385169063150b7a0290611fba903390899088908890600401612dab565b602060405180830381600087803b158015611fd457600080fd5b505af1925050508015612004575060408051601f3d908101601f1916820190925261200191810190612c34565b60015b61205e573d808015612032576040519150601f19603f3d011682016040523d82523d6000602084013e612037565b606091505b5080516120565760405162461bcd60e51b81526004016105fa90612dfb565b805181602001fd5b6001600160e01b031916630a85bd0160e11b1490506114d8565b506001949350505050565b6000600161209084610dd5565b61209a919061304d565b6000838152600860205260409020549091508082146120ed576001600160a01b03841660009081526007602090815260408083208584528252808320548484528184208190558352600890915290208190555b5060009182526008602090815260408084208490556001600160a01b039094168352600781528383209183525290812055565b6009546000906121329060019061304d565b6000838152600a60205260408120546009805493945090928490811061215a5761215a61314c565b90600052602060002001549050806009838154811061217b5761217b61314c565b6000918252602080832090910192909255828152600a909152604080822084905585825281205560098054806121b3576121b3613136565b6001900381819060005260206000200160009055905550505050565b60006121da83610dd5565b6001600160a01b039093166000908152600760209081526040808320868452825280832085905593825260089052919091209190915550565b60006104fa61222061248c565b8360405161190160f01b6020820152602281018390526042810182905260009060620160405160208183030381529060405280519060200120905092915050565b6000808251604114156122985760208301516040840151606085015160001a61228c878285856125b3565b945094505050506122ca565b8251604014156122c257602083015160408401516122b78683836126a0565b9350935050506122ca565b506000905060025b9250929050565b60008160048111156122e5576122e5613120565b14156122ee5750565b600181600481111561230257612302613120565b14156123505760405162461bcd60e51b815260206004820152601860248201527f45434453413a20696e76616c6964207369676e6174757265000000000000000060448201526064016105fa565b600281600481111561236457612364613120565b14156123b25760405162461bcd60e51b815260206004820152601f60248201527f45434453413a20696e76616c6964207369676e6174757265206c656e6774680060448201526064016105fa565b60038160048111156123c6576123c6613120565b141561241f5760405162461bcd60e51b815260206004820152602260248201527f45434453413a20696e76616c6964207369676e6174757265202773272076616c604482015261756560f01b60648201526084016105fa565b600481600481111561243357612433613120565b14156115dd5760405162461bcd60e51b815260206004820152602260248201527f45434453413a20696e76616c6964207369676e6174757265202776272076616c604482015261756560f01b60648201526084016105fa565b6000306001600160a01b037f0000000000000000000000000000000000000000000000000000000000000000161480156124e557507f000000000000000000000000000000000000000000000000000000000000000046145b1561250f57507f000000000000000000000000000000000000000000000000000000000000000090565b50604080517f00000000000000000000000000000000000000000000000000000000000000006020808301919091527f0000000000000000000000000000000000000000000000000000000000000000828401527f000000000000000000000000000000000000000000000000000000000000000060608301524660808301523060a0808401919091528351808403909101815260c0909201909252805191012090565b6000807f7fffffffffffffffffffffffffffffff5d576e7357a4501ddfe92f46681b20a08311156125ea5750600090506003612697565b8460ff16601b1415801561260257508460ff16601c14155b156126135750600090506004612697565b6040805160008082526020820180845289905260ff881692820192909252606081018690526080810185905260019060a0016020604051602081039080840390855afa158015612667573d6000803e3d6000fd5b5050604051601f1901519150506001600160a01b03811661269057600060019250925050612697565b9150600090505b94509492505050565b6000806001600160ff1b03831660ff84901c601b016126c1878288856125b3565b935093505050935093915050565b8280546126db90613090565b90600052602060002090601f0160209004810192826126fd5760008555612743565b82601f1061271657805160ff1916838001178555612743565b82800160010185558215612743579182015b82811115612743578251825591602001919060010190612728565b5061274f929150612753565b5090565b5b8082111561274f5760008155600101612754565b60006001600160401b0383111561278157612781613162565b612794601f8401601f1916602001612fce565b90508281528383830111156127a857600080fd5b828260208301376000602084830101529392505050565b600082601f8301126127d057600080fd5b813560206127e56127e083612ffe565b612fce565b80838252828201915082860187848660051b890101111561280557600080fd5b6000805b868110156128475782356001600160401b03811115612826578283fd5b6128348b88838d0101612855565b8652509385019391850191600101612809565b509198975050505050505050565b600082601f83011261286657600080fd5b61134183833560208501612768565b600060a0828403121561288757600080fd5b50919050565b60006020828403121561289f57600080fd5b813561134181613178565b6000602082840312156128bc57600080fd5b815161134181613178565b600080604083850312156128da57600080fd5b82356128e581613178565b915060208301356128f581613178565b809150509250929050565b60008060006060848603121561291557600080fd5b833561292081613178565b9250602084013561293081613178565b915060408401356001600160401b0381111561294b57600080fd5b61295786828701612875565b9150509250925092565b60008060006060848603121561297657600080fd5b833561298181613178565b9250602084013561299181613178565b929592945050506040919091013590565b600080600080608085870312156129b857600080fd5b84356129c381613178565b935060208501356129d381613178565b92506040850135915060608501356001600160401b038111156129f557600080fd5b8501601f81018713612a0657600080fd5b612a1587823560208401612768565b91505092959194509250565b60008060408385031215612a3457600080fd5b8235612a3f81613178565b9150602083013580151581146128f557600080fd5b60008060408385031215612a6757600080fd5b8235612a7281613178565b915060208301356001600160401b03811115612a8d57600080fd5b612a9985828601612855565b9150509250929050565b60008060408385031215612ab657600080fd5b8235612ac181613178565b915060208301356001600160401b03811115612adc57600080fd5b612a9985828601612875565b60008060408385031215612afb57600080fd5b8235612b0681613178565b946020939093013593505050565b600080600060608486031215612b2957600080fd5b8335612b3481613178565b92506020840135915060408401356001600160401b03811115612b5657600080fd5b61295786828701612855565b60008060408385031215612b7557600080fd5b82356001600160401b0380821115612b8c57600080fd5b818501915085601f830112612ba057600080fd5b81356020612bb06127e083612ffe565b8083825282820191508286018a848660051b8901011115612bd057600080fd5b600096505b84871015612bf3578035835260019690960195918301918301612bd5565b5096505086013592505080821115612c0a57600080fd5b50612a99858286016127bf565b600060208284031215612c2957600080fd5b81356113418161318d565b600060208284031215612c4657600080fd5b81516113418161318d565b600060208284031215612c6357600080fd5b81356001600160401b03811115612c7957600080fd5b6114d884828501612855565b600060208284031215612c9757600080fd5b81356001600160401b03811115612cad57600080fd5b6114d884828501612875565b600060208284031215612ccb57600080fd5b5035919050565b60008060408385031215612ce557600080fd5b8235915060208301356001600160401b03811115612a8d57600080fd5b60008151808452612d1a816020860160208601613064565b601f01601f19169290920160200192915050565b60008351612d40818460208801613064565b835190830190612d54818360208801613064565b01949350505050565b60008351612d6f818460208801613064565b602f60f81b9083019081528351612d8d816001840160208801613064565b64173539b7b760d91b60019290910191820152600601949350505050565b6001600160a01b0385811682528416602082015260408101839052608060608201819052600090612dde90830184612d02565b9695505050505050565b6020815260006113416020830184612d02565b60208082526032908201527f4552433732313a207472616e7366657220746f206e6f6e20455243373231526560408201527131b2b4bb32b91034b6b83632b6b2b73a32b960711b606082015260800190565b6020808252818101527f4f776e61626c653a2063616c6c6572206973206e6f7420746865206f776e6572604082015260600190565b60208082526035908201527f4552433732313a204f6e6c79207768697465206c6973746564206d696e7465726040820152741cc8185c9948185b1b1bddd959081d1bc81b5a5b9d605a1b606082015260800190565b60208082526027908201527f417574686f72697a6174696f6e206661696c65643a20496e76616c6964207369604082015266676e617475726560c81b606082015260800190565b60208082526031908201527f4552433732313a207472616e736665722063616c6c6572206973206e6f74206f6040820152701ddb995c881b9bdc88185c1c1c9bdd9959607a1b606082015260800190565b8281526040602082015260006114d86040830184612d02565b6000808335601e19843603018112612f9f57600080fd5b8301803591506001600160401b03821115612fb957600080fd5b6020019150368190038213156122ca57600080fd5b604051601f8201601f191681016001600160401b0381118282101715612ff657612ff6613162565b604052919050565b60006001600160401b0382111561301757613017613162565b5060051b60200190565b60008219821115613034576130346130f4565b500190565b6000826130485761304861310a565b500490565b60008282101561305f5761305f6130f4565b500390565b60005b8381101561307f578181015183820152602001613067565b8381111561137a5750506000910152565b600181811c908216806130a457607f821691505b6020821081141561288757634e487b7160e01b600052602260045260246000fd5b60006000198214156130d9576130d96130f4565b5060010190565b6000826130ef576130ef61310a565b500690565b634e487b7160e01b600052601160045260246000fd5b634e487b7160e01b600052601260045260246000fd5b634e487b7160e01b600052602160045260246000fd5b634e487b7160e01b600052603160045260246000fd5b634e487b7160e01b600052603260045260246000fd5b634e487b7160e01b600052604160045260246000fd5b6001600160a01b03811681146115dd57600080fd5b6001600160e01b0319811681146115dd57600080fdfea264697066735822122066b4a955601752e495af22a3d9fc99afb65609205dffd0df35bbcaed4252018f64736f6c634300080700334f776e61626c653a2063616c6c6572206973206e6f7420746865206f776e6572",
  "linkReferences": {},
  "deployedLinkReferences": {}
}