{
  "contractName": "WebaverseERC721",
  "abi": [
    {
      "inputs": [
        {
          "internalType": "string",
          "name": "name",
          "type": "string"
        },
        {
          "internalType": "string",
          "name": "symbol",
          "type": "string"
        },
        {
          "internalType": "string",
          "name": "baseURI_",
          "type": "string"
        }
      ],
      "stateMutability": "nonpayable",
      "type": "constructor"
    },
    {
      "anonymous": false,
      "inputs": [
        {
          "indexed": true,
          "internalType": "address",
          "name": "owner",
          "type": "address"
        },
        {
          "indexed": true,
          "internalType": "address",
          "name": "approved",
          "type": "address"
        },
        {
          "indexed": true,
          "internalType": "uint256",
          "name": "tokenId",
          "type": "uint256"
        }
      ],
      "name": "Approval",
      "type": "event"
    },
    {
      "anonymous": false,
      "inputs": [
        {
          "indexed": true,
          "internalType": "address",
          "name": "owner",
          "type": "address"
        },
        {
          "indexed": true,
          "internalType": "address",
          "name": "operator",
          "type": "address"
        },
        {
          "indexed": false,
          "internalType": "bool",
          "name": "approved",
          "type": "bool"
        }
      ],
      "name": "ApprovalForAll",
      "type": "event"
    },
    {
      "anonymous": false,
      "inputs": [
        {
          "indexed": false,
          "internalType": "address",
          "name": "signer",
          "type": "address"
        },
        {
          "indexed": false,
          "internalType": "address",
          "name": "claimer",
          "type": "address"
        },
        {
          "indexed": true,
          "internalType": "uint256",
          "name": "id",
          "type": "uint256"
        }
      ],
      "name": "Claim",
      "type": "event"
    },
    {
      "anonymous": false,
      "inputs": [
        {
          "indexed": true,
          "internalType": "address",
          "name": "externalContract",
          "type": "address"
        },
        {
          "indexed": false,
          "internalType": "address",
          "name": "signer",
          "type": "address"
        },
        {
          "indexed": false,
          "internalType": "address",
          "name": "claimer",
          "type": "address"
        },
        {
          "indexed": true,
          "internalType": "uint256",
          "name": "id",
          "type": "uint256"
        }
      ],
      "name": "ExternalClaim",
      "type": "event"
    },
    {
      "anonymous": false,
      "inputs": [
        {
          "indexed": false,
          "internalType": "string",
          "name": "oldHash",
          "type": "string"
        },
        {
          "indexed": false,
          "internalType": "string",
          "name": "newHash",
          "type": "string"
        }
      ],
      "name": "HashUpdate",
      "type": "event"
    },
    {
      "anonymous": false,
      "inputs": [
        {
          "indexed": false,
          "internalType": "string",
          "name": "hash",
          "type": "string"
        },
        {
          "indexed": false,
          "internalType": "string",
          "name": "key",
          "type": "string"
        },
        {
          "indexed": false,
          "internalType": "string",
          "name": "value",
          "type": "string"
        }
      ],
      "name": "MetadataSet",
      "type": "event"
    },
    {
      "anonymous": false,
      "inputs": [
        {
          "indexed": true,
          "internalType": "address",
          "name": "previousOwner",
          "type": "address"
        },
        {
          "indexed": true,
          "internalType": "address",
          "name": "newOwner",
          "type": "address"
        }
      ],
      "name": "OwnershipTransferred",
      "type": "event"
    },
    {
      "anonymous": false,
      "inputs": [
        {
          "indexed": false,
          "internalType": "uint256",
          "name": "tokenId",
          "type": "uint256"
        },
        {
          "indexed": false,
          "internalType": "string",
          "name": "key",
          "type": "string"
        },
        {
          "indexed": false,
          "internalType": "string",
          "name": "value",
          "type": "string"
        }
      ],
      "name": "SingleMetadataSet",
      "type": "event"
    },
    {
      "anonymous": false,
      "inputs": [
        {
          "indexed": true,
          "internalType": "address",
          "name": "from",
          "type": "address"
        },
        {
          "indexed": true,
          "internalType": "address",
          "name": "to",
          "type": "address"
        },
        {
          "indexed": true,
          "internalType": "uint256",
          "name": "tokenId",
          "type": "uint256"
        }
      ],
      "name": "Transfer",
      "type": "event"
    },
    {
      "inputs": [
        {
          "internalType": "address",
          "name": "to",
          "type": "address"
        },
        {
          "internalType": "uint256",
          "name": "tokenId",
          "type": "uint256"
        }
      ],
      "name": "approve",
      "outputs": [],
      "stateMutability": "nonpayable",
      "type": "function"
    },
    {
      "inputs": [
        {
          "internalType": "address",
          "name": "owner",
          "type": "address"
        }
      ],
      "name": "balanceOf",
      "outputs": [
        {
          "internalType": "uint256",
          "name": "",
          "type": "uint256"
        }
      ],
      "stateMutability": "view",
      "type": "function"
    },
    {
      "inputs": [
        {
          "internalType": "uint256",
          "name": "",
          "type": "uint256"
        }
      ],
      "name": "burnedNonces",
      "outputs": [
        {
          "internalType": "bool",
          "name": "",
          "type": "bool"
        }
      ],
      "stateMutability": "view",
      "type": "function"
    },
    {
      "inputs": [],
      "name": "currentTokenId",
      "outputs": [
        {
          "internalType": "uint256",
          "name": "",
          "type": "uint256"
        }
      ],
      "stateMutability": "view",
      "type": "function"
    },
    {
      "inputs": [
        {
          "internalType": "uint256",
          "name": "tokenId",
          "type": "uint256"
        }
      ],
      "name": "getApproved",
      "outputs": [
        {
          "internalType": "address",
          "name": "",
          "type": "address"
        }
      ],
      "stateMutability": "view",
      "type": "function"
    },
    {
      "inputs": [
        {
          "internalType": "address",
          "name": "owner",
          "type": "address"
        },
        {
          "internalType": "address",
          "name": "operator",
          "type": "address"
        }
      ],
      "name": "isApprovedForAll",
      "outputs": [
        {
          "internalType": "bool",
          "name": "",
          "type": "bool"
        }
      ],
      "stateMutability": "view",
      "type": "function"
    },
    {
      "inputs": [],
      "name": "name",
      "outputs": [
        {
          "internalType": "string",
          "name": "",
          "type": "string"
        }
      ],
      "stateMutability": "view",
      "type": "function"
    },
    {
      "inputs": [],
      "name": "owner",
      "outputs": [
        {
          "internalType": "address",
          "name": "",
          "type": "address"
        }
      ],
      "stateMutability": "view",
      "type": "function"
    },
    {
      "inputs": [
        {
          "internalType": "uint256",
          "name": "tokenId",
          "type": "uint256"
        }
      ],
      "name": "ownerOf",
      "outputs": [
        {
          "internalType": "address",
          "name": "",
          "type": "address"
        }
      ],
      "stateMutability": "view",
      "type": "function"
    },
    {
      "inputs": [],
      "name": "renounceOwnership",
      "outputs": [],
      "stateMutability": "nonpayable",
      "type": "function"
    },
    {
      "inputs": [
        {
          "internalType": "address",
          "name": "from",
          "type": "address"
        },
        {
          "internalType": "address",
          "name": "to",
          "type": "address"
        },
        {
          "internalType": "uint256",
          "name": "tokenId",
          "type": "uint256"
        }
      ],
      "name": "safeTransferFrom",
      "outputs": [],
      "stateMutability": "nonpayable",
      "type": "function"
    },
    {
      "inputs": [
        {
          "internalType": "address",
          "name": "from",
          "type": "address"
        },
        {
          "internalType": "address",
          "name": "to",
          "type": "address"
        },
        {
          "internalType": "uint256",
          "name": "tokenId",
          "type": "uint256"
        },
        {
          "internalType": "bytes",
          "name": "_data",
          "type": "bytes"
        }
      ],
      "name": "safeTransferFrom",
      "outputs": [],
      "stateMutability": "nonpayable",
      "type": "function"
    },
    {
      "inputs": [
        {
          "internalType": "address",
          "name": "operator",
          "type": "address"
        },
        {
          "internalType": "bool",
          "name": "approved",
          "type": "bool"
        }
      ],
      "name": "setApprovalForAll",
      "outputs": [],
      "stateMutability": "nonpayable",
      "type": "function"
    },
    {
      "inputs": [],
      "name": "symbol",
      "outputs": [
        {
          "internalType": "string",
          "name": "",
          "type": "string"
        }
      ],
      "stateMutability": "view",
      "type": "function"
    },
    {
      "inputs": [
        {
          "internalType": "uint256",
          "name": "index",
          "type": "uint256"
        }
      ],
      "name": "tokenByIndex",
      "outputs": [
        {
          "internalType": "uint256",
          "name": "",
          "type": "uint256"
        }
      ],
      "stateMutability": "view",
      "type": "function"
    },
    {
      "inputs": [
        {
          "internalType": "address",
          "name": "owner",
          "type": "address"
        },
        {
          "internalType": "uint256",
          "name": "index",
          "type": "uint256"
        }
      ],
      "name": "tokenOfOwnerByIndex",
      "outputs": [
        {
          "internalType": "uint256",
          "name": "",
          "type": "uint256"
        }
      ],
      "stateMutability": "view",
      "type": "function"
    },
    {
      "inputs": [
        {
          "internalType": "uint256",
          "name": "tokenId",
          "type": "uint256"
        }
      ],
      "name": "tokenURI",
      "outputs": [
        {
          "internalType": "string",
          "name": "",
          "type": "string"
        }
      ],
      "stateMutability": "view",
      "type": "function"
    },
    {
      "inputs": [],
      "name": "totalSupply",
      "outputs": [
        {
          "internalType": "uint256",
          "name": "",
          "type": "uint256"
        }
      ],
      "stateMutability": "view",
      "type": "function"
    },
    {
      "inputs": [
        {
          "internalType": "address",
          "name": "from",
          "type": "address"
        },
        {
          "internalType": "address",
          "name": "to",
          "type": "address"
        },
        {
          "internalType": "uint256",
          "name": "tokenId",
          "type": "uint256"
        }
      ],
      "name": "transferFrom",
      "outputs": [],
      "stateMutability": "nonpayable",
      "type": "function"
    },
    {
      "inputs": [
        {
          "internalType": "address",
          "name": "newOwner",
          "type": "address"
        }
      ],
      "name": "transferOwnership",
      "outputs": [],
      "stateMutability": "nonpayable",
      "type": "function"
    },
    {
      "inputs": [
        {
          "components": [
            {
              "internalType": "uint256",
              "name": "tokenId",
              "type": "uint256"
            },
            {
              "internalType": "uint256",
              "name": "balance",
              "type": "uint256"
            },
            {
              "internalType": "uint256",
              "name": "nonce",
              "type": "uint256"
            },
            {
              "internalType": "uint256",
              "name": "expiry",
              "type": "uint256"
            },
            {
              "internalType": "bytes",
              "name": "signature",
              "type": "bytes"
            }
          ],
          "internalType": "struct WBVRSVoucher.NFTVoucher",
          "name": "voucher",
          "type": "tuple"
        }
      ],
      "name": "verifyVoucher",
      "outputs": [
        {
          "internalType": "address",
          "name": "",
          "type": "address"
        }
      ],
      "stateMutability": "nonpayable",
      "type": "function"
    },
    {
      "inputs": [],
      "name": "baseURI",
      "outputs": [
        {
          "internalType": "string",
          "name": "",
          "type": "string"
        }
      ],
      "stateMutability": "view",
      "type": "function"
    },
    {
      "inputs": [
        {
          "internalType": "string",
          "name": "baseURI_",
          "type": "string"
        }
      ],
      "name": "setBaseURI",
      "outputs": [],
      "stateMutability": "nonpayable",
      "type": "function"
    },
    {
      "inputs": [
        {
          "internalType": "address",
          "name": "to",
          "type": "address"
        },
        {
          "internalType": "string",
          "name": "hash",
          "type": "string"
        },
        {
          "internalType": "string",
          "name": "name",
          "type": "string"
        },
        {
          "internalType": "string",
          "name": "ext",
          "type": "string"
        },
        {
          "internalType": "string",
          "name": "description",
          "type": "string"
        }
      ],
      "name": "mint",
      "outputs": [
        {
          "internalType": "uint256",
          "name": "",
          "type": "uint256"
        }
      ],
      "stateMutability": "nonpayable",
      "type": "function"
    },
    {
      "inputs": [
        {
          "internalType": "address",
          "name": "to",
          "type": "address"
        },
        {
          "internalType": "string[]",
          "name": "hash",
          "type": "string[]"
        },
        {
          "internalType": "string[]",
          "name": "name",
          "type": "string[]"
        },
        {
          "internalType": "string[]",
          "name": "ext",
          "type": "string[]"
        },
        {
          "internalType": "string[]",
          "name": "description",
          "type": "string[]"
        },
        {
          "internalType": "uint256",
          "name": "tokenCount",
          "type": "uint256"
        }
      ],
      "name": "mintBatch",
      "outputs": [],
      "stateMutability": "nonpayable",
      "type": "function"
    },
    {
      "inputs": [
        {
          "internalType": "string",
          "name": "hash",
          "type": "string"
        },
        {
          "internalType": "string",
          "name": "key",
          "type": "string"
        }
      ],
      "name": "getMetadata",
      "outputs": [
        {
          "internalType": "string",
          "name": "",
          "type": "string"
        }
      ],
      "stateMutability": "view",
      "type": "function"
    },
    {
      "inputs": [
        {
          "internalType": "string",
          "name": "hash",
          "type": "string"
        },
        {
          "internalType": "string",
          "name": "key",
          "type": "string"
        },
        {
          "internalType": "string",
          "name": "value",
          "type": "string"
        }
      ],
      "name": "setMetadata",
      "outputs": [],
      "stateMutability": "nonpayable",
      "type": "function"
    },
    {
      "inputs": [
        {
          "internalType": "uint256",
          "name": "tokenId",
          "type": "uint256"
        },
        {
          "internalType": "string",
          "name": "key",
          "type": "string"
        }
      ],
      "name": "getSingleMetadata",
      "outputs": [
        {
          "internalType": "string",
          "name": "",
          "type": "string"
        }
      ],
      "stateMutability": "view",
      "type": "function"
    },
    {
      "inputs": [
        {
          "internalType": "uint256",
          "name": "tokenId",
          "type": "uint256"
        },
        {
          "internalType": "string",
          "name": "key",
          "type": "string"
        },
        {
          "internalType": "string",
          "name": "value",
          "type": "string"
        }
      ],
      "name": "setSingleMetadata",
      "outputs": [],
      "stateMutability": "nonpayable",
      "type": "function"
    },
    {
      "inputs": [
        {
          "internalType": "string",
          "name": "hash",
          "type": "string"
        }
      ],
      "name": "getTokenIdFromHash",
      "outputs": [
        {
          "internalType": "uint256",
          "name": "",
          "type": "uint256"
        }
      ],
      "stateMutability": "view",
      "type": "function"
    },
    {
      "inputs": [
        {
          "internalType": "uint256",
          "name": "tokenId",
          "type": "uint256"
        }
      ],
      "name": "getHashFromTokenId",
      "outputs": [
        {
          "internalType": "string",
          "name": "",
          "type": "string"
        }
      ],
      "stateMutability": "view",
      "type": "function"
    },
    {
      "inputs": [
        {
          "internalType": "string",
          "name": "oldHash",
          "type": "string"
        },
        {
          "internalType": "string",
          "name": "newHash",
          "type": "string"
        }
      ],
      "name": "updateHash",
      "outputs": [],
      "stateMutability": "nonpayable",
      "type": "function"
    },
    {
      "inputs": [
        {
          "internalType": "address",
          "name": "owner",
          "type": "address"
        }
      ],
      "name": "getTokenIdsOf",
      "outputs": [
        {
          "internalType": "uint256[]",
          "name": "",
          "type": "uint256[]"
        }
      ],
      "stateMutability": "view",
      "type": "function"
    },
    {
      "inputs": [
        {
          "internalType": "uint256",
          "name": "tokenId",
          "type": "uint256"
        }
      ],
      "name": "tokenByIdFull",
      "outputs": [
        {
          "components": [
            {
              "internalType": "uint256",
              "name": "id",
              "type": "uint256"
            },
            {
              "internalType": "string",
              "name": "hash",
              "type": "string"
            },
            {
              "internalType": "string",
              "name": "name",
              "type": "string"
            },
            {
              "internalType": "string",
              "name": "ext",
              "type": "string"
            },
            {
              "internalType": "address",
              "name": "minter",
              "type": "address"
            },
            {
              "internalType": "address",
              "name": "owner",
              "type": "address"
            }
          ],
          "internalType": "struct WebaverseERC721.Token",
          "name": "",
          "type": "tuple"
        }
      ],
      "stateMutability": "view",
      "type": "function"
    },
    {
      "inputs": [
        {
          "internalType": "address",
          "name": "owner",
          "type": "address"
        },
        {
          "internalType": "uint256",
          "name": "index",
          "type": "uint256"
        }
      ],
      "name": "tokenOfOwnerByIndexFull",
      "outputs": [
        {
          "components": [
            {
              "internalType": "uint256",
              "name": "id",
              "type": "uint256"
            },
            {
              "internalType": "string",
              "name": "hash",
              "type": "string"
            },
            {
              "internalType": "string",
              "name": "name",
              "type": "string"
            },
            {
              "internalType": "string",
              "name": "ext",
              "type": "string"
            },
            {
              "internalType": "address",
              "name": "minter",
              "type": "address"
            },
            {
              "internalType": "address",
              "name": "owner",
              "type": "address"
            }
          ],
          "internalType": "struct WebaverseERC721.Token",
          "name": "",
          "type": "tuple"
        }
      ],
      "stateMutability": "view",
      "type": "function"
    },
    {
      "inputs": [
        {
          "internalType": "address",
          "name": "claimer",
          "type": "address"
        },
        {
          "components": [
            {
              "internalType": "uint256",
              "name": "tokenId",
              "type": "uint256"
            },
            {
              "internalType": "uint256",
              "name": "balance",
              "type": "uint256"
            },
            {
              "internalType": "uint256",
              "name": "nonce",
              "type": "uint256"
            },
            {
              "internalType": "uint256",
              "name": "expiry",
              "type": "uint256"
            },
            {
              "internalType": "bytes",
              "name": "signature",
              "type": "bytes"
            }
          ],
          "internalType": "struct WBVRSVoucher.NFTVoucher",
          "name": "voucher",
          "type": "tuple"
        }
      ],
      "name": "claim",
      "outputs": [
        {
          "internalType": "uint256",
          "name": "",
          "type": "uint256"
        }
      ],
      "stateMutability": "nonpayable",
      "type": "function"
    },
    {
      "inputs": [
        {
          "internalType": "address",
          "name": "claimer",
          "type": "address"
        },
        {
          "internalType": "address",
          "name": "externalContractAddress",
          "type": "address"
        },
        {
          "components": [
            {
              "internalType": "uint256",
              "name": "tokenId",
              "type": "uint256"
            },
            {
              "internalType": "uint256",
              "name": "balance",
              "type": "uint256"
            },
            {
              "internalType": "uint256",
              "name": "nonce",
              "type": "uint256"
            },
            {
              "internalType": "uint256",
              "name": "expiry",
              "type": "uint256"
            },
            {
              "internalType": "bytes",
              "name": "signature",
              "type": "bytes"
            }
          ],
          "internalType": "struct WBVRSVoucher.NFTVoucher",
          "name": "voucher",
          "type": "tuple"
        }
      ],
      "name": "externalClaim",
      "outputs": [
        {
          "internalType": "uint256",
          "name": "",
          "type": "uint256"
        }
      ],
      "stateMutability": "nonpayable",
      "type": "function"
    },
    {
      "inputs": [
        {
          "internalType": "address",
          "name": "account",
          "type": "address"
        }
      ],
      "name": "isAllowedMinter",
      "outputs": [
        {
          "internalType": "bool",
          "name": "",
          "type": "bool"
        }
      ],
      "stateMutability": "view",
      "type": "function"
    },
    {
      "inputs": [
        {
          "internalType": "address",
          "name": "minter",
          "type": "address"
        }
      ],
      "name": "addMinter",
      "outputs": [],
      "stateMutability": "nonpayable",
      "type": "function"
    },
    {
      "inputs": [
        {
          "internalType": "address",
          "name": "minter",
          "type": "address"
        }
      ],
      "name": "removeMinter",
      "outputs": [],
      "stateMutability": "nonpayable",
      "type": "function"
    },
    {
      "inputs": [],
      "name": "getNextTokenId",
      "outputs": [
        {
          "internalType": "uint256",
          "name": "",
          "type": "uint256"
        }
      ],
      "stateMutability": "view",
      "type": "function"
    },
    {
      "inputs": [],
      "name": "getChainID",
      "outputs": [
        {
          "internalType": "uint256",
          "name": "",
          "type": "uint256"
        }
      ],
      "stateMutability": "view",
      "type": "function"
    },
    {
      "inputs": [
        {
          "internalType": "bytes4",
          "name": "interfaceId",
          "type": "bytes4"
        }
      ],
      "name": "supportsInterface",
      "outputs": [
        {
          "internalType": "bool",
          "name": "",
          "type": "bool"
        }
      ],
      "stateMutability": "view",
      "type": "function"
    }
  ],
  "bytecode": "0x6101206040523480156200001257600080fd5b506040516200462838038062004628833981016040819052620000359162000471565b60408051808201825260118152702bb2b130bb32b939b296bb37bab1b432b960791b60208083019182528351808501855260018152603160f81b81830152835190922060c08181527fc89efdaa54c0f20c7adf612882df0950f5a951637e0307cdcb4c672f298b8bc660e08190524660a081815288517f8b73c3c69bb8fe3d512ecc4cf759cc79239f7b179b0ffacaa9a75d522b39400f818801819052818b01879052606082018590526080820193909352308183015289518082039092018252909301909752815191909301208895889594939160805261010052505083516200012a925060019150602085019062000314565b5080516200014090600290602084019062000314565b5050506200015d620001576200017c60201b60201c565b62000180565b6200016881620001d2565b62000173336200023a565b50505062000555565b3390565b600b80546001600160a01b038381166001600160a01b0319831681179093556040519116919082907f8be0079c531659141344cd1fd0a4f28419497f9722a3daafe3b4186f6b6457e090600090a35050565b600b546001600160a01b03163314620002215760405162461bcd60e51b815260206004820181905260248201526000805160206200460883398151915260448201526064015b60405180910390fd5b80516200023690600d90602084019062000314565b5050565b600b546001600160a01b03163314620002855760405162461bcd60e51b8152602060048201819052602482015260008051602062004608833981519152604482015260640162000218565b6001600160a01b0381166000908152600c602052604090205460ff1615620002f05760405162461bcd60e51b815260206004820152601b60248201527f45524332303a204d696e74657220616c72656164792061646465640000000000604482015260640162000218565b6001600160a01b03166000908152600c60205260409020805460ff19166001179055565b828054620003229062000502565b90600052602060002090601f01602090048101928262000346576000855562000391565b82601f106200036157805160ff191683800117855562000391565b8280016001018555821562000391579182015b828111156200039157825182559160200191906001019062000374565b506200039f929150620003a3565b5090565b5b808211156200039f5760008155600101620003a4565b600082601f830112620003cc57600080fd5b81516001600160401b0380821115620003e957620003e96200053f565b604051601f8301601f19908116603f011681019082821181831017156200041457620004146200053f565b816040528381526020925086838588010111156200043157600080fd5b600091505b8382101562000455578582018301518183018401529082019062000436565b83821115620004675760008385830101525b9695505050505050565b6000806000606084860312156200048757600080fd5b83516001600160401b03808211156200049f57600080fd5b620004ad87838801620003ba565b94506020860151915080821115620004c457600080fd5b620004d287838801620003ba565b93506040860151915080821115620004e957600080fd5b50620004f886828701620003ba565b9150509250925092565b600181811c908216806200051757607f821691505b602082108114156200053957634e487b7160e01b600052602260045260246000fd5b50919050565b634e487b7160e01b600052604160045260246000fd5b60805160a05160c05160e0516101005161406e6200059a6000396000612f9201526000612fe101526000612fbc01526000612f4001526000612f69015261406e6000f3fe608060405234801561001057600080fd5b50600436106102675760003560e01c80636352211e11610151578063a22cb465116100c3578063c87b56dd11610087578063c87b56dd1461054f578063caa0f92a14610562578063e985e9c51461056a578063ea640c95146105a6578063eacc4c6e146105b9578063f2fde38b146105cc57600080fd5b8063a22cb465146104f0578063a40d1b1014610503578063a8689ce214610516578063ad637e6714610529578063b88d4fde1461053c57600080fd5b80637e2499cc116101155780637e2499cc1461047b578063831013ba1461049e5780638da5cb5b146104b15780639468f2ca146104c257806395d89b41146104d5578063983b2d56146104dd57600080fd5b80636352211e146104325780636c0360eb146104455780636cd97dec1461044d57806370a0823114610460578063715018a61461047357600080fd5b80631f3b4c90116101ea57806342842e0e116101ae57806342842e0e146103c05780634ca9a979146103d35780634f6ccce7146103e65780635324f9aa146103f957806355f804b314610419578063564b81ef1461042c57600080fd5b80631f3b4c901461036157806323b872dd146103745780632f745c59146103875780633092afd51461039a5780633a0b1f8e146103ad57600080fd5b8063081812fc11610231578063081812fc146102f35780630890d80c1461031e578063095ea7b3146103335780630c9fe5271461034657806318160ddd1461035957600080fd5b80629a9b7b1461026c578062c11be71461028857806301ffc9a7146102a857806306fdde03146102cb578063076c88a2146102d3575b600080fd5b610275600e5481565b6040519081526020015b60405180910390f35b61029b610296366004613a3c565b6105df565b60405161027f9190613bb2565b6102bb6102b63660046138c4565b610681565b604051901515815260200161027f565b61029b610692565b6102e66102e1366004613898565b610724565b60405161027f9190613d82565b610306610301366004613a3c565b61087a565b6040516001600160a01b03909116815260200161027f565b61033161032c36600461398b565b610914565b005b610331610341366004613898565b610bbf565b6102e6610354366004613a3c565b610cd5565b600954610275565b6102bb61036f3660046134fe565b610e4e565b6103316103823660046135d2565b610e6c565b610275610395366004613898565b610e9d565b6103316103a83660046134fe565b610f33565b6103316103bb366004613a91565b610fd3565b6103316103ce3660046135d2565b61114e565b6103316103e1366004613932565b611169565b6102756103f4366004613a3c565b611360565b61040c6104073660046134fe565b6113f3565b60405161027f9190613b6e565b6103316104273660046138fe565b611494565b46610275565b610306610440366004613a3c565b6114d5565b61029b61154c565b61033161045b366004613692565b61155b565b61027561046e3660046134fe565b611624565b6103316116ab565b6102bb610489366004613a3c565b60006020819052908152604090205460ff1681565b61029b6104ac366004613932565b6116e1565b600b546001600160a01b0316610306565b6102756104d0366004613849565b6118de565b61029b61198b565b6103316104eb3660046134fe565b61199a565b6103316104fe366004613757565b611a3e565b61027561051136600461378a565b611b03565b610275610524366004613571565b611c3b565b610306610537366004613a08565b611e97565b61033161054a366004613613565b611f73565b61029b61055d366004613a3c565b611fab565b610275612092565b6102bb610578366004613538565b6001600160a01b03918216600090815260066020908152604080832093909416825291909152205460ff1690565b6102756105b43660046138fe565b6120a8565b61029b6105c7366004613a55565b6120d0565b6103316105da3660046134fe565b612147565b60008181526010602052604090208054606091906105fc90613f25565b80601f016020809104026020016040519081016040528092919081815260200182805461062890613f25565b80156106755780601f1061064a57610100808354040283529160200191610675565b820191906000526020600020905b81548152906001019060200180831161065857829003601f168201915b50505050509050919050565b600061068c826121e2565b92915050565b6060600180546106a190613f25565b80601f01602080910402602001604051908101604052809291908181526020018280546106cd90613f25565b801561071a5780601f106106ef5761010080835404028352916020019161071a565b820191906000526020600020905b8154815290600101906020018083116106fd57829003601f168201915b5050505050905090565b61072c61314b565b60006107388484610e9d565b9050606080606060106000858152602001908152602001600020805461075d90613f25565b80601f016020809104026020016040519081016040528092919081815260200182805461078990613f25565b80156107d65780601f106107ab576101008083540402835291602001916107d6565b820191906000526020600020905b8154815290600101906020018083116107b957829003601f168201915b5050505050925061080383604051806040016040528060048152602001636e616d6560e01b8152506116e1565b915061082a8360405180604001604052806003815260200162195e1d60ea1b8152506116e1565b60008581526013602090815260409182902054825160c081018452978852908701959095528501929092525060608301526001600160a01b039081166080830152841660a0820152905092915050565b6000818152600360205260408120546001600160a01b03166108f85760405162461bcd60e51b815260206004820152602c60248201527f4552433732313a20617070726f76656420717565727920666f72206e6f6e657860448201526b34b9ba32b73a103a37b5b2b760a11b60648201526084015b60405180910390fd5b506000908152600560205260409020546001600160a01b031690565b600f5460ff1680610929575061092933610e4e565b6109455760405162461bcd60e51b81526004016108ef90613c2c565b600083511161098d5760405162461bcd60e51b8152602060048201526014602482015273686173682063616e6e6f7420626520656d70747960601b60448201526064016108ef565b6000805b6012856040516109a19190613af0565b90815260405190819003602001902054811015610aff57610a8a6012866040516109cb9190613af0565b908152602001604051809103902082815481106109ea576109ea613fe1565b90600052602060002090600202016000018054610a0690613f25565b80601f0160208091040260200160405190810160405280929190818152602001828054610a3290613f25565b8015610a7f5780601f10610a5457610100808354040283529160200191610a7f565b820191906000526020600020905b815481529060010190602001808311610a6257829003601f168201915b505050505085612232565b15610aed5782601286604051610aa09190613af0565b90815260200160405180910390208281548110610abf57610abf613fe1565b90600052602060002090600202016001019080519060200190610ae3929190613193565b5060019150610aff565b80610af781613f5a565b915050610991565b5080610b7e57601284604051610b159190613af0565b908152604080519182900360209081018320838301909252858352828101859052815460018101835560009283529181902083518051600290940290910192610b619284920190613193565b506020828101518051610b7a9260018501920190613193565b5050505b7f8377145d9399028a063fdd9af215c1354b18cba9fe8763d27fcd8e424e01af97848484604051610bb193929190613bf3565b60405180910390a150505050565b6000610bca826114d5565b9050806001600160a01b0316836001600160a01b03161415610c385760405162461bcd60e51b815260206004820152602160248201527f4552433732313a20617070726f76616c20746f2063757272656e74206f776e656044820152603960f91b60648201526084016108ef565b336001600160a01b0382161480610c545750610c548133610578565b610cc65760405162461bcd60e51b815260206004820152603860248201527f4552433732313a20617070726f76652063616c6c6572206973206e6f74206f7760448201527f6e6572206e6f7220617070726f76656420666f7220616c6c000000000000000060648201526084016108ef565b610cd0838361228b565b505050565b610cdd61314b565b6060806060601060008681526020019081526020016000208054610d0090613f25565b80601f0160208091040260200160405190810160405280929190818152602001828054610d2c90613f25565b8015610d795780601f10610d4e57610100808354040283529160200191610d79565b820191906000526020600020905b815481529060010190602001808311610d5c57829003601f168201915b50505050509250610da683604051806040016040528060048152602001636e616d6560e01b8152506116e1565b9150610dcd8360405180604001604052806003815260200162195e1d60ea1b8152506116e1565b60008681526013602090815260408083205460039092528220549293506001600160a01b039081169216610e02576000610e0b565b610e0b876114d5565b6040805160c08101825298895260208901969096529487019390935260608601919091526001600160a01b03908116608086015290911660a08401525090919050565b6001600160a01b03166000908152600c602052604090205460ff1690565b610e7633826122f9565b610e925760405162461bcd60e51b81526004016108ef90613d31565b610cd08383836123f0565b6000610ea883611624565b8210610f0a5760405162461bcd60e51b815260206004820152602b60248201527f455243373231456e756d657261626c653a206f776e657220696e646578206f7560448201526a74206f6620626f756e647360a81b60648201526084016108ef565b506001600160a01b03919091166000908152600760209081526040808320938352929052205490565b600b546001600160a01b03163314610f5d5760405162461bcd60e51b81526004016108ef90613cb5565b610f6681610e4e565b610fb25760405162461bcd60e51b815260206004820152601c60248201527f45524332303a204d696e74657220646f6573206e6f742065786973740000000060448201526064016108ef565b6001600160a01b03166000908152600c60205260409020805460ff19169055565b600f5460ff1680610fe85750610fe833610e4e565b6110045760405162461bcd60e51b81526004016108ef90613c2c565b6000805b6000858152601460205260409020548110156110ab57600085815260146020526040902080546110439190839081106109ea576109ea613fe1565b1561109957600085815260146020526040902080548491908390811061106b5761106b613fe1565b9060005260206000209060020201600101908051906020019061108f929190613193565b50600191506110ab565b806110a381613f5a565b915050611008565b508061111b5760008481526014602090815260408083208151808301909252868252818301869052805460018101825590845292829020815180519294600202909101926110fe92849290910190613193565b5060208281015180516111179260018501920190613193565b5050505b7fb8814a4649a63613b0ae2f7d5f71b3771676c2eba17542b79a2a6d5c19d4af3c848484604051610bb193929190613e15565b610cd083838360405180602001604052806000815250611f73565b600f5460ff168061117e575061117e33610e4e565b61119a5760405162461bcd60e51b81526004016108ef90613c2c565b6011826040516111aa9190613af0565b908152602001604051809103902054600014156112095760405162461bcd60e51b815260206004820152601b60248201527f4552433732313a206861736820646f6573206e6f74206578697374000000000060448201526064016108ef565b600060118360405161121b9190613af0565b908152602001604051809103902054905060118360405161123c9190613af0565b90815260200160405180910390205460118360405161125b9190613af0565b90815260408051602092819003830190209290925560008381526010825291909120835161128b92850190613193565b5060128360405161129c9190613af0565b90815260200160405180910390206012836040516112ba9190613af0565b90815260405190819003602001902081546112d59290613217565b506011836040516112e69190613af0565b9081526020016040518091039020600090556012836040516113089190613af0565b9081526020016040518091039020600061132291906132a6565b7f224afc3822d8f8365592e22aa470e6da5a347b5c09d399fe8111fcad70c3040d8383604051611353929190613bc5565b60405180910390a1505050565b600061136b60095490565b82106113ce5760405162461bcd60e51b815260206004820152602c60248201527f455243373231456e756d657261626c653a20676c6f62616c20696e646578206f60448201526b7574206f6620626f756e647360a01b60648201526084016108ef565b600982815481106113e1576113e1613fe1565b90600052602060002001549050919050565b6060600061140083611624565b90506000816001600160401b0381111561141c5761141c613ff7565b604051908082528060200260200182016040528015611445578160200160208202803683370190505b50905060005b8281101561148c5761145d8582610e9d565b82828151811061146f5761146f613fe1565b60209081029190910101528061148481613f5a565b91505061144b565b509392505050565b600b546001600160a01b031633146114be5760405162461bcd60e51b81526004016108ef90613cb5565b80516114d190600d906020840190613193565b5050565b6000818152600360205260408120546001600160a01b03168061068c5760405162461bcd60e51b815260206004820152602960248201527f4552433732313a206f776e657220717565727920666f72206e6f6e657869737460448201526832b73a103a37b5b2b760b91b60648201526084016108ef565b6060600d80546106a190613f25565b600f5460ff1680611570575061157033610e4e565b61158c5760405162461bcd60e51b81526004016108ef90613c2c565b60005b8181101561161b57611608878783815181106115ad576115ad613fe1565b60200260200101518784815181106115c7576115c7613fe1565b60200260200101518785815181106115e1576115e1613fe1565b60200260200101518786815181106115fb576115fb613fe1565b6020026020010151611b03565b508061161381613f5a565b91505061158f565b50505050505050565b60006001600160a01b03821661168f5760405162461bcd60e51b815260206004820152602a60248201527f4552433732313a2062616c616e636520717565727920666f7220746865207a65604482015269726f206164647265737360b01b60648201526084016108ef565b506001600160a01b031660009081526004602052604090205490565b600b546001600160a01b031633146116d55760405162461bcd60e51b81526004016108ef90613cb5565b6116df600061259b565b565b606060005b6012846040516116f69190613af0565b908152604051908190036020019020548110156118c7576117df6012856040516117209190613af0565b9081526020016040518091039020828154811061173f5761173f613fe1565b9060005260206000209060020201600001805461175b90613f25565b80601f016020809104026020016040519081016040528092919081815260200182805461178790613f25565b80156117d45780601f106117a9576101008083540402835291602001916117d4565b820191906000526020600020905b8154815290600101906020018083116117b757829003601f168201915b505050505084612232565b156118b5576012846040516117f49190613af0565b9081526020016040518091039020818154811061181357611813613fe1565b9060005260206000209060020201600101805461182f90613f25565b80601f016020809104026020016040519081016040528092919081815260200182805461185b90613f25565b80156118a85780601f1061187d576101008083540402835291602001916118a8565b820191906000526020600020905b81548152906001019060200180831161188b57829003601f168201915b505050505091505061068c565b806118bf81613f5a565b9150506116e6565b505060408051602081019091526000815292915050565b6000806118ea83611e97565b90506118f683356114d5565b6001600160a01b0316816001600160a01b0316146119265760405162461bcd60e51b81526004016108ef90613cea565b61193130843561228b565b61193d818585356123f0565b604080516001600160a01b038084168252861660208201528435917f70eb43c4a8ae8c40502dcf22436c509c28d6ff421cf07c491be56984bd987068910160405180910390a2505035919050565b6060600280546106a190613f25565b600b546001600160a01b031633146119c45760405162461bcd60e51b81526004016108ef90613cb5565b6119cd81610e4e565b15611a1a5760405162461bcd60e51b815260206004820152601b60248201527f45524332303a204d696e74657220616c7265616479206164646564000000000060448201526064016108ef565b6001600160a01b03166000908152600c60205260409020805460ff19166001179055565b6001600160a01b038216331415611a975760405162461bcd60e51b815260206004820152601960248201527f4552433732313a20617070726f766520746f2063616c6c65720000000000000060448201526064016108ef565b3360008181526006602090815260408083206001600160a01b03871680855290835292819020805460ff191686151590811790915590519081529192917f17307eab39ab6107e8899845ad3d59bd9653f200f220920489ca2b5937696c31910160405180910390a35050565b600f5460009060ff1680611b1b5750611b1b33610e4e565b611b375760405162461bcd60e51b81526004016108ef90613c2c565b6000611b41612092565b9050611b4d87826125ed565b611b7486604051806040016040528060048152602001636e616d6560e01b81525087610914565b611b9a8660405180604001604052806003815260200162195e1d60ea1b81525086610914565b611bc8866040518060400160405280600b81526020016a3232b9b1b934b83a34b7b760a91b81525085610914565b600081815260136020908152604080832080546001600160a01b0319166001600160a01b038c16179055601082529091208751611c0792890190613193565b5080601187604051611c199190613af0565b90815260405190819003602001902055611c3161273b565b9695505050505050565b60008281611c4884611e97565b6040516331a9108f60e11b8152853560048201529091506001600160a01b03831690636352211e9060240160206040518083038186803b158015611c8b57600080fd5b505afa158015611c9f573d6000803e3d6000fd5b505050506040513d601f19601f82011682018060405250810190611cc3919061351b565b6001600160a01b0316816001600160a01b031614611cf35760405162461bcd60e51b81526004016108ef90613cea565b60405163020604bf60e21b81528435600482015230906001600160a01b0384169063081812fc9060240160206040518083038186803b158015611d3557600080fd5b505afa158015611d49573d6000803e3d6000fd5b505050506040513d601f19601f82011682018060405250810190611d6d919061351b565b6001600160a01b031614611dd85760405162461bcd60e51b815260206004820152602c60248201527f5468697320636f6e747261637420686173206e6f20617070726f76616c20666f60448201526b39103a3434b9903a37b5b2b760a11b60648201526084016108ef565b6040516323b872dd60e01b81526001600160a01b0382811660048301528781166024830152853560448301528316906323b872dd90606401600060405180830381600087803b158015611e2a57600080fd5b505af1158015611e3e573d6000803e3d6000fd5b5050604080516001600160a01b0385811682528a8116602083015288359450891692507f111ebfff7ae758e422941bfa7b90fc5ddafbb23589ebcdf6da904a05c3422ace910160405180910390a3505090359392505050565b60008160600135421115611eed5760405162461bcd60e51b815260206004820152601b60248201527f566f75636865722068617320616c72656164792065787069726564000000000060448201526064016108ef565b60408083013560009081526020819052205460ff1615611f455760405162461bcd60e51b8152602060048201526013602482015272496e76616c6964206e6f6e63652076616c756560681b60448201526064016108ef565b60408083013560009081526020819052908120805460ff19166001179055611f6c83612752565b9392505050565b611f7d33836122f9565b611f995760405162461bcd60e51b81526004016108ef90613d31565b611fa5848484846127ab565b50505050565b6000818152600360205260409020546060906001600160a01b031661202a5760405162461bcd60e51b815260206004820152602f60248201527f4552433732314d657461646174613a2055524920717565727920666f72206e6f60448201526e3732bc34b9ba32b73a103a37b5b2b760891b60648201526084016108ef565b600061204160408051602081019091526000815290565b905060008151116120615760405180602001604052806000815250611f6c565b8061206b846127de565b60405160200161207c929190613b0c565b6040516020818303038152906040529392505050565b6000600e5460016120a39190613eb6565b905090565b60006011826040516120ba9190613af0565b9081526020016040518091039020549050919050565b606060005b6000848152601460205260409020548110156118c7576000848152601460205260409020805461211091908390811061173f5761173f613fe1565b1561213557600084815260146020526040902080548290811061181357611813613fe1565b8061213f81613f5a565b9150506120d5565b600b546001600160a01b031633146121715760405162461bcd60e51b81526004016108ef90613cb5565b6001600160a01b0381166121d65760405162461bcd60e51b815260206004820152602660248201527f4f776e61626c653a206e6577206f776e657220697320746865207a65726f206160448201526564647265737360d01b60648201526084016108ef565b6121df8161259b565b50565b60006001600160e01b031982166380ac58cd60e01b148061221357506001600160e01b03198216635b5e139f60e01b145b8061068c57506301ffc9a760e01b6001600160e01b031983161461068c565b6000816040516020016122459190613af0565b604051602081830303815290604052805190602001208360405160200161226c9190613af0565b6040516020818303038152906040528051906020012014905092915050565b600081815260056020526040902080546001600160a01b0319166001600160a01b03841690811790915581906122c0826114d5565b6001600160a01b03167f8c5be1e5ebec7d5bd14f71427d1e84f3dd0314c0f7b2291e5b200ac8c7c3b92560405160405180910390a45050565b6000818152600360205260408120546001600160a01b03166123725760405162461bcd60e51b815260206004820152602c60248201527f4552433732313a206f70657261746f7220717565727920666f72206e6f6e657860448201526b34b9ba32b73a103a37b5b2b760a11b60648201526084016108ef565b600061237d836114d5565b9050806001600160a01b0316846001600160a01b031614806123b85750836001600160a01b03166123ad8461087a565b6001600160a01b0316145b806123e857506001600160a01b0380821660009081526006602090815260408083209388168352929052205460ff165b949350505050565b826001600160a01b0316612403826114d5565b6001600160a01b03161461246b5760405162461bcd60e51b815260206004820152602960248201527f4552433732313a207472616e73666572206f6620746f6b656e2074686174206960448201526839903737ba1037bbb760b91b60648201526084016108ef565b6001600160a01b0382166124cd5760405162461bcd60e51b8152602060048201526024808201527f4552433732313a207472616e7366657220746f20746865207a65726f206164646044820152637265737360e01b60648201526084016108ef565b6124d88383836128db565b6124e360008261228b565b6001600160a01b038316600090815260046020526040812080546001929061250c908490613ee2565b90915550506001600160a01b038216600090815260046020526040812080546001929061253a908490613eb6565b909155505060008181526003602052604080822080546001600160a01b0319166001600160a01b0386811691821790925591518493918716917fddf252ad1be2c89b69c2b068fc378daa952ba7f163c4a11628f55a4df523b3ef91a4505050565b600b80546001600160a01b038381166001600160a01b0319831681179093556040519116919082907f8be0079c531659141344cd1fd0a4f28419497f9722a3daafe3b4186f6b6457e090600090a35050565b6001600160a01b0382166126435760405162461bcd60e51b815260206004820181905260248201527f4552433732313a206d696e7420746f20746865207a65726f206164647265737360448201526064016108ef565b6000818152600360205260409020546001600160a01b0316156126a85760405162461bcd60e51b815260206004820152601c60248201527f4552433732313a20746f6b656e20616c7265616479206d696e7465640000000060448201526064016108ef565b6126b4600083836128db565b6001600160a01b03821660009081526004602052604081208054600192906126dd908490613eb6565b909155505060008181526003602052604080822080546001600160a01b0319166001600160a01b03861690811790915590518392907fddf252ad1be2c89b69c2b068fc378daa952ba7f163c4a11628f55a4df523b3ef908290a45050565b600e805490600061274b83613f5a565b9190505550565b60008061275e83612993565b9050611f6c816127716080860186613e40565b8080601f016020809104026020016040519081016040528093929190818152602001838380828437600092019190915250612a0a92505050565b6127b68484846123f0565b6127c284848484612a26565b611fa55760405162461bcd60e51b81526004016108ef90613c63565b6060816128025750506040805180820190915260018152600360fc1b602082015290565b8160005b811561282c578061281681613f5a565b91506128259050600a83613ece565b9150612806565b6000816001600160401b0381111561284657612846613ff7565b6040519080825280601f01601f191660200182016040528015612870576020820181803683370190505b5090505b84156123e857612885600183613ee2565b9150612892600a86613f75565b61289d906030613eb6565b60f81b8183815181106128b2576128b2613fe1565b60200101906001600160f81b031916908160001a9053506128d4600a86613ece565b9450612874565b6001600160a01b0383166129365761293181600980546000838152600a60205260408120829055600182018355919091527f6e1540171b6c0c960b71a7020d9f60077f6af931a8bbf590da0223dacf75c7af0155565b612959565b816001600160a01b0316836001600160a01b031614612959576129598382612b33565b6001600160a01b03821661297057610cd081612bd0565b826001600160a01b0316826001600160a01b031614610cd057610cd08282612c7f565b604080517f9351747b1e9d1d5ecc2259decffb60239f521e243e85645e0762ed1d775876776020828101919091528335828401528301356060828101919091529183013560808201529082013560a082015260009061068c9060c00160405160208183030381529060405280519060200120612cc3565b6000806000612a198585612d11565b9150915061148c81612d81565b60006001600160a01b0384163b15612b2857604051630a85bd0160e11b81526001600160a01b0385169063150b7a0290612a6a903390899088908890600401613b3b565b602060405180830381600087803b158015612a8457600080fd5b505af1925050508015612ab4575060408051601f3d908101601f19168201909252612ab1918101906138e1565b60015b612b0e573d808015612ae2576040519150601f19603f3d011682016040523d82523d6000602084013e612ae7565b606091505b508051612b065760405162461bcd60e51b81526004016108ef90613c63565b805181602001fd5b6001600160e01b031916630a85bd0160e11b1490506123e8565b506001949350505050565b60006001612b4084611624565b612b4a9190613ee2565b600083815260086020526040902054909150808214612b9d576001600160a01b03841660009081526007602090815260408083208584528252808320548484528184208190558352600890915290208190555b5060009182526008602090815260408084208490556001600160a01b039094168352600781528383209183525290812055565b600954600090612be290600190613ee2565b6000838152600a602052604081205460098054939450909284908110612c0a57612c0a613fe1565b906000526020600020015490508060098381548110612c2b57612c2b613fe1565b6000918252602080832090910192909255828152600a90915260408082208490558582528120556009805480612c6357612c63613fcb565b6001900381819060005260206000200160009055905550505050565b6000612c8a83611624565b6001600160a01b039093166000908152600760209081526040808320868452825280832085905593825260089052919091209190915550565b600061068c612cd0612f3c565b8360405161190160f01b6020820152602281018390526042810182905260009060620160405160208183030381529060405280519060200120905092915050565b600080825160411415612d485760208301516040840151606085015160001a612d3c8782858561302f565b94509450505050612d7a565b825160401415612d725760208301516040840151612d6786838361311c565b935093505050612d7a565b506000905060025b9250929050565b6000816004811115612d9557612d95613fb5565b1415612d9e5750565b6001816004811115612db257612db2613fb5565b1415612e005760405162461bcd60e51b815260206004820152601860248201527f45434453413a20696e76616c6964207369676e6174757265000000000000000060448201526064016108ef565b6002816004811115612e1457612e14613fb5565b1415612e625760405162461bcd60e51b815260206004820152601f60248201527f45434453413a20696e76616c6964207369676e6174757265206c656e6774680060448201526064016108ef565b6003816004811115612e7657612e76613fb5565b1415612ecf5760405162461bcd60e51b815260206004820152602260248201527f45434453413a20696e76616c6964207369676e6174757265202773272076616c604482015261756560f01b60648201526084016108ef565b6004816004811115612ee357612ee3613fb5565b14156121df5760405162461bcd60e51b815260206004820152602260248201527f45434453413a20696e76616c6964207369676e6174757265202776272076616c604482015261756560f01b60648201526084016108ef565b60007f0000000000000000000000000000000000000000000000000000000000000000461415612f8b57507f000000000000000000000000000000000000000000000000000000000000000090565b50604080517f00000000000000000000000000000000000000000000000000000000000000006020808301919091527f0000000000000000000000000000000000000000000000000000000000000000828401527f000000000000000000000000000000000000000000000000000000000000000060608301524660808301523060a0808401919091528351808403909101815260c0909201909252805191012090565b6000807f7fffffffffffffffffffffffffffffff5d576e7357a4501ddfe92f46681b20a08311156130665750600090506003613113565b8460ff16601b1415801561307e57508460ff16601c14155b1561308f5750600090506004613113565b6040805160008082526020820180845289905260ff881692820192909252606081018690526080810185905260019060a0016020604051602081039080840390855afa1580156130e3573d6000803e3d6000fd5b5050604051601f1901519150506001600160a01b03811661310c57600060019250925050613113565b9150600090505b94509492505050565b6000806001600160ff1b03831660ff84901c601b0161313d8782888561302f565b935093505050935093915050565b6040518060c001604052806000815260200160608152602001606081526020016060815260200160006001600160a01b0316815260200160006001600160a01b031681525090565b82805461319f90613f25565b90600052602060002090601f0160209004810192826131c15760008555613207565b82601f106131da57805160ff1916838001178555613207565b82800160010185558215613207579182015b828111156132075782518255916020019190600101906131ec565b506132139291506132c7565b5090565b82805482825590600052602060002090600202810192821561329a5760005260206000209160020282015b8281111561329a578254839083908190839061325d90613f25565b6132689291906132dc565b50600182018160010190805461327d90613f25565b6132889291906132dc565b50505091600201919060020190613242565b50613213929150613357565b50805460008255600202906000526020600020908101906121df9190613357565b5b8082111561321357600081556001016132c8565b8280546132e890613f25565b90600052602060002090601f01602090048101928261330a5760008555613207565b82601f1061331b5780548555613207565b8280016001018555821561320757600052602060002091601f016020900482015b8281111561320757825482559160010191906001019061333c565b8082111561321357600061336b8282613382565b613379600183016000613382565b50600201613357565b50805461338e90613f25565b6000825580601f1061339e575050565b601f0160209004906000526020600020908101906121df91906132c7565b60006001600160401b038311156133d5576133d5613ff7565b6133e8601f8401601f1916602001613e86565b90508281528383830111156133fc57600080fd5b828260208301376000602084830101529392505050565b803561341e8161400d565b919050565b600082601f83011261343457600080fd5b813560206001600160401b038083111561345057613450613ff7565b8260051b61345f838201613e86565b8481528381019087850183890186018a101561347a57600080fd5b60009350835b878110156134b757813586811115613496578586fd5b6134a48c89838e01016134c6565b8552509286019290860190600101613480565b50909998505050505050505050565b600082601f8301126134d757600080fd5b611f6c838335602085016133bc565b600060a082840312156134f857600080fd5b50919050565b60006020828403121561351057600080fd5b8135611f6c8161400d565b60006020828403121561352d57600080fd5b8151611f6c8161400d565b6000806040838503121561354b57600080fd5b82356135568161400d565b915060208301356135668161400d565b809150509250929050565b60008060006060848603121561358657600080fd5b83356135918161400d565b925060208401356135a18161400d565b915060408401356001600160401b038111156135bc57600080fd5b6135c8868287016134e6565b9150509250925092565b6000806000606084860312156135e757600080fd5b83356135f28161400d565b925060208401356136028161400d565b929592945050506040919091013590565b6000806000806080858703121561362957600080fd5b84356136348161400d565b935060208501356136448161400d565b92506040850135915060608501356001600160401b0381111561366657600080fd5b8501601f8101871361367757600080fd5b613686878235602084016133bc565b91505092959194509250565b60008060008060008060c087890312156136ab57600080fd5b6136b487613413565b955060208701356001600160401b03808211156136d057600080fd5b6136dc8a838b01613423565b965060408901359150808211156136f257600080fd5b6136fe8a838b01613423565b9550606089013591508082111561371457600080fd5b6137208a838b01613423565b9450608089013591508082111561373657600080fd5b5061374389828a01613423565b92505060a087013590509295509295509295565b6000806040838503121561376a57600080fd5b82356137758161400d565b91506020830135801515811461356657600080fd5b600080600080600060a086880312156137a257600080fd5b85356137ad8161400d565b945060208601356001600160401b03808211156137c957600080fd5b6137d589838a016134c6565b955060408801359150808211156137eb57600080fd5b6137f789838a016134c6565b9450606088013591508082111561380d57600080fd5b61381989838a016134c6565b9350608088013591508082111561382f57600080fd5b5061383c888289016134c6565b9150509295509295909350565b6000806040838503121561385c57600080fd5b82356138678161400d565b915060208301356001600160401b0381111561388257600080fd5b61388e858286016134e6565b9150509250929050565b600080604083850312156138ab57600080fd5b82356138b68161400d565b946020939093013593505050565b6000602082840312156138d657600080fd5b8135611f6c81614022565b6000602082840312156138f357600080fd5b8151611f6c81614022565b60006020828403121561391057600080fd5b81356001600160401b0381111561392657600080fd5b6123e8848285016134c6565b6000806040838503121561394557600080fd5b82356001600160401b038082111561395c57600080fd5b613968868387016134c6565b9350602085013591508082111561397e57600080fd5b5061388e858286016134c6565b6000806000606084860312156139a057600080fd5b83356001600160401b03808211156139b757600080fd5b6139c3878388016134c6565b945060208601359150808211156139d957600080fd5b6139e5878388016134c6565b935060408601359150808211156139fb57600080fd5b506135c8868287016134c6565b600060208284031215613a1a57600080fd5b81356001600160401b03811115613a3057600080fd5b6123e8848285016134e6565b600060208284031215613a4e57600080fd5b5035919050565b60008060408385031215613a6857600080fd5b8235915060208301356001600160401b03811115613a8557600080fd5b61388e858286016134c6565b600080600060608486031215613aa657600080fd5b8335925060208401356001600160401b03808211156139d957600080fd5b60008151808452613adc816020860160208601613ef9565b601f01601f19169290920160200192915050565b60008251613b02818460208701613ef9565b9190910192915050565b60008351613b1e818460208801613ef9565b835190830190613b32818360208801613ef9565b01949350505050565b6001600160a01b0385811682528416602082015260408101839052608060608201819052600090611c3190830184613ac4565b6020808252825182820181905260009190848201906040850190845b81811015613ba657835183529284019291840191600101613b8a565b50909695505050505050565b602081526000611f6c6020830184613ac4565b604081526000613bd86040830185613ac4565b8281036020840152613bea8185613ac4565b95945050505050565b606081526000613c066060830186613ac4565b8281036020840152613c188186613ac4565b90508281036040840152611c318185613ac4565b60208082526019908201527f4552433732313a20756e617574686f72697a65642063616c6c00000000000000604082015260600190565b60208082526032908201527f4552433732313a207472616e7366657220746f206e6f6e20455243373231526560408201527131b2b4bb32b91034b6b83632b6b2b73a32b960711b606082015260800190565b6020808252818101527f4f776e61626c653a2063616c6c6572206973206e6f7420746865206f776e6572604082015260600190565b60208082526027908201527f417574686f72697a6174696f6e206661696c65643a20496e76616c6964207369604082015266676e617475726560c81b606082015260800190565b60208082526031908201527f4552433732313a207472616e736665722063616c6c6572206973206e6f74206f6040820152701ddb995c881b9bdc88185c1c1c9bdd9959607a1b606082015260800190565b60208152815160208201526000602083015160c06040840152613da860e0840182613ac4565b90506040840151601f1980858403016060860152613dc68383613ac4565b9250606086015191508085840301608086015250613de48282613ac4565b60808601516001600160a01b0390811660a0878101919091529096015190951660c090940193909352509192915050565b838152606060208201526000613e2e6060830185613ac4565b8281036040840152611c318185613ac4565b6000808335601e19843603018112613e5757600080fd5b8301803591506001600160401b03821115613e7157600080fd5b602001915036819003821315612d7a57600080fd5b604051601f8201601f191681016001600160401b0381118282101715613eae57613eae613ff7565b604052919050565b60008219821115613ec957613ec9613f89565b500190565b600082613edd57613edd613f9f565b500490565b600082821015613ef457613ef4613f89565b500390565b60005b83811015613f14578181015183820152602001613efc565b83811115611fa55750506000910152565b600181811c90821680613f3957607f821691505b602082108114156134f857634e487b7160e01b600052602260045260246000fd5b6000600019821415613f6e57613f6e613f89565b5060010190565b600082613f8457613f84613f9f565b500690565b634e487b7160e01b600052601160045260246000fd5b634e487b7160e01b600052601260045260246000fd5b634e487b7160e01b600052602160045260246000fd5b634e487b7160e01b600052603160045260246000fd5b634e487b7160e01b600052603260045260246000fd5b634e487b7160e01b600052604160045260246000fd5b6001600160a01b03811681146121df57600080fd5b6001600160e01b0319811681146121df57600080fdfea2646970667358221220ec3baeefe11d7dddae279522dd90539608c19f3850958d1f1b2355981b5c86b964736f6c634300080700334f776e61626c653a2063616c6c6572206973206e6f7420746865206f776e6572",
  "immutableReferences": {
    "4760": [
      {
        "length": 32,
        "start": 12137
      }
    ],
    "4762": [
      {
        "length": 32,
        "start": 12096
      }
    ],
    "4764": [
      {
        "length": 32,
        "start": 12220
      }
    ],
    "4766": [
      {
        "length": 32,
        "start": 12257
      }
    ],
    "4768": [
      {
        "length": 32,
        "start": 12178
      }
    ]
  },
  "source": "//SPDX-License-Identifier: MIT\npragma solidity 0.8.7;\npragma abicoder v2; // required to accept structs as function parameters\n\nimport \"@openzeppelin/contracts/access/AccessControl.sol\";\nimport \"@openzeppelin/contracts/access/Ownable.sol\";\nimport \"@openzeppelin/contracts/token/ERC721/extensions/ERC721Enumerable.sol\";\nimport \"@openzeppelin/contracts/utils/structs/EnumerableSet.sol\";\nimport \"../utils/WBVRSVoucher.sol\";\n\ncontract WebaverseERC721 is WBVRSVoucher, ERC721Enumerable, Ownable {\n    using EnumerableSet for EnumerableSet.UintSet;\n\n    mapping(address => bool) private _whitelistedMinters; // Mapping of white listed minters\n    string private _WebaBaseURI; // Base URI of the collection for Webaverse\n    uint256 public currentTokenId; // State variable for storing the latest minted token id\n    bool internal isPublicallyMintable; // whether anyone can mint tokens in this copy of the contract\n    mapping(uint256 => string) internal tokenIdToHash; // map of token id to hash it represents\n    mapping(string => uint256) internal hashToTokenId; // map of hash to token id it represents\n    mapping(string => Metadata[]) internal hashToMetadata; // map of hash to metadata key-value store\n    mapping(uint256 => address) internal minters; // map of tokens to minters\n    mapping(uint256 => Metadata[]) internal tokenIdToMetadata; // map of token id to metadata key-value store\n\n    struct Metadata {\n        string key;\n        string value;\n    }\n\n    struct Token {\n        uint256 id;\n        string hash;\n        string name;\n        string ext;\n        address minter;\n        address owner;\n    }\n\n    event MetadataSet(string hash, string key, string value);\n    event SingleMetadataSet(uint256 tokenId, string key, string value);\n    event HashUpdate(string oldHash, string newHash);\n    event Claim(address signer, address claimer, uint256 indexed id);\n    event ExternalClaim(\n        address indexed externalContract,\n        address signer,\n        address claimer,\n        uint256 indexed id\n    );\n\n    modifier onlyMinter() {\n        require(\n            isPublicallyMintable || isAllowedMinter(msg.sender),\n            \"ERC721: unauthorized call\"\n        );\n        _;\n    }\n\n    constructor(\n        string memory name,\n        string memory symbol,\n        string memory baseURI_\n    ) ERC721(name, symbol) {\n        setBaseURI(baseURI_);\n        addMinter(msg.sender);\n    }\n\n    /**\n     * @return Returns the base URI of the host to fetch the metadata from (default empty).\n     */\n    function baseURI() public view returns (string memory) {\n        return _WebaBaseURI;\n    }\n\n    /**\n     * @dev Update or change the Base URI of the collection for Webaverse NFTs\n     * @param baseURI_ The base URI of the host to fetch the metadata from e.g. https://ipfs.io/ipfs/.\n     */\n    function setBaseURI(string memory baseURI_) public onlyOwner {\n        _WebaBaseURI = baseURI_;\n    }\n\n    /**\n     * @notice Mints the a single NFT with given parameters.\n     * @param to The address on which the NFT will be minted.\n     * @param hash The URL of the NFT.\n     * @param name The name of the NFT.\n     * @param ext The name of the NFT.\n     * @param description The description of the NFT.\n     **/\n    function mint(\n        address to,\n        string memory hash,\n        string memory name,\n        string memory ext,\n        string memory description\n    ) public onlyMinter returns (uint256) {\n        uint256 tokenId = getNextTokenId();\n        _mint(to, tokenId);\n        setMetadata(hash, \"name\", name);\n        setMetadata(hash, \"ext\", ext);\n        setMetadata(hash, \"description\", description);\n        minters[tokenId] = to;\n        tokenIdToHash[tokenId] = hash;\n        hashToTokenId[hash] = tokenId;\n        _incrementTokenId();\n        return tokenId;\n    }\n\n    /**\n     * @notice Mints the a single NFT with given parameters.\n     * @param to The address on which the NFT will be minted.\n     * @param hash The IPFS hash of the NFT.\n     * @param name The name of the NFT.\n     * @param ext The ext of the NFT e.g '.jpeg', '.gif'.\n     * @param description The IPFS hash of the NFT.\n     **/\n    function mintBatch(\n        address to,\n        string[] memory hash,\n        string[] memory name,\n        string[] memory ext,\n        string[] memory description,\n        uint256 tokenCount\n    ) public onlyMinter {\n        for (uint256 i = 0; i < tokenCount; i++) {\n            mint(to, hash[i], name[i], ext[i], description[i]);\n        }\n    }\n\n    /**\n     * @dev Get metadata for the token. Metadata is a key-value store that can be set by owners and collaborators\n     * @param hash Token hash to query for metadata\n     * @param key Key to query for a value\n     * @return Value corresponding to metadata key\n     */\n    function getMetadata(string memory hash, string memory key)\n        public\n        view\n        returns (string memory)\n    {\n        for (uint256 i = 0; i < hashToMetadata[hash].length; i++) {\n            if (streq(hashToMetadata[hash][i].key, key)) {\n                return hashToMetadata[hash][i].value;\n            }\n        }\n        return \"\";\n    }\n\n    /**\n     * @dev Set metadata for the token. Metadata is a key-value store that can be set by owners and collaborators\n     * @param hash Token hash to add metadata to\n     * @param key Key to store value at\n     * @param value Value to store\n     */\n    function setMetadata(\n        string memory hash,\n        string memory key,\n        string memory value\n    ) public onlyMinter {\n        require(bytes(hash).length > 0, \"hash cannot be empty\"); // Hash cannot be empty (minting null items)\n        bool keyFound = false;\n        for (uint256 i = 0; i < hashToMetadata[hash].length; i++) {\n            if (streq(hashToMetadata[hash][i].key, key)) {\n                hashToMetadata[hash][i].value = value;\n                keyFound = true;\n                break;\n            }\n        }\n        if (!keyFound) {\n            hashToMetadata[hash].push(Metadata(key, value));\n        }\n\n        emit MetadataSet(hash, key, value);\n    }\n\n    /**\n     * @dev Get metadata for a single token (non-hashed)\n     * @param tokenId Token hash to add metadata to\n     * @param key Key to retrieve value for\n     * @return Returns the value stored for the key\n     */\n    function getSingleMetadata(uint256 tokenId, string memory key)\n        public\n        view\n        returns (string memory)\n    {\n        for (uint256 i = 0; i < tokenIdToMetadata[tokenId].length; i++) {\n            if (streq(tokenIdToMetadata[tokenId][i].key, key)) {\n                return tokenIdToMetadata[tokenId][i].value;\n            }\n        }\n        return \"\";\n    }\n\n    /**\n     * @dev Set metadata for a single token (non-hashed)\n     * @param tokenId Token hash to add metadata to\n     * @param key Key to store value at\n     * @param value Value to store\n     */\n    function setSingleMetadata(\n        uint256 tokenId,\n        string memory key,\n        string memory value\n    ) public onlyMinter {\n        bool keyFound = false;\n        for (uint256 i = 0; i < tokenIdToMetadata[tokenId].length; i++) {\n            if (streq(tokenIdToMetadata[tokenId][i].key, key)) {\n                tokenIdToMetadata[tokenId][i].value = value;\n                keyFound = true;\n                break;\n            }\n        }\n        if (!keyFound) {\n            tokenIdToMetadata[tokenId].push(Metadata(key, value));\n        }\n\n        emit SingleMetadataSet(tokenId, key, value);\n    }\n\n    /**\n     * @notice Get token id from hash\n     */\n    function getTokenIdFromHash(string memory hash)\n        public\n        view\n        returns (uint256)\n    {\n        return hashToTokenId[hash];\n    }\n\n    /**\n     * @notice Get token id from hash\n     */\n    function getHashFromTokenId(uint256 tokenId)\n        public\n        view\n        returns (string memory)\n    {\n        return tokenIdToHash[tokenId];\n    }\n\n    /**\n     * @dev Update token hash with a new hash\n     * @param oldHash Old hash to query\n     * @param newHash New hash to set\n     */\n    function updateHash(string memory oldHash, string memory newHash)\n        public\n        onlyMinter\n    {\n        require(hashToTokenId[oldHash] != 0, \"ERC721: hash does not exist\");\n        uint256 tokenId = hashToTokenId[oldHash];\n        hashToTokenId[newHash] = hashToTokenId[oldHash];\n        tokenIdToHash[tokenId] = newHash;\n        hashToMetadata[newHash] = hashToMetadata[oldHash];\n        delete hashToTokenId[oldHash];\n        delete hashToMetadata[oldHash];\n        emit HashUpdate(oldHash, newHash);\n    }\n\n    /**\n     * @dev List the tokens IDs owned by an account\n     * @param owner Address to query\n     * @return Array of token IDs\n     */\n    function getTokenIdsOf(address owner)\n        public\n        view\n        returns (uint256[] memory)\n    {\n        uint256 count = balanceOf(owner);\n        uint256[] memory ids = new uint256[](count);\n        for (uint256 i = 0; i < count; i++) {\n            ids[i] = tokenOfOwnerByIndex(owner, i);\n        }\n        return ids;\n    }\n\n    /**\n     * @dev Get the complete information for a token from it's ID\n     * @param tokenId Token ID to query\n     * @return Token struct containing token data\n     */\n    function tokenByIdFull(uint256 tokenId) public view returns (Token memory) {\n        string memory hash;\n        string memory name;\n        string memory ext;\n        hash = tokenIdToHash[tokenId];\n        name = getMetadata(hash, \"name\");\n        ext = getMetadata(hash, \"ext\");\n\n        address minter = minters[tokenId];\n        address owner = _exists(tokenId) ? ownerOf(tokenId) : address(0);\n        return Token(tokenId, hash, name, ext, minter, owner);\n    }\n\n    /**\n     * @dev Get the full Token struct from an owner address at a specific index\n     * @param owner Owner to query\n     * @param index Index in owner's balance to query\n     * @return Token struct containing token data\n     */\n    function tokenOfOwnerByIndexFull(address owner, uint256 index)\n        public\n        view\n        returns (Token memory)\n    {\n        uint256 tokenId = tokenOfOwnerByIndex(owner, index);\n        string memory hash;\n        string memory name;\n        string memory ext;\n        hash = tokenIdToHash[tokenId];\n        name = getMetadata(hash, \"name\");\n        ext = getMetadata(hash, \"ext\");\n        address minter = minters[tokenId];\n        return Token(tokenId, hash, name, ext, minter, owner);\n    }\n\n    /**\n     * @notice Redeems an NFTVoucher for an actual NFT, authorized by the owner.\n     * @param claimer The address of the account which will receive the NFT upon success.\n     * @param voucher A signed NFTVoucher that describes the NFT to be redeemed.\n     * @dev Verification through ECDSA signature of 'typed' data.\n     * @dev Voucher must contain valid signature, nonce, and expiry.\n     **/\n    function claim(address claimer, NFTVoucher calldata voucher)\n        public\n        virtual\n        returns (uint256)\n    {\n        // make sure signature is valid and get the address of the signer\n        address signer = verifyVoucher(voucher);\n\n        require(\n            signer == ownerOf(voucher.tokenId),\n            \"Authorization failed: Invalid signature\"\n        );\n\n        // set internal approval for the tokenId on the behalf of the signer\n        _approve(address(this), voucher.tokenId);\n        // transfer the token to the claimer\n        _transfer(signer, claimer, voucher.tokenId);\n        emit Claim(signer, claimer, voucher.tokenId);\n        return voucher.tokenId;\n    }\n\n    /**\n     * @notice Redeems an NFTVoucher for an actual NFT, authorized by the owner from an external contract.\n     * @param claimer The address of the account which will receive the NFT upon success.\n     * @param externalContractAddress The address of the contract from which the token is being transferred\n     * @param voucher A signed NFTVoucher that describes the NFT to be redeemed.\n     * @dev Verification through ECDSA signature of 'typed' data.\n     * @dev Voucher must contain valid signature, nonce, and expiry.\n     **/\n    function externalClaim(\n        address claimer,\n        address externalContractAddress,\n        NFTVoucher calldata voucher\n    ) public returns (uint256) {\n        IERC721 externalContract = IERC721(externalContractAddress);\n        // make sure signature is valid and get the address of the signer\n        address signer = verifyVoucher(voucher);\n\n        require(\n            signer == externalContract.ownerOf(voucher.tokenId),\n            \"Authorization failed: Invalid signature\"\n        );\n        require(\n            externalContract.getApproved(voucher.tokenId) == address(this),\n            \"This contract has no approval for this token\"\n        );\n\n        // transfer the token to the claimer\n        externalContract.transferFrom(signer, claimer, voucher.tokenId);\n        emit ExternalClaim(\n            externalContractAddress,\n            signer,\n            claimer,\n            voucher.tokenId\n        );\n        return voucher.tokenId;\n    }\n\n    /**\n     * @dev Checks if an address is allowed to mint ERC20 tokens\n     * @param account address to check for the white listing for\n     * @return true if address is allowed to mint\n     */\n    function isAllowedMinter(address account) public view returns (bool) {\n        return _whitelistedMinters[account];\n    }\n\n    /**\n     * @dev Add an account to the list of accounts allowed to create ERC20 tokens\n     * @param minter address to whitelist\n     */\n    function addMinter(address minter) public onlyOwner {\n        require(!isAllowedMinter(minter), \"ERC20: Minter already added\");\n        _whitelistedMinters[minter] = true;\n    }\n\n    /**\n     * @dev Remove an account from the list of accounts allowed to create ERC20 tokens\n     * @param minter address to remove from whitelist\n     */\n    function removeMinter(address minter) public onlyOwner {\n        require(isAllowedMinter(minter), \"ERC20: Minter does not exist\");\n        _whitelistedMinters[minter] = false;\n    }\n\n    function getNextTokenId() public view returns (uint256) {\n        return currentTokenId + 1;\n    }\n\n    /**\n     * @dev increments the value of _currentTokenId\n     */\n    function _incrementTokenId() internal {\n        currentTokenId++;\n    }\n\n    /**@dev Helper function to convert a uint to a string\n     * @param _i uint to convert\n     * @return _uintAsString string converted from uint\n     */\n    function uint2str(uint256 _i)\n        internal\n        pure\n        returns (string memory _uintAsString)\n    {\n        if (_i == 0) {\n            return \"0\";\n        }\n        uint256 j = _i;\n        uint256 len;\n        while (j != 0) {\n            len++;\n            j /= 10;\n        }\n        bytes memory bstr = new bytes(len);\n        uint256 k = len - 1;\n        while (_i != 0) {\n            bstr[k--] = bytes1(uint8(48 + (_i % 10)));\n            _i /= 10;\n        }\n        return string(bstr);\n    }\n\n    /**\n     * @dev Check if two strings are equal\n     * @param a First string to compare\n     * @param b Second string to compare\n     * @return Returns true if strings are equal\n     */\n    function streq(string memory a, string memory b)\n        internal\n        pure\n        returns (bool)\n    {\n        return (keccak256(abi.encodePacked((a))) ==\n            keccak256(abi.encodePacked((b))));\n    }\n\n    /**\n     * @notice Using low level assembly call to fetch the chain id of the blockchain.\n     * @return Returns the chain id of the current blockchain.\n     **/\n    function getChainID() external view returns (uint256) {\n        uint256 id;\n        assembly {\n            id := chainid()\n        }\n        return id;\n    }\n\n    function supportsInterface(bytes4 interfaceId)\n        public\n        view\n        virtual\n        override(ERC721Enumerable)\n        returns (bool)\n    {\n        return ERC721.supportsInterface(interfaceId);\n    }\n}\n",
  "sourcePath": "/home/mohsin/Desktop/sidechain/contracts/main/WebaversERC721.sol",
  "compiler": {
    "name": "solc",
    "version": "0.8.7+commit.e28d00a7.Emscripten.clang"
  },
  "schemaVersion": "3.4.3",
  "updatedAt": "2022-01-09T19:01:23.061Z",
  "networkType": "ethereum",
  "devdoc": {
    "kind": "dev",
    "methods": {
      "addMinter(address)": {
        "details": "Add an account to the list of accounts allowed to create ERC20 tokens",
        "params": {
          "minter": "address to whitelist"
        }
      },
      "approve(address,uint256)": {
        "details": "See {IERC721-approve}."
      },
      "balanceOf(address)": {
        "details": "See {IERC721-balanceOf}."
      },
      "baseURI()": {
        "returns": {
          "_0": "Returns the base URI of the host to fetch the metadata from (default empty)."
        }
      },
      "claim(address,(uint256,uint256,uint256,uint256,bytes))": {
        "details": "Verification through ECDSA signature of 'typed' data.Voucher must contain valid signature, nonce, and expiry.*",
        "params": {
          "claimer": "The address of the account which will receive the NFT upon success.",
          "voucher": "A signed NFTVoucher that describes the NFT to be redeemed."
        }
      },
      "externalClaim(address,address,(uint256,uint256,uint256,uint256,bytes))": {
        "details": "Verification through ECDSA signature of 'typed' data.Voucher must contain valid signature, nonce, and expiry.*",
        "params": {
          "claimer": "The address of the account which will receive the NFT upon success.",
          "externalContractAddress": "The address of the contract from which the token is being transferred",
          "voucher": "A signed NFTVoucher that describes the NFT to be redeemed."
        }
      },
      "getApproved(uint256)": {
        "details": "See {IERC721-getApproved}."
      },
      "getChainID()": {
        "returns": {
          "_0": "Returns the chain id of the current blockchain.*"
        }
      },
      "getMetadata(string,string)": {
        "details": "Get metadata for the token. Metadata is a key-value store that can be set by owners and collaborators",
        "params": {
          "hash": "Token hash to query for metadata",
          "key": "Key to query for a value"
        },
        "returns": {
          "_0": "Value corresponding to metadata key"
        }
      },
      "getSingleMetadata(uint256,string)": {
        "details": "Get metadata for a single token (non-hashed)",
        "params": {
          "key": "Key to retrieve value for",
          "tokenId": "Token hash to add metadata to"
        },
        "returns": {
          "_0": "Returns the value stored for the key"
        }
      },
      "getTokenIdsOf(address)": {
        "details": "List the tokens IDs owned by an account",
        "params": {
          "owner": "Address to query"
        },
        "returns": {
          "_0": "Array of token IDs"
        }
      },
      "isAllowedMinter(address)": {
        "details": "Checks if an address is allowed to mint ERC20 tokens",
        "params": {
          "account": "address to check for the white listing for"
        },
        "returns": {
          "_0": "true if address is allowed to mint"
        }
      },
      "isApprovedForAll(address,address)": {
        "details": "See {IERC721-isApprovedForAll}."
      },
      "mint(address,string,string,string,string)": {
        "params": {
          "description": "The description of the NFT.*",
          "ext": "The name of the NFT.",
          "hash": "The URL of the NFT.",
          "name": "The name of the NFT.",
          "to": "The address on which the NFT will be minted."
        }
      },
      "mintBatch(address,string[],string[],string[],string[],uint256)": {
        "params": {
          "description": "The IPFS hash of the NFT.*",
          "ext": "The ext of the NFT e.g '.jpeg', '.gif'.",
          "hash": "The IPFS hash of the NFT.",
          "name": "The name of the NFT.",
          "to": "The address on which the NFT will be minted."
        }
      },
      "name()": {
        "details": "See {IERC721Metadata-name}."
      },
      "owner()": {
        "details": "Returns the address of the current owner."
      },
      "ownerOf(uint256)": {
        "details": "See {IERC721-ownerOf}."
      },
      "removeMinter(address)": {
        "details": "Remove an account from the list of accounts allowed to create ERC20 tokens",
        "params": {
          "minter": "address to remove from whitelist"
        }
      },
      "renounceOwnership()": {
        "details": "Leaves the contract without owner. It will not be possible to call `onlyOwner` functions anymore. Can only be called by the current owner. NOTE: Renouncing ownership will leave the contract without an owner, thereby removing any functionality that is only available to the owner."
      },
      "safeTransferFrom(address,address,uint256)": {
        "details": "See {IERC721-safeTransferFrom}."
      },
      "safeTransferFrom(address,address,uint256,bytes)": {
        "details": "See {IERC721-safeTransferFrom}."
      },
      "setApprovalForAll(address,bool)": {
        "details": "See {IERC721-setApprovalForAll}."
      },
      "setBaseURI(string)": {
        "details": "Update or change the Base URI of the collection for Webaverse NFTs",
        "params": {
          "baseURI_": "The base URI of the host to fetch the metadata from e.g. https://ipfs.io/ipfs/."
        }
      },
      "setMetadata(string,string,string)": {
        "details": "Set metadata for the token. Metadata is a key-value store that can be set by owners and collaborators",
        "params": {
          "hash": "Token hash to add metadata to",
          "key": "Key to store value at",
          "value": "Value to store"
        }
      },
      "setSingleMetadata(uint256,string,string)": {
        "details": "Set metadata for a single token (non-hashed)",
        "params": {
          "key": "Key to store value at",
          "tokenId": "Token hash to add metadata to",
          "value": "Value to store"
        }
      },
      "supportsInterface(bytes4)": {
        "details": "See {IERC165-supportsInterface}."
      },
      "symbol()": {
        "details": "See {IERC721Metadata-symbol}."
      },
      "tokenByIdFull(uint256)": {
        "details": "Get the complete information for a token from it's ID",
        "params": {
          "tokenId": "Token ID to query"
        },
        "returns": {
          "_0": "Token struct containing token data"
        }
      },
      "tokenByIndex(uint256)": {
        "details": "See {IERC721Enumerable-tokenByIndex}."
      },
      "tokenOfOwnerByIndex(address,uint256)": {
        "details": "See {IERC721Enumerable-tokenOfOwnerByIndex}."
      },
      "tokenOfOwnerByIndexFull(address,uint256)": {
        "details": "Get the full Token struct from an owner address at a specific index",
        "params": {
          "index": "Index in owner's balance to query",
          "owner": "Owner to query"
        },
        "returns": {
          "_0": "Token struct containing token data"
        }
      },
      "tokenURI(uint256)": {
        "details": "See {IERC721Metadata-tokenURI}."
      },
      "totalSupply()": {
        "details": "See {IERC721Enumerable-totalSupply}."
      },
      "transferFrom(address,address,uint256)": {
        "details": "See {IERC721-transferFrom}."
      },
      "transferOwnership(address)": {
        "details": "Transfers ownership of the contract to a new account (`newOwner`). Can only be called by the current owner."
      },
      "updateHash(string,string)": {
        "details": "Update token hash with a new hash",
        "params": {
          "newHash": "New hash to set",
          "oldHash": "Old hash to query"
        }
      },
      "verifyVoucher((uint256,uint256,uint256,uint256,bytes))": {
        "details": "Verification through ECDSA signature of 'typed' data.Voucher must contain valid signature, nonce, and expiry.*",
        "params": {
          "voucher": "A signed NFTVoucher that describes the NFT to be redeemed."
        }
      }
    },
    "version": 1
  },
  "userdoc": {
    "kind": "user",
    "methods": {
      "claim(address,(uint256,uint256,uint256,uint256,bytes))": {
        "notice": "Redeems an NFTVoucher for an actual NFT, authorized by the owner."
      },
      "externalClaim(address,address,(uint256,uint256,uint256,uint256,bytes))": {
        "notice": "Redeems an NFTVoucher for an actual NFT, authorized by the owner from an external contract."
      },
      "getChainID()": {
        "notice": "Using low level assembly call to fetch the chain id of the blockchain."
      },
      "getHashFromTokenId(uint256)": {
        "notice": "Get token id from hash"
      },
      "getTokenIdFromHash(string)": {
        "notice": "Get token id from hash"
      },
      "mint(address,string,string,string,string)": {
        "notice": "Mints the a single NFT with given parameters."
      },
      "mintBatch(address,string[],string[],string[],string[],uint256)": {
        "notice": "Mints the a single NFT with given parameters."
      },
      "verifyVoucher((uint256,uint256,uint256,uint256,bytes))": {
        "notice": "Verifies an NFTVoucher for an actual NFT, authorized by the owner."
      }
    },
    "version": 1
  }
}